:020000040800F2
:10000000B020002005010008690E0008350E000828
:10001000670E00087D0A0008C11D000800000000EE
:10002000000000000000000000000000D5110008E2
:100030007F0A000800000000E50E00089912000881
:100040001F0100081F0100081F0100081F01000810
:100050001F0100081F0100081F0100081F01000800
:100060001F0100081F0100081F0100081F010008F0
:100070001F0100081F0100081F0100081F010008E0
:100080001F0100081F0100081F0100081F010008D0
:100090001F0100081F0100081F010008A50A000831
:1000A0001F0100081F0100081F0100081F010008B0
:1000B000ED1200082D150008691500081F01000841
:1000C0001F0100081F0100081F0100081F01000890
:1000D0001F010008DD1600088D170008051800082C
:1000E000810A00081F0100081F010008DFF810D076
:1000F00000F02CFC00480047792D0008AFF3008089
:10010000B02000200648804706480047FEE7FEE78B
:10011000FEE7FEE7FEE7FEE7FEE7FEE7FEE7FEE7B7
:100120009D120008ED00000840EA01039B0703D080
:1001300009E008C9121F08C0042AFAD203E011F826
:10014000013B00F8013B521EF9D2704710B54843FD
:10015000044602F03FFE002805D00021002C02D00A
:10016000641E0155FAE710BDF0B480EA0102D40F15
:100170004200B2EB410F02D20246084611464A0045
:1001800042D0C30DDDB2C1F3C752AD1A202D35DA0E
:10019000C1F3160141F4000204B15242C5F1200638
:1001A00002FA06F12A411044B3EBD05F23D0C4B168
:1001B000012DA0EBC35009DCF0BC4FF0004202EA75
:1001C000C352DBB200F5000000F095BA400000F128
:1001D000807000EBC350A0F1807040EAD1704900FC
:1001E00009E0490841EAC071A0EBC35000F50000E6
:1001F000400800EBC350F0BC00F074BA6142012229
:1002000002EB4101001BF6E7F0BC704781F00041B2
:10021000AAE780F00040A7E780EA010210B502F0EB
:100220000043400022D04A001FD0010E01EB1261B2
:10023000C0F35600C2F3560240F4000042F400023C
:10024000A0FB022000047F39140400D0401C50EAB7
:10025000124001D44000491EC2B20C0604EBD0107B
:10026000401C4008802A02D003E0002010BD20F08E
:100270000100002900DA0020184310BD30B480EAE4
:10028000010202F0004530F0004221F0004013D09E
:1002900090B1C30DD40DC2F31601C0F31600E41AD9
:1002A00041F4000140F400027D34914201D3641C0A
:1002B00000E04900002C02DA30BC002070474FF407
:1002C00000000023914201D3891A034340084FEAFA
:1002D0004101F7D151B1914202D14FF0004105E007
:1002E00002D24FF0010101E06FF0010103EBC450B5
:1002F000284430BC00F0F6B9420005D0C0F3C75224
:100300005242914201DC0020704700EBC15070471F
:100310002DE9FE4F804681EA0300C00F0C46009095
:1003200021F0004123F00045B8EB0200A94105D2BD
:100330004046214690461C460B46024623F00040AC
:10034000104347D0270DC7F30A00C3F30A510290A8
:10035000401A019040286BDAC3F3130040F4801B6D
:100360000098924620B10023D2EB030A63EB0B0BFB
:1003700001985946C0F14002504600F092F90646F5
:100380000D4650465946019A00F09AF910EB0800C4
:100390006141002487EA115284EAE7731A4340D08E
:1003A000009A62B3019A012A4FEA075215DC001B3A
:1003B00061EB02014FF0004202EA0752CDE9004230
:1003C000001C41F5801132462B4600F0D1F903B0F4
:1003D000BDE8F08F40462146F9E7001B61EB0201C2
:1003E000001C41F5801300185B412018A2F500178E
:1003F00047EB030140EAD570B6196D4111E06D0875
:100400004FEA360645EAC0754FEA0752001B61EB1A
:100410000201001C41F5801149084FEA3000001923
:10042000514132462B4603B0BDE8F04F00F091B980
:100430000098012240000023D0EB020263EBE0733E
:10044000009821464FEAE074B8EB000061EB04012C
:10045000E9E783F000435BE781F0004158E72DE9CD
:10046000FE4F81EA030404F0004421F000410094AF
:100470004FF0000B23F0004350EA01045ED052EA33
:1004800003045BD0C3F30A54C1F30A552C44A4F20D
:10049000F3340194A0FB0254C1F3130141F4801121
:1004A000C3F3130343F4801301FB024400FB034E28
:1004B000840A970A44EA815447EA8357A4FB0768F1
:1004C00002958D0A05FB07854FEA932C04FB0C541B
:1004D0002705029D4FEA065847EA1637B5EB08058F
:1004E0006EEB070C870E920E47EA811742EA8312E1
:1004F000A7FB0201B6EB0B0164EB00042B0D43EAF2
:100500000C335E1844EB1C50DA465146E7FB0201FF
:10051000C5F313044FEA0B3343EA14534FEA043292
:10052000019C43EA0603A4F10C040294009CCDE96B
:1005300000B400F01DF903B0BDE8F08F00200146C3
:10054000F9E770B521F0004303430CD0C1F30A551D
:100550000024D5EB040564EB0403D617AD1AB341B0
:1005600002DB0020014670BD201841EB025170BD36
:10057000C10F80EAE0700844CA079623002100F00A
:10058000BAB896230022114600F0B5B800F0004238
:1005900030F000400AD0C10D01F56071C0F31600C3
:1005A00042EA0151C208400711437047002001464A
:1005B000704701F0004330B421F0004150EA0102DD
:1005C00006D00A0DA2F56072C1F31301002A02DC05
:1005D00030BC00207047440F44EAC104C100E01859
:1005E00030BC00EBC25000F07DB80000002801DBF9
:1005F000C0F10040002901DBC1F100418142704798
:10060000002801DBC0F10040002901DBC1F10041FD
:100610008842704730B50B46014600202022012455
:1006200009E021FA02F59D4205D303FA02F5491BC0
:1006300004FA02F52844151EA2F10102F1DC30BDD6
:100640002DE9F05F0546002092469B468846064607
:10065000814640241BE0284641464746224600F09A
:1006600087F953465A46C01A914110D3114618468D
:10067000224600F016F82D1A67EB01084F46224675
:100680000120002100F00DF817EB00094E41201E5B
:10069000A4F10104DFDC484631462A464346BDE862
:1006A000F09F202A04DB203A00FA02F10020704774
:1006B0009140C2F1200320FA03F3194390407047A0
:1006C000202A06DBCB17203A41FA02F043EAE07316
:1006D00006E041FA02F3D040C2F120029140084303
:1006E000194670470029A8BF7047401C490008BF41
:1006F00020F00100704710B4B0FA80FC00FA0CF052
:1007000050EA010404BF10BC704749B1CCF1200489
:1007100021FA04F411FA0CF118BF01212143084316
:10072000A3EB0C01CB1D4FEA00614FEA102042BF42
:10073000002010BC704700EBC35010440029A4BF38
:1007400010BC7047401C490008BF20F0010010BCDD
:10075000704710B5141E73F1000408DA401C41F113
:10076000000192185B411A4301D120F0010010BD35
:100770002DE9F04D92469B4611B1B1FA81F202E0AB
:10078000B0FA80F220329046FFF78BFF04460F4606
:1007900040EA0A0041EA0B0153465A46084313D087
:1007A000114653EA010019D0C8F14002504600F04A
:1007B000DFF805460E46504659464246FFF771FFA0
:1007C000084305D0012004E020463946BDE8F08DFD
:1007D0000020054346EAE0762C4337430A98630538
:1007E000E40AA0EB08000022FD0A44EA47540A305C
:1007F00002D500200146E9E7010510196941DDE94C
:10080000084500196941BDE8F04DA2E72DE9F04D1A
:1008100081EA030404F0004B21F0004514464FF038
:10082000000A23F0004150EA050220D054EA0102F8
:100830001DD0C5F30A570246C5F31303C1F31300D5
:10084000C1F30A5640F4801543F48013A7EB060861
:10085000101BD64608F2FD3873EB050002D308F1F1
:10086000010801E092185B41B8F1000F03DA0020A3
:100870000146BDE8F08D00204FF480110646844605
:100880000EE0171B73EB050705D3121B63EB050383
:1008900006434CEA010C49084FEA300092185B41CC
:1008A00050EA0107EDD152EA030012D082EA0400B7
:1008B00083EA0501084305D0101BAB4106D2012293
:1008C000002306E000224FF0004302E06FF0010237
:1008D00053101AEB06004CEB085110EB0A0041EBE9
:1008E0000B01BDE8F04DFFF734BFC1F30A52C1F36D
:1008F000130140F2FF3341F480119A4202DA0020E2
:100900000146704740F233439A42A2F2334202DC7E
:10091000524200F02DB8FFF7C4BE000030B5041EEF
:1009200071F1000404DB4FF00044404264EB01012C
:10093000141E73F1000405DB1C464FF000435242C5
:1009400063EB0403994208BF904230BD064C074D4B
:1009500006E0E06840F0010394E80700984710348F
:10096000AC42F6D3FFF7C6FB403100086031000807
:10097000202A04DB203A21FA02F00021704721FAF4
:1009800002F3D040C2F1200291400843194670475B
:1009900070B58C1810F8015B15F0070301D110F841
:1009A000013B2A1106D110F8012B03E010F8016B6E
:1009B00001F8016B5B1EF9D12B0705D40023521EF1
:1009C0000DD401F8013BFAE710F8013BCB1A921C59
:1009D00003E013F8015B01F8015B521EF9D5A14257
:1009E000D8D3002070BD0000F8B50121042000F02C
:1009F00093FA0121082000F08FFA0121102000F065
:100A00008BFA3120ADF800001025184E8DF80350F8
:100A100003248DF802406946304600F07FF94020FB
:100A2000ADF8000004208DF803008DF802406946FF
:100A3000304600F073F92F20ADF800008DF8035018
:100A40008DF8024069460A4800F068F90126ADF8C1
:100A500000608DF803508DF802406946054800F0AB
:100A60005DF90548C0F89461F8BD00000008014038
:100A700000100140000C014000002142FEE77047D9
:100A800010B54FF48044204600F0ECF810B1044952
:100A9000012088602046BDE8104000F0DDB800006D
:100AA000140000202DE9F05F402000F0DBF850B387
:100AB0003A4E0124347002F041F8394907460025C6
:100AC000086038483849DFF8E4A005607068DFF84E
:100AD000E080401C70600968022903D1B168B1460A
:100AE000012915D0B0F57A7F0DDD5746CAF880414F
:100AF000357000F065F9C8F800003470C7F880510F
:100B00002C4805707560BDE8F05F402000F0A4B887
:100B100029480068FFF72CFD06463846D8F8001033
:100B2000FFF774FB3146FFF71FFBDFF890B0564626
:100B3000CBF8000022480470CAF880414F4689F87B
:100B4000005000F03DF9C8F800003C70C6F8805134
:100B500018481C4E5F460570DBF80000B0F1804F6E
:100B600009DD19490968FFF741FD04D217480470EF
:100B70003068401C3060164801683868FFF740FD57
:100B800005D214480470B068401CB06002E0706880
:100B9000401C7060C9F80850B5E700001400002040
:100BA000BC000020CC000020F00000200000224209
:100BB00054000020D000002008010020C8000020C0
:100BC000A0010020C8010020100100208D0100209C
:100BD0000C0100208E010020FEB50121084600F026
:100BE0009BF90621002000F085F8002540208DF8B3
:100BF00004500C2700908DF8057001248DF80640F4
:100C0000684600F03FF817208DF8080002268DF89E
:100C100009608DF80A508DF80B4002A800F026F903
:100C20000E21012000F066F8A0038DF8045000901A
:100C30008DF805708DF80640684600F023F82820EE
:100C40008DF808008DF809608DF80A408DF80B408A
:100C500002A800F00BF9FEBD0149086070470000D2
:100C600014040140064A014600201268044B0A4061
:100C700014331B680B4202D0002A00D001207047B9
:100C80000004014030B51A4A8379016853B31368F0
:100C90008B431360111D0B680468A3430B6001793B
:100CA00011440B68046823430B60114B0833196827
:100CB0000468A14319601C1D21680568A9432160CF
:100CC0004179102905D011440A68006802430A607E
:100CD00030BD19680268114319602168006801433A
:100CE000216030BD0079104402688A43026030BD43
:100CF0000004014010B58A0721F003040649120FD1
:100D000021440F238C6893409C438C608B689040F7
:100D100003438B6010BD000000000140F0B5CC78AB
:100D2000002204F00F03E40601D58C7823430C78ED
:100D30004FF00F0C14F0FF0F4FF0010E1BD00568A1
:100D40000E880EFA02F42640A64210D196000CFA44
:100D500006F725EA070703FA06F5CE783D43282E65
:100D600002D0482E02D002E0446100E00461521C2F
:100D7000082AE5D305600A88FF2A1CD944680022A6
:100D800002F108060EFA06F50E882E40AE420ED18C
:100D900096000CFA06F7BC4303FA06F7CE783C43FC
:100DA000282E00D14561CE78482E00D10561521C15
:100DB000082AE5D34460F0BD416170470161704786
:100DC00010B5642001F060FE02F03AF8114CE062C8
:100DD000A0F50000FFF7CCFB0F49FFF74FFA0F49D2
:100DE000FFF714FA0E49FFF711FAFFF7CFFB0D4A90
:100DF0000D4BFFF734FBFFF7DCFBFFF7C7FB0B4A9C
:100E00000B4BFFF72CFBFFF7D4FB0021A161206304
:100E100010BD00003800002000F02F4500808843FE
:100E20000000E041809F71E14048263F5C8FC2F5A1
:100E3000A862A640FEE7010900F00F00092901D8C9
:100E4000303104E0A1F10A02052A00D8373109281F
:100E500001D8303004E0A0F10A02052A00D837306A
:100E600040EA01207047FEE77047000030B50F23CD
:100E7000C27801780125F2B1144A126801F1E0212B
:100E800002F4E062C2F5E062120AC2F10404D34047
:100E90004278A24084781C401443220181F8002447
:100EA000007800F01F018D404009800000F1E02033
:100EB000C0F8005130BD01F01F0085404809800096
:100EC00000F1E020C0F8805130BD00000CED00E0E2
:100ED0000249084302490860704700000000FA0513
:100EE0000CED00E070470000044A0029D16901D0F0
:100EF000014300E08143D1617047000000100240CF
:100F0000044A0029116901D0014300E081431161C5
:100F10007047000000100240044A0029916901D086
:100F2000014300E0814391617047000000100240DE
:100F3000044A0029D16801D0014300E08143D16017
:100F4000704700000010024030B5204A5168204B25
:100F500011F00C0103D0042901D0082901D003604D
:100F600012E05168536801F470114FF0020413F459
:100F7000803F04EB914102D053689B0301D5154B90
:100F800000E0134B5943016051680F2303EA11112C
:100F9000114B5C5C0168E14041605468072505EA3B
:100FA00014241C5D21FA04F48460546805EAD424F6
:100FB0001B5DD940C1605268032303EA9232064B9D
:100FC0001B1F9A5CB1FBF2F1016130BD00100240C1
:100FD00000127A0000093D0024000020084A5A232C
:100FE0001370A5235370042393708323D370030AD3
:100FF0001371507191710721104600F0ADBB0000D4
:10100000A8070020F8B501211C20FFF785FF4FF449
:101010000064ADF8004010208DF80300124E032547
:101020008DF8025069463046FFF778FE214630467B
:10103000FFF7C4FE80200D4CADF800006946204645
:10104000FFF76CFE80212046FFF7B8FE4FF480408A
:10105000ADF8000004208DF803008DF802506946B9
:101060000348FFF75BFEF8BD000801400010014097
:10107000000C014070B586B001210420FFF74CFF41
:1010800001214804FFF730FF0424ADF81040182078
:101090008DF813000320354D8DF8120004A9284661
:1010A000FFF73CFE04212846FFF788FE0820ADF834
:1010B00010008DF8134004A92846FFF72FFE0224E4
:1010C000ADF8104010208DF8130004A92846FFF752
:1010D00025FE02212846FFF76FFE254D284600F029
:1010E000F3FB2448002281680091ADF804200C2114
:1010F000ADF80C20ADF80620ADF80A10017821B14A
:10110000012905D002290AD105E0ADF8082006E042
:101110004FF4C06001E04FF48060ADF8080069460C
:10112000284600F049FC40F225563146284600F09A
:10113000BBFB01223146284600F026FC26208DF814
:1011400014008DF815408DF8164001248DF81740D5
:1011500005A8FFF78BFE0121284600F0ABFB0648EF
:10116000C0F8844100F084FA06B070BD0008014068
:101170000044004090010020000021422DE9F04190
:10118000DFF8448001270C460546C8F884710F4EED
:101190000AE08021304600F0D1FB0028F9D015F894
:1011A000011B304600F008FE641EE4B2F1D240217B
:1011B000304600F0C3FB0028F9D0054800218770B5
:1011C000C8F88411BDE8F0810000214200440040CD
:1011D00090010020704700000CB5002226480092C4
:1011E0000192016841F4803101604FF4A06301680D
:1011F00001F4003101910099491C0091019911B944
:1012000000999942F3D10168890333D501210191F5
:101210001A490A6842F010020A600A6822F00302C2
:101220000A600A6842F002020A604168416041684F
:101230004160416841F480614160416821F47C1162
:101240004160416841F4E8114160016841F08071FA
:10125000016001688901FCD5416821F0030141600A
:10126000416841F0020141604168C1F381010229F6
:10127000FAD10CBD01920CBD0010024000200240CA
:101280004FF0E0210428086903D020F00400086131
:10129000704740F00400FAE7704700000F4810B5AF
:1012A000016841F00101016041680D4A114041604F
:1012B00001680C4A11400160016821F4802101603D
:1012C000416821F4FE0141604FF41F018160FFF786
:1012D00083FF05494FF00060086010BD0010024018
:1012E0000000FFF8FFFFF6FE08ED00E02DE9F05FDB
:1012F00001218C07204600F056F900287DD00121FD
:10130000204600F043F9684D684A0126E869401C10
:10131000E861A968491CA960127800243AB1042840
:1013200010D3286A401C2862022808D009E06422F1
:10133000B0FBF2F302FB130020B92E7002E02C6226
:101340006E70EC61B1F5FA7F0BDB5948EE70AC6062
:101350000068022805D001F00BFB5649086001F037
:10136000B1FA2879012802D101F0ACFA2C71DFF82A
:101370004881DFF84891524F98F8000001281CD1AD
:10138000E868DFF840A1401CE8603968884203D370
:1013900080215046FFF710FD2869401C2861D9F8CC
:1013A00000103A681144814207D880215046FFF767
:1013B00005FD88F80040EC602C61DFF80C8198F89E
:1013C0000000012820D16869DFF800B1401C686185
:1013D00039684FF4006A884203D351465846FFF7F4
:1013E000EBFCA869401CA861D9F800103A681144C8
:1013F000814209D85146584600E052E0FFF7DEFC32
:1014000088F800406C61AC61E878012849D1EC7043
:1014100001210003FFF7E2FD02211020FFF7DEFDAE
:10142000022142F22000FFF7D9FDA87878B9AE700A
:10143000022141F21000FFF7D1FD022141F212001A
:10144000FFF7CCFD022141F21400FFF7C7FD022196
:1014500041F23400FFF7C2FD022142F21400FFF70F
:10146000BDFD022142F21600FFF7B8FD022141F254
:101470001800FFF7B3FD022143F22A00FFF7AEFD8B
:10148000022143F22C00FFF7A9FD43F22E040221B2
:101490002046FFF7A3FD2046BDE8F05F0221FFF7DD
:1014A0009DBDBDE8F09F00009C0100203800002099
:1014B000F0000020C80000208D010020EC0000207A
:1014C000E8000020001001408E01002000080140CB
:1014D0007FB50D46044601210846FFF705FDADF82E
:1014E0000440ADF8005000244FF08045ADF80640B0
:1014F000ADF802406946284600F06CF8012211461A
:10150000284600F05CF81C218DF80C108DF80D4079
:1015100003208DF80E0001208DF80F0003A8FFF7BF
:10152000A5FC0121284600F034F87FBD10B50B4C16
:101530000121204600F037F800280ED00121204676
:1015400000F024F80021204600F023F8044901208F
:10155000C1F8840103494870C87010BD0004004000
:10156000000021429001002010B5074C01212046C7
:1015700000F019F8012805D12046BDE810400121EE
:1015800000F004B810BD000000080040C94301820B
:1015900070470029018802D041F0010101E021F0EB
:1015A00001010180704702460020138A92890B4294
:1015B00002EA010202D0002A00D001207047002A6E
:1015C000828901D00A4300E08A4382817047818486
:1015D0007047000030B502881B4C1C4DA0420DD056
:1015E000A8420BD0B0F1804F08D0194B984205D0DB
:1015F000184B984202D0184B984203D122F0700346
:101600004A881A43154B984206D0154B984203D08E
:1016100022F44073CA881A4302808A8882850A8825
:101620000285A0420AD0A84208D00E4A904205D0B6
:101630000D4A904202D00D4A904201D1097A0186AA
:101640000121818230BD0000002C014000340140A6
:101650000004004000080040000C00400010004062
:101660000014004000400140004401400048014097
:101670001FB501210220FFF737FC16484FF6FF7116
:10168000154C808800EB800001EA4000ADF80400B2
:1016900041F61F40ADF800000020ADF80600ADF89F
:1016A000020069462046FFF795FF012211462046B9
:1016B000FFF785FF1D208DF80C0002208DF80D002E
:1016C00003208DF80E0001208DF80F0003A8FFF70E
:1016D000CDFB1FBD900100200004004070B51B4CE5
:1016E00040F22551204600F030F988B1204600F044
:1016F0005FFB1749CA1C4B7898544878401C4870C7
:10170000084601F0A7F8012802D1204600F0AAF906
:1017100040F226652946204600F017F9002814D02B
:101720000C48027841788A4208D0C11C515C521C96
:1017300002702046BDE8704000F03EBB29462046BE
:10174000BDE87040002200F01FB970BD00380140B4
:10175000AB090020A8080020F0B40A4B0022DD1CD1
:1017600007E05E78845C74555C78641C521C5C7085
:10177000D2B28A42F5D3F0BC012240F2266102487F
:1017800000F002B9A80800200038014070B5194ED9
:1017900040F22551304600F0D8F8002828D0072123
:1017A000304600F0CBF8144D18B101240220E87047
:1017B00000E00024304600F0FBFAC1B2E88840F2B5
:1017C000FF72904214D2002C12D10C4A0C4C1154CE
:1017D000401CE88001212046FFF7D8FE002120466A
:1017E000FFF7F5FE2046BDE870400121FFF7D1BEAE
:1017F00070BD00000044004090010020AE0A0020AF
:101800000004004070B5184C40F22551204600F00D
:101810009CF850B1204600F0CBFA14490246C81C8F
:101820004B781A544878401C487040F22665294687
:10183000204600F08AF8002814D00D48027841783C
:101840008A4208D0C11C515C521C02702046BDE87F
:10185000704000F0B1BA29462046BDE87040002231
:1018600000F092B870BD000000480040AB050020B9
:10187000A8040020F0B40A4B0022DD1C07E05E78CB
:10188000845C74555C78641C521C5C70D2B28A42D1
:10189000F5D3F0BC012240F22661024800F074B892
:1018A000A8040020004800400A0A01219140C943D1
:1018B000018070470029818902D041F4005101E084
:1018C00021F4005181817047174910B588420AD12F
:1018D00001218C032046FFF72BFB2046BDE810407A
:1018E0000021FFF725BB1149884202D101214C0498
:1018F00010E00F49884202D101218C040AE00D4911
:10190000884202D10121CC0404E00B4988420AD16B
:1019100001210C052046FFF7F3FA2046BDE81040F0
:101920000021FFF7EDBA10BD00380140004400402F
:1019300000480040004C004000500040024600209B
:1019400012880A4200D00120704770B501F01F05CF
:1019500001260024C1F3421306FA05F2012B0FD031
:10196000022B0FD0838A4FEA11210088134206FA16
:1019700001F600EA060001D000B10124204670BD46
:101980008389F0E7038AEEE710B5C1F3421301F053
:101990001F040121A140012B07D0022B07D01430D6
:1019A000002A026805D00A4304E00C30F8E7103042
:1019B000F6E78A43026010BD30B50446008A85B060
:1019C0000D464CF6FF710840E98801432182A08949
:1019D0004EF6F3110840A9882A8911436A89024307
:1019E0001143A181A08A4FF6FF410840A989014314
:1019F000A1826846FFF7A8FA1948844201D10398EA
:101A000000E00298A189090400EBC00101EB00107D
:101A1000296801D5490000E08900B0FBF1F064229B
:101A2000B0FBF2F109010B096FF018056B4300EBF5
:101A30008300A3891D044FF0320306D503EBC000D9
:101A4000B0FBF2F000F0070005E003EB0010B0FB84
:101A5000F2F000F00F000843208105B030BD000017
:101A6000003801402DE9F0470646C7480025C74C1D
:101A7000C74F864211D1A08807280ED9257007E0EC
:101A800038440422C3A101F055FA2078401C20708C
:101A9000A188207808398842F2DBC04886427DD18F
:101AA0002078BA49384405226C3101F043FA4FF0EE
:101AB0000108012820D1387A012804D00221022807
:101AC00005D038B109E0404684F8018004E0657033
:101AD000E16102E061700320E0616078A1788842F2
:101AE00008D010B1012805D101E0312000E03020FC
:101AF00000F068F96078A0702078A4493844062284
:101B0000713101F017FA01280BD1B87A60652169AB
:101B1000884204D008B100F079F9606D2061606DF1
:101B2000206120789949384406227D3101F002FA7B
:101B300001280AD1B7F8090040BAFEF722FD014694
:101B4000E06341F2231000F09BF920788F4938447C
:101B50000622773101F0EEF901280AD1B7F8090021
:101B600040BAFEF70EFD0146A06341F2251000F0D9
:101B700087F920788549384406228F3101F0DAF957
:101B8000012805D1387A012802D185480068A0666D
:101B900020787E4906223844953100E0F2E001F0D9
:101BA000C9F9012809D1B87AA0656169884200D0D5
:101BB000606100EB80004000606120787349384428
:101BC00006229B3101F0B6F9012801D0A06909E095
:101BD000B87AE065A169884200D0A06100EB80007E
:101BE0004000A061616906220844A060207867492E
:101BF0003844833101F09EF9012807D1B87A206674
:101C0000616B884200D060636438606320785F490C
:101C100038440622A73101F08DF9DFF888916FF082
:101C2000030A01281CD1B879012819D15E48C4F8EB
:101C30002C8001685D48814212DCA66C102E08DA07
:101C400059F82600216CFEF78FFA761CA6642064F2
:101C5000F4E75146206CFEF74FFB2564A5646062F3
:101C600020784A4938440622A13101F063F901285D
:101C700006D1B87A6066A16A884200D0A062A062EC
:101C80002078424938440622AD3101F053F9012849
:101C900009D014E059F82600616CFEF765FA761C4D
:101CA000E664606400E0E66C102EF3DB5146606C85
:101CB000FEF722FB6564C4F83080E564206220787A
:101CC000324938440622B33101F034F9012844D1B5
:101CD000B87A41F2381101EBC002891C01EBC00552
:101CE000DFF8AC80891C01EBC00308F1E808891C0F
:101CF00001EBC001E060254EC8E9025177364FEA9A
:101D0000152CC8E9002386F804C075711F4D1E0A02
:101D10007D352E716B711D4B0D0A83331D71597109
:101D20001A49130A89311A280B714A7115D21046C3
:101D30000221FFF753F9B8F80800022180B2FFF73B
:101D40004DF9B8F80400022180B2FFF747F9B8F85E
:101D50000C00022180B2FFF741F920780B4938448A
:101D60000622893101F0E6F801280BD1B7F8090005
:101D700040BAFEF7FDFBBDE8F047014641F21F10F7
:101D800000F07EB8BDE8F08700440040D400002099
:101D9000B0060020434D443D0000000000380140E3
:101DA000C800002064020020C400002033338340B8
:101DB0008088C0F308007047C1F308018180704734
:101DC000FEE700001049252231230A7030224A70B4
:101DD0008B702323CB7057230B7143234B715323F9
:101DE0008B715223CB7132230B7235234B728A7263
:101DF000CA7208732A20487388730D20C873102193
:101E00000148FFF7BBB90000AE12002070B500EB2F
:101E100040104300180AFFF70EF80446D8B2FFF747
:101E20000AF81649252231230A7030224A708B7035
:101E30002323CB7057230B7144234B718B71CA71D1
:101E40000A7232264E7233258D723823CB720A7392
:101E50004A738E73CD730B74020A4A748874200A15
:101E6000C8740C752A20487588750D20C875BDE8A2
:101E7000704018210148FFF781B90000AE12002020
:101E80002DE9F0410D46064601212820FEF75EF9B6
:101E9000044601211420FEF759F98046012128202B
:101EA000FEF754F907462846FEF770FB02460B463C
:101EB00016A1404600F02EF84146384600F0B4FD29
:101EC000054601464046FFF7D5FC5A202070A52064
:101ED0006070E91CA1708220E070300A2071667188
:101EE0002A463946A01DFEF71FF9AD1DE9B220466E
:101EF000FFF732FC404600F0E9FD204600F0E6FD29
:101F00003846BDE8F04100F0E1BD0000252E316605
:101F10000D0A00000FB4084B10B504A902AA0398DB
:101F200000F0DEF8044602A9002000F05CFC204628
:101F300010BC5DF814FB0000E727000802E008C8A9
:101F4000121F08C1002AFAD170477047002001E033
:101F500001C1121F002AFBD1704700002DE9FF5F6D
:101F600082B00021DDE90430020DDDF840B003430A
:101F700018D044F61050A2F2FF32424315141198C3
:101F800001281FD0A5EB0B00401C5FEA000A4FF0B0
:101F900000064E4FDFF83891B046504615D5CAF1CD
:101FA000000413E0119801244AA3012801D16FEA2B
:101FB0000B010298119AC0E90031C0E9024206B053
:101FC000BDE8F09FCBF10000DFE704460021404A66
:101FD000491842EB0450CDE9001012E0E00707D0A9
:101FE00032463B4640464946FEF739FA8046894626
:101FF00032463B4610461946FEF731FA06460F4672
:102000006410002CEAD1DDE90401DDE90023BAF116
:10201000000F06DAFEF723FA42464B46FEF71FFA98
:1020200005E0FEF7F3FB42464B46FEF7EFFB0446A6
:102030000E460022284BFEF771FC03D84FF0FF300C
:10204000014607E00022254B20463146FEF760F9A5
:10205000FEF74BFC102409E0002C0ADB0A220023C7
:10206000FEF7EEFA039B30321A55641E50EA010265
:10207000F2D1641C039AC4F111031444119A012A89
:1020800003D0012208430DD10AE0084304D0002008
:102090004FF0110B119072E7A3EB0B056D1E0DE0D5
:1020A0005B4504DD4FF0000205F1010504E003DAB1
:1020B0004FF00002A5F10105002AECD00298119919
:1020C000C0E90231C0E9004579E700000000144092
:1020D0000000F03F300000000000F0430000E03F4F
:1020E0002DE9FF4F95B09A46884606460025EEE159
:1020F000252877D100242746F94A0121039400E0DE
:10210000044316F8013F203B01FA03F01042F7D1D7
:1021100030782A2811D06FF02F033078A0F13002E8
:10212000092A16D8039A44F0020402EB820203EB58
:1021300042021044761C0390EFE758F8042B0392F8
:10214000002A03DA504244F40054039044F002049D
:10215000761C30782E2816D116F8010F44F00404AE
:102160002A280DD06FF02F023078A0F13003092B10
:1021700009D807EB870302EB4303C718761CF3E784
:1021800058F8047B761C30786C280FD006DC4C287D
:1021900017D068280DD06A2814D104E0742810D014
:1021A0007A280FD10DE044F400140AE044F48014BE
:1021B00001E044F440147278824202D104F58014A4
:1021C000761C761C307866280BD013DC582877D024
:1021D00009DC002875D04528F6D04628F4D04728D9
:1021E0001AD193E118E0632835D0642879D06528A6
:1021F00012D18BE1702873D008DC6728F1D06928F0
:102200006FD06E280DD06F2806D1ACE073282CD08B
:10221000752874D0782853D05246179990476D1C72
:1022200054E1C4F30250022809D003280DD0D8F895
:10223000001004280DD00D6008F1040846E1D8F81C
:102240000010EA17C1E90052F6E7D8F800100D8037
:10225000F2E70D70F0E718F8041B8DF8001000206D
:102260008DF80100EB46012003E058F804BB4FF065
:10227000FF3061074FF0000102D40DE009F10101C8
:102280008946B9420FDA8145F8DB1BF809100029AD
:10229000F4D108E009F1010189468142FADB1BF81B
:1022A00009100029F6D103985346A0EB09072146EF
:1022B0003846179A00F080FA284400EB090507E039
:1022C00044E008E10DE01BF8010B524617999047D6
:1022D000B9F10109F7D2534621463846179AF2E080
:1022E00039E00A21C4F302524FF0000B0091022A98
:1022F00006D058F8040BC117032A09D00AE023E0DE
:1023000008F1070020F00702F2E80201904605E01C
:1023100000B2C117042A01D140B2C117002906DA60
:102320000A460021404261EB02012D2202E0220513
:1023300004D52B228DF80420012203E0E20701D00E
:102340002022F7E7914657E00A2100E010214FF0E4
:10235000000B00910BE010214FF0000B44F004043F
:102360000827009103E008204FF0000B0090C4F311
:102370000252022A05D058F8040B0021032A08D083
:1023800008E008F1070020F00702F2E80201904699
:1023900003E080B2042A00D1C0B24FF00009220746
:1023A0002AD53278702A07D0DDF800C08CF0100CE6
:1023B0005CEA0B0C05D00EE040228DF804200122CF
:1023C00008E050EA010306D030238DF804308DF880
:1023D000052002229146009B83F0080353EA0B0379
:1023E0000AD150EA010201D1620705D530228DF8E9
:1023F00004204FF001097F1E3278582A04D039A2F8
:102400000C920CAA02920BE03BA2F9E75B46009A01
:10241000FEF716F90C9B9B5C029A521E02921370F7
:1024200050EA0102F2D1029804A9081A00F1200B27
:10243000600702D524F4803400E001275F4502DD07
:10244000A7EB0B0000E0002000EB0B0100900398CD
:102450004944401A0390E00306D453462146179A94
:10246000039800F0A9F90544002706E001A85246A8
:10247000C05D179990476D1C7F1C4F45F6DBE0034C
:102480000CD553462146179A039800F095F9054458
:1024900004E030205246179990476D1C0099481E61
:1024A00000900029F5DC08E0029802995246007875
:1024B000491C0291179990476D1CBBF10001ABF1CB
:1024C000010BF1DC5BE100F065F90544761C307826
:1024D00000287FF40DAE19B02846BDE8F08F00004B
:1024E00009280100303132333435363738396162EA
:1024F00063646566000000003031323334353637AE
:10250000383941424344454600000000600700D48A
:10251000062708F1070020F00700F0E802238046B4
:1025200003F0004C5FEA0C0001D097A009E0200501
:1025300001D596A005E0E00701D095A001E0AFF23B
:102540004C001390307823F0004365280CD006DC53
:10255000452809D046281DD047287FD13BE0662872
:1025600018D067287AD136E00021112F01DB112025
:1025700000E0781CCDE9000104A90CA8FFF7EEFCEF
:10258000DDE90D010C9A4FF0000B07F101091092E3
:1025900000914EE04FF000400097CDE9011004A9F2
:1025A0000CA8FFF7DBFCDDE90D020C9B0F994FF047
:1025B000000B91461093009211B9791C00EB0109B0
:1025C000B7EB090003D4C0F1FF3B07F10109A9EB08
:1025D0000700019042E0012F00DA01270021112FAE
:1025E00001DD112000E03846CDE9000104A90CA866
:1025F000FFF7B4FCDDE90D010C9A00914FF0000BE0
:10260000B946109221070FD4009A4A4503DA914641
:1026100001E0A9F10109B9F1010F05DD109AA9F155
:102620000101515C3029F4D0B84202DA10F1040FF4
:1026300003DA0121CDE9011010E0002803DC834416
:10264000A9EB000102E0411C494500DD8946A0EBF1
:102650000B00401C01904FF000400290200705D471
:102660000198484502DB4FF0FF30019000208DF8C3
:102670004B0002980DF14B07B0F1004F25D002201E
:102680000C902B200D90029800280CDA404202900A
:102690002D200D9007E00A210298FDF7BBFF303195
:1026A000029007F8011D0C99481E0C900029F2DCDD
:1026B00002980028EFD1791E0D980870307800F04C
:1026C000200040F0450007F8020D11A8C01BC01DF6
:1026D00002901398007800B1012000EB09010198E5
:1026E00001EBE071029801440398401A401E0390E8
:1026F000E00306D453462146179A039800F05CF88D
:1027000005441398007818B15246179990476D1CEC
:10271000E00323D553462146179A039800F04CF85E
:1027200005441BE0BBF1000F07DB0098584504DDB2
:102730001098179910F80B0001E0179930205246B5
:10274000904701980BF1010B401E05F10105019026
:1027500004D12E205246179990476D1CB9F1000103
:10276000A9F10109DEDC05E017F8010B52461799C3
:1027700090476D1C0299481E02900029F4DC5346D4
:102780002146179A03989EE62D0000002B000000BA
:10279000200000002DE9F041044600251E461746A2
:1027A000880404D405E039462020B0476D1C641E1F
:1027B000F9D52846BDE8F0812DE9F0410446002511
:1027C0001E469046C80301D5302700E02027880424
:1027D00004D505E041463846B0476D1C641EF9D566
:1027E0002846BDE8F0810A68531C0B6010707047E2
:1027F0002DE9F0411E46174688460546069C00F026
:1028000015F800F01DF8FEF7EFF8384600F04AFB27
:10281000284600F06FFB304600F036FB204600F003
:1028200025FB4046BDE8F04100F048BB03490120CC
:10283000C1F89001502000F027B9000000002142AB
:1028400003490020C1F89001502000F01DB900009C
:102850000000214230B5811C04464378C21C07E0C9
:10286000455C5A2D02D1855CA52D06D0401C2070F8
:1028700020789842F4D1002030BDC0B21049181A17
:1028800002D500F2011000E0401C888080B20B28C5
:102890000BD320780B22401EC1B2E01C00F03EF9A1
:1028A0002078401C2070012030BD086D401C086558
:1028B000B0F5FA6FDFDB0020086560782070DAE79A
:1028C000D40000202DE9F04101212820FDF73EFC35
:1028D000044601211420FDF739FC07460121282078
:1028E000FDF734FC06461F4800F18005C1692869E0
:1028F000FDF78CFC286110F1FF4F01D30020286107
:10290000FDF744FE02460B4617A13846FFF702FBCF
:102910003946304600F088F80546C1B23846FEF721
:10292000A9FF5A202070A5206070E81CA0708220AA
:10293000E0701120207160712A463146A01DFDF71C
:10294000F3FBAD1DE9B22046FEF706FF384600F066
:10295000BDF8204600F0BAF83046BDE8F04100F07E
:10296000B5B8000038000020252E31660D0A0000A1
:102970002DE9F04700F0F6F9294A2A4B00210646D6
:102980001060984249DDA2F18004E06F012804DA6A
:10299000A660401CE06701D03DE0E167A168914678
:1029A0000D463046FDF732FC6061E1680746884617
:1029B0002846FDF72BFC0546206141463046FDF7D1
:1029C00025FC4FF07C586060454501DB474505DA42
:1029D0004FF03F40854205D3874203D33046E6603F
:1029E000BDE8F087454506DB39464046FDF708FE61
:1029F00001D2A0680DE040462169FDF701FE0AD230
:102A00006068414620F00040FDF7F0FD03D9D9F899
:102A10000000E060E4E7E068E2E708461160DFE715
:102A2000B80000200000404030B5034600200446B6
:102A300004E0C50706D01A54401C491C0A78002A35
:102A4000F7D130BD1C54401CF8E7000010B56FF002
:102A50000400FEF715FC094809490068B0FBF1F0D5
:102A60000849C0B200EB40020870C2EBC0104FF63C
:102A7000FF7202EAC000488010BD00000000002084
:102A800000127A00340000200B49498848434FF077
:102A9000E021486100238B61086940F00100086172
:102AA0000869C20701D0C003FAD5086920F0010007
:102AB00008618B617047000034000020024900204B
:102AC00081F8000270470000A402002010B5002821
:102AD00021D0114B0022001F196803E0814203D866
:102AE0000A4649680029F9D152B11368841A9C42F8
:102AF00004D1006818441060104602E0506000E005
:102B0000186039B102680B1A934203D10B681A445A
:102B100002604968416010BDC001002030B500234B
:102B2000054C05E0455C491CE5545B1CC9B2DBB2B1
:102B30009342F7D330BD0000B00600202DE9F047E6
:102B40007B48D0F818110129FBD000F079F9794CB5
:102B5000794D00226063A16B4FF0010A04F18009F6
:102B600045F82100491CA163102903D0206C0128DD
:102B700003D0C2E0C4F840A0A263DFF8BCC1904615
:102B8000ACF1280CACF12807E26305EB820155F8A3
:102B900022304868834208DD8E68B04205DAA16DB4
:102BA0004CF82100491CA16509E0834207DA8968D5
:102BB000884204DD616D47F82100491C6165521CA3
:102BC000E2630E2AE1DBA16D022903DD606D22467E
:102BD000022824DCC446C4F86C80C4F870C0E76ED8
:102BE0006046C7F110060CE005EB800355F8202085
:102BF00059688A4203DD626745F820105A60401C1C
:102C000020678642F0DC7F1CE766102FE5DBE96B6E
:102C100028680844206500EBD070401025E0814210
:102C200001DAD16500E0D0654346C2F85880194604
:102C3000D06D06E05CF82150966C491C35449564D3
:102C400091658142F6DB1946536506E057F821305D
:102C5000D56C491C2B44D36451658142F6DBD2E923
:102C600012311944400091FBF0F06064A0F50000BF
:102C7000FDF77EFCFDF78AFC0022304BFDF7EFFBF1
:102C800000222F4BFDF7EBFB6FF01D02FDF759FC07
:102C9000FDF78FFC284AC9F80C00216E40324D46E2
:102CA00042F82100491C2166102901DBC4E9188A79
:102CB000244E3168012924D0FDF768FC224A234BB9
:102CC000FDF7CDFB224A234BFDF7C3FBFDF771FC5B
:102CD000A860C4F84080C4F83C80C4F85480C4F8AC
:102CE0005880C4F84880C4F84C80C4F85C80C4F8AC
:102CF0006880C4F85080C4F84480D9F80800BDE862
:102D0000F087154909688A46FDF780FA0746134897
:102D100051460068FDF77AFA01461148FDF7AEFA10
:102D20003946FDF779FAA860C6F80080D1E70000BF
:102D3000000021423800002024020020000014403E
:102D400000408F40040100205A643BDFCFD1A540F2
:102D5000713D0AD703E8C540F8000020F4000020C8
:102D60000000FA440248016802484068FDF74EBA84
:102D70003C010020B800002008B5FEF78FFAFFF7ED
:102D800065FE4FF4A060FEF7A3F8FEF773F94FF469
:102D9000165000F087F9FEF735F9FFF78FFEFFF7C1
:102DA00055FE4FF4E134204600F0D4F8204600F000
:102DB00023F9312140F2CF20FEF78AFB00200346A1
:102DC0000321009002220846FFF712FDFDF704FFE1
:102DD000FEE70000F0B50B30154D20F00701002490
:102DE000144A0FE003688B420BD38B4205D95E1A5D
:102DF00043184768C3E9006700E04368136002C0F6
:102E000004E0021D10680028ECD12046002802D101
:102E1000286808B10020F0BD064A07481060074A3C
:102E2000121A22F00702C0E9002401202860D7E727
:102E3000C4010020C0010020B41A0020B01C0020F2
:102E400030B50020084A014604460125C2F89441E5
:102E50004300D2F81801C2F894511843491CC9B272
:102E60001829F3D330BD000000002142054901229A
:102E700008B1012802D0C1F8802170470020C1F8B4
:102E800080017047000021420549002208B1012855
:102E900002D0C1F8802170470120C1F8800170473D
:102EA000000022420449012803D00120C1F8840116
:102EB00070470020FAE70000000022420C4900227F
:102EC00030B10123012806D0022809D003280AD0F6
:102ED000C1F8882101E0C1F88831C1F88C21704720
:102EE000C1F8882101E0C1F88831C1F88C31704700
:102EF0000000224210B50D490D4A012348B10024BB
:102F0000012803D0022809D003280AD0C1F8804143
:102F100001E0C1F88031C2F8943110BDC1F88041A0
:102F200001E0C1F88031C2F8944110BD0080214217
:102F30000000224230B5002307E0C45CCD5CAC4207
:102F400001D0002030BD5B1CDBB29342F5D30120E1
:102F500030BD0000F0B5064687B0012144F2040000
:102F6000FDF7DAFF224D2846FEF7AEFC6815ADF8F6
:102F7000100003248DF8124018201E4F8DF8130006
:102F800004A93846FDF7CAFE2815ADF81000042044
:102F90008DF8130004A93846FDF7C0FE25208DF8F2
:102FA00014008DF815408DF8164001208DF817009B
:102FB00005A8FDF75BFF0021ADF80810ADF804107F
:102FC0000C20ADF80610ADF80C10ADF80A00009614
:102FD00069462846FEF7F0FC012240F225512846BA
:102FE000FEF7D2FC01212846FEF764FC07B0F0BDD5
:102FF0000038014000080140F0B50646012187B0C5
:103000008804FDF771FF01212820FDF785FF234D7E
:103010002846FEF759FC2815ADF8100003248DF85A
:10302000124018201E4F8DF8130004A93846FDF7F2
:1030300075FEE814ADF8100004208DF8130004A903
:103040003846FDF76BFE27208DF814008DF81540EB
:103050008DF8164001208DF8170005A8FDF706FF32
:103060000021ADF80810ADF804100C20ADF80610E2
:10307000ADF80C10ADF80A00009669462846FEF738
:103080009BFC012240F225512846FEF77DFC0121E0
:103090002846FEF70FFC07B0F0BD000000480040D6
:1030A000000C0140F0B5074687B0012144F204004E
:1030B000FDF732FF0425ADF8105003248DF81240BF
:1030C00018201D4E8DF8130004A93046FDF726FE8A
:1030D0000820ADF810008DF8135004A93046FDF714
:1030E0001DFE25208DF814008DF815408DF8164032
:1030F00001208DF8170005A8FDF7B8FE0020ADF8F7
:103100000400ADF80600ADF80800ADF80C000C2086
:103110000A4CADF80A00009769462046FEF74CFCC1
:10312000012240F225512046FEF72EFC01212046C7
:10313000FEF7C0FB07B0F0BD0008014000440040AE
:103140006031000800000020C8010000900900085C
:10315000B8310008C8010020E81E00004C1F00081C
:103160001184A24A04C00901020304060708096D7C
:10317000020406081C0912200110027B01897C024E
:103180006902100A5AA50683105AA5088339063B1E
:103190001032063A34063A36063A30232A240C3BDB
:1031A0002014063A16182A18183B302A063A2C180A
:0831B00072203204032E802579
:04000005080000ED02
:00000001FF
