:020000040800F2
:10000000D84E002005010008CF1200087112000828
:10001000CB120008D90A0008972A00080000000047
:10002000000000000000000000000000C1160008F1
:10003000DD0A00080000000055130008D51700086D
:100040001F0100081F0100081F0100081F01000810
:100050001F0100081F0100081F0100081F01000800
:100060001F0100081F0100081F0100081F010008F0
:100070001F0100081F0100081F0100081F010008E0
:100080001F0100081F0100081F0100081F010008D0
:100090001F0100081F0100081F010008010B0008D4
:1000A0001F0100081F0100081F0100081F010008B0
:1000B00039180008611B00089D1B00081F0100087B
:1000C0001F0100081F0100081F0100081F01000890
:1000D0001F010008211D0008051E0008811E0008E0
:1000E000E10A00081F0100081F010008DFF810D016
:1000F00000F040FC00480047713E0008AFF300806C
:10010000D84E00200648804706480047FEE7FEE735
:10011000FEE7FEE7FEE7FEE7FEE7FEE7FEE7FEE7B7
:10012000D9170008ED00000840EA01039B0703D03F
:1001300009E008C9121F08C0042AFAD203E011F826
:10014000013B00F8013B521EF9D27047D2B201E0E8
:1001500000F8012B491EFBD270470022F6E710B5CC
:1001600013460A4604461946FFF7F0FF204610BD25
:1001700010B54843044603F0B3FE002805D0002123
:10018000002C02D0641E0155FAE710BDF0B480EADD
:100190000102D40F4200B2EB410F02D202460846E0
:1001A00011464A0042D0C30DDDB2C1F3C752AD1AA9
:1001B000202D35DAC1F3160141F4000204B1524298
:1001C000C5F1200602FA06F12A411044B3EBD05FD4
:1001D00023D0C4B1012DA0EBC35009DCF0BC4FF01B
:1001E000004202EAC352DBB200F5000000F01FBB80
:1001F000400000F1807000EBC350A0F1807040EA35
:10020000D170490009E0490841EAC071A0EBC35030
:1002100000F50000400800EBC350F0BC00F0FEBA4F
:100220006142012202EB4101001BF6E7F0BC70477E
:1002300081F00041AAE780F00040A7E780EA0102D0
:1002400010B502F00043400022D04A001FD0010E3A
:1002500001EB1261C0F35600C2F3560240F40000F5
:1002600042F40002A0FB022000047F39140400D0F5
:10027000401C50EA124001D44000491EC2B20C0694
:1002800004EBD010401C4008802A02D003E000207C
:1002900010BD20F00100002900DA0020184310BD35
:1002A00030B480EA010202F0004530F0004221F053
:1002B000004013D090B1C30DD40DC2F31601C0F3AA
:1002C0001600E41A41F4000140F400027D3491422A
:1002D00001D3641C00E04900002C02DA30BC00208D
:1002E00070474FF400000023914201D3891A034361
:1002F00040084FEA4101F7D151B1914202D14FF08C
:10030000004105E002D24FF0010101E06FF0010170
:1003100003EBC450284430BC00F080BA2DE9FE4FF6
:10032000804681EA0300C00F0C46009021F0004196
:1003300023F00045B8EB0200A94105D24046214612
:1003400090461C460B46024623F00040104347D01F
:10035000270DC7F30A00C3F30A510290401A019017
:1003600040286BDAC3F3130040F4801B00989246D8
:1003700020B10023D2EB030A63EB0B0B0198594623
:10038000C0F14002504600F028FA06460D4650469D
:100390005946019A00F030FA10EB08006141002440
:1003A00087EA115284EAE7731A4340D0009A62B395
:1003B000019A012A4FEA075215DC001B61EB02018A
:1003C0004FF0004202EA0752CDE90042001C41F51D
:1003D000801132462B4600F067FA03B0BDE8F08F7B
:1003E00040462146F9E7001B61EB0201001C41F584
:1003F000801300185B412018A2F5001747EB03019A
:1004000040EAD570B6196D4111E06D084FEA360625
:1004100045EAC0754FEA0752001B61EB0201001C60
:1004200041F5801149084FEA300000195141324628
:100430002B4603B0BDE8F04F00F027BA0098012228
:1004400040000023D0EB020263EBE07300982146EA
:100450004FEAE074B8EB000061EB0401E9E783F0D8
:1004600000435BE781F0004158E72DE9FE4F81EA48
:10047000030404F0004421F0004100944FF0000B0D
:1004800023F0004350EA01045ED052EA03045BD03B
:10049000C3F30A54C1F30A552C44A4F2F334019473
:1004A000A0FB0254C1F3130141F48011C3F3130301
:1004B00043F4801301FB024400FB034E840A970AB5
:1004C00044EA815447EA8357A4FB076802958D0AE2
:1004D00005FB07854FEA932C04FB0C542705029D6E
:1004E0004FEA065847EA1637B5EB08056EEB070CDE
:1004F000870E920E47EA811742EA8312A7FB020198
:10050000B6EB0B0164EB00042B0D43EA0C335E18D1
:1005100044EB1C50DA465146E7FB0201C5F31304D5
:100520004FEA0B3343EA14534FEA0432019C43EA87
:100530000603A4F10C040294009CCDE900B400F081
:10054000B3F903B0BDE8F08F00200146F9E72DE9CB
:10055000F04D81EA030404F0004B21F000451446FD
:100560004FF0000A23F0004150EA050220D054EA7F
:1005700001021DD0C5F30A570246C5F31303C1F3A8
:100580001300C1F30A5640F4801543F48013A7EB1F
:100590000608101BD64608F2FD3873EB050002D39F
:1005A00008F1010801E092185B41B8F1000F03DA8D
:1005B00000200146BDE8F08D00204FF48011064672
:1005C00084460EE0171B73EB050705D3121B63EB84
:1005D000050306434CEA010C49084FEA3000921823
:1005E0005B4150EA0107EDD152EA030012D082EAE2
:1005F000040083EA0501084305D0101BAB4106D275
:100600000122002306E000224FF0004302E06FF0D9
:10061000010253101AEB06004CEB085110EB0A00D4
:1006200041EB0B01BDE8F04D00F02FB9C10F80EA9E
:10063000E0700844CA079623002100F0F8B820F0C3
:100640000040C10DC0F3160040F400007F2901DA1C
:1006500000207047962903DCC1F19601C84070471D
:1006600096398840704700F0004230F000400AD0D0
:10067000C10D01F56071C0F3160042EA0151C208D4
:1006800040071143704700200146704730B5041EF3
:1006900071F1000404DB4FF00044404264EB0101BF
:1006A000141E73F1000405DB1C464FF00043524258
:1006B00063EB04038B4208BF824230BD30B5041E99
:1006C00071F1000404DB4FF00044404264EB01018F
:1006D000141E73F1000405DB1C464FF00043524228
:1006E00063EB0403994208BF904230BD01F0004320
:1006F00030B421F0004150EA010206D00A0DA2F503
:100700006072C1F31301002A02DC30BC0020704784
:10071000440F44EAC104C100E01830BC00EBC250F1
:1007200000F07CB8002801DBC0F10040002901DBAB
:10073000C1F1004181427047002801DBC0F1004057
:10074000002901DBC1F100418842704730B50B46FA
:10075000014600202022012409E021FA02F59D42F1
:1007600005D303FA02F5491B04FA02F52844151EC5
:10077000A2F10102F1DC30BD2DE9F05F0546002059
:1007800092469B4688460646814640241BE0284602
:1007900041464746224600F0FFF853465A46C01AE3
:1007A000914110D311461846224600F016F82D1A32
:1007B00067EB01084F4622460120002100F00DF8AA
:1007C00017EB00094E41201EA4F10104DFDC48466E
:1007D00031462A464346BDE8F09F202A04DB203AF2
:1007E00000FA02F1002070479140C2F1200320FA84
:1007F00003F3194390407047202A06DBCB17203AB9
:1008000041FA02F043EAE07306E041FA02F3D04015
:10081000C2F1200291400843194670470029A8BF41
:100820007047401C490008BF20F00100704710B419
:10083000B0FA80FC00FA0CF050EA010404BF10BCCE
:10084000704749B1CCF1200421FA04F411FA0CF1FB
:1008500018BF012121430843A3EB0C01CB1D4FEA34
:1008600000614FEA102042BF002010BC704700EB2F
:10087000C35010440029A4BF10BC7047401C49005D
:1008800008BF20F0010010BC704710B5141E73F1B2
:10089000000408DA401C41F1000192185B411A4340
:1008A00001D120F0010010BD2DE9F04D92469B468C
:1008B00011B1B1FA81F202E0B0FA80F22032904632
:1008C000FFF78BFF04460F4640EA0A0041EA0B019E
:1008D00053465A46084313D0114653EA010019D033
:1008E000C8F14002504600F057F805460E46504603
:1008F00059464246FFF771FF084305D0012004E046
:1009000020463946BDE8F08D0020054346EAE076F2
:100910002C4337430A986305E40AA0EB0800002241
:10092000FD0A44EA47540A3002D500200146E9E7AF
:10093000010510196941DDE9084500196941BDE863
:10094000F04DA2E7C1F30A52C1F3130140F2FF33A5
:1009500041F480119A4202DA00200146704740F2C9
:1009600033439A42A2F2334202DC524200F014B8FE
:10097000FFF733BF064C074D06E0E06840F0010387
:1009800094E8070098471034AC42F6D3FFF7B2FB67
:10099000FC4300081C440008202A04DB203A21FA0A
:1009A00002F00021704721FA02F3D040C2F1200288
:1009B000914008431946704770B58C1810F8015BD8
:1009C00015F0070301D110F8013B2A1106D110F8E8
:1009D000012B03E010F8016B01F8016B5B1EF9D1EC
:1009E0002B0705D40023521E0DD401F8013BFAE772
:1009F00010F8013BCB1A921C03E013F8015B01F8DD
:100A0000015B521EF9D5A142D8D3002070BD000071
:100A100008B50121042000F0BFFC0121082000F0EE
:100A2000BBFC0121102000F0B7FC3120ADF8000024
:100A300010208DF8030003208DF802006946174846
:100A400000F0FCFA4020ADF8000004208DF803000F
:100A500003208DF802006946104800F0EFFA2F20BD
:100A6000ADF8000010208DF8030003208DF802007F
:100A700069460B4800F0E2FA0120ADF800001020B2
:100A80008DF8030003208DF802006946054800F048
:100A9000D5FA01200449086008BD000000080140A3
:100AA00000100140000C01409401214210B50446A1
:100AB0005A2008490870A5204870032088708020BB
:100AC000C870022008714C710621024801F07CF9BF
:100AD00010BD0000CC31002000BFFEE770470000D1
:100AE00010B54FF4804000F085F910B101200349A2
:100AF00008604FF4804000F077F910BD3C01002001
:100B000070B5402000F076F900287DD001207E49A4
:100B1000087002F07DFF7D49086000207C49086074
:100B20007C480068401C7B4908607B4800680228BC
:100B30006BD17A4800680128FAD179480068FFF73C
:100B400075FD04467748016870480068FFF770FB40
:100B500005462146FFF71AFB7349086001207349D7
:100B6000087008460078012811D1714908600020FA
:100B70006549087000F0F2FA6A490860012062498C
:100B8000087000206B49C1F880016B4908704FF074
:100B9000804165480068FFF7CFFD2ED267480168A5
:100BA00061480068FFF7BEFD27D201206449087044
:100BB00064480068401C634A0146106042F211100C
:100BC00001F0D6FF0A2002F08FFE5F4908685649FF
:100BD0000968FFF7DBFA5C49086008685B49FFF7C2
:100BE0002DFB0546FFF72BFD0446214642F211205E
:100BF00001F0BEFF0A2002F077FE554801684A481E
:100C00000068FFF799FD01E07AE05FE027D201205C
:100C1000504908704B488068401C4A4A0146906021
:100C200042F2115001F0A4FF0A2002F05DFE464995
:100C300088683D490968FFF7A9FA434988608868D0
:100C40004249FFF7FBFA0546FFF7F9FC0446214647
:100C500042F2116001F08CFF0A2002F045FE3C4890
:100C6000016831480068FFF75DFD2BD23348016809
:100C70002D480068FFF760FD24D232484068401CD0
:100C8000304A0146506042F2113001F071FF0A20F3
:100C900002F02AFE2C49486823490968FFF776FAD2
:100CA0002949486048682949FFF7C8FA0546FFF70F
:100CB000C6FC0446214642F2114001F059FF0A20C9
:100CC00002F012FE00201549086019E01148006882
:100CD000B0F57A7F14DD01201549086000200A492B
:100CE000087000F03BFA0F490860012006490870BF
:100CF00000201049C1F880010F49087005490860BB
:100D0000402000F071F870BD400100203400002048
:100D10005C00002038010020E80100203C01002098
:100D2000000200206C00002044000020B5020020DA
:100D30008001224200002242680000200C020020B4
:100D400004020020503000205C30002000002041D0
:100D500010020020050200200EB50121084600F017
:100D60001BFB0621002000F049F9402001900020E3
:100D70008DF808000C208DF8090001208DF80A007C
:100D800001A800F04BF817208DF8000002208DF824
:100D9000010000208DF8020001208DF80300684654
:100DA00000F096FA0E21012000F028F94FF480405F
:100DB000019000208DF808000C208DF8090001201A
:100DC0008DF80A0001A800F029F828208DF800000D
:100DD00002208DF8010001208DF802008DF803003B
:100DE000684600F075FA0EBD0149086070470000C2
:100DF00014040140014600200022074B1B6803EA4F
:100E00000102054B14331B680B4013B10AB10120DA
:100E100000E0002070470000000401400021234949
:100E20008279002A3AD00A46126803689A430B4630
:100E30001A600A1D126803689A430B1D1A60027932
:100E400011440A6803681A430A60184A0832126893
:100E500003689A43154B08331A601A1D1268036819
:100E60009A43124B0C331A604279102A0ED11A1F82
:100E7000126803681A430D4B08331A601A1D126872
:100E800003681A43094B0C331A600DE00749427995
:100E900011440A6803681A430A6005E002791144A4
:100EA0000A6803689A430A60704700000004014022
:100EB0000149C860704700000020024030B5044678
:100EC00004254FF4302000F085F80546042D17D195
:100ED0000C48006940F002000A4908610846446174
:100EE000006940F0400008614FF4302000F072F8D3
:100EF00005460448006941F6FD7108400149086152
:100F0000284630BD0020024004200B49C96801F08A
:100F1000010109B101200EE00749C96801F004018F
:100F200009B1022007E00449C96801F0100109B1C4
:100F3000032000E0042070470020024003480069BD
:100F400040F0800001490861704700000020024025
:100F500078B506460C46042500200090E80200F013
:100F600039F80546042D24D11348006940F00100EA
:100F7000114908613480E80200F02CF80546042D80
:100F800010D1B01C0090200C00990880E80200F0FD
:100F900021F805460848006941F6FE7108400649F7
:100FA000086106E00448006941F6FE710840024904
:100FB0000861284678BD000000200240024803492D
:100FC000486003484860704723016745002002409D
:100FD000AB89EFCD00B502460423FFF795FF03462A
:100FE00003E0FFF791FF0346521E012B01D1002AB7
:100FF000F7D102B90523184600BD000030B5002224
:101000008B071C0F0F2303FA04F20B4B8C1053F8C1
:1010100024309343084C8D1044F8253023468C101F
:1010200053F824308C07240F00FA04F42343024CB5
:101030008D1044F8253030BD080001402DE9F04105
:10104000024600250026002000230024002791F8F6
:1010500003C00CF00F0591F803C00CF0100CBCF1AC
:10106000000F03D091F802C04CEA050591F800C0CA
:10107000BCF1000F31D0146800202BE04FF0010CC0
:101080000CFA00F3B1F800C00CEA03069E4220D12E
:1010900083004FF00F0C0CFA03F7BC4305FA03FC76
:1010A0004CEA040491F803C0BCF1280F06D14FF0BC
:1010B000010C0CFA00FCC2F814C00AE091F803C05D
:1010C000BCF1480F05D14FF0010C0CFA00FCC2F83E
:1010D00010C0401C0828D1D31460B1F800C0BCF186
:1010E000FF0F34DD546800202EE000F1080C4FF0B3
:1010F000010808FA0CF3B1F800C00CEA03069E429E
:1011000021D183004FF00F0C0CFA03F7BC4305FA12
:1011100003FC4CEA040491F803C0BCF1280F05D18C
:1011200000F1080C08FA0CF8C2F8148091F803C01A
:10113000BCF1480F07D100F1080C4FF0010808FA84
:101140000CF8C2F81080401C0828CED35460BDE8CB
:10115000F081416170470161704700002DE9F04165
:10116000642002F0C1FB02F013FF26490860084624
:101170000068B0F10C6F01DD012000E00020B0F547
:101180000D0F3CDA1F490968A1F50000FFF74EFA80
:1011900005461D49FFF784F804461C49FFF748F847
:1011A0001B4908600846006808601A49184800682A
:1011B000FFF73EF88046FFF756FA0646164A174BE9
:1011C000FFF753F90446FFF791FA11490860084602
:1011D0000068FFF748FA0646114A124BFFF745F937
:1011E0000446FFF783FA0A49086008460068086069
:1011F00000200D49086006480068BDE8F08100BF86
:10120000FBE700008800002000F02F4500808843A5
:101210008C0000200000E041809F71E14048263FA3
:101220005C8FC2F5A862A6406000002010B50024C3
:101230000AE042F2111101EB0420002101F098FCB8
:101240000A2002F051FB641C082CF2DB002142F65C
:10125000113001F08DFC0A2002F046FB002142F221
:10126000200001F085FC0A2002F03EFB10BD0000CA
:101270000348006800F0010000B100BE00BFFEE7B7
:10128000F0ED00E010B50346190903F00F0209293B
:1012900003DC01F13004E1B206E00A2904DB0F2986
:1012A00002DC01F13704E1B2092A03DC02F1300467
:1012B000E2B206E00A2A04DB0F2A02DC02F137045C
:1012C000E2B2CCB242EA042010BD00BFFEE7704794
:1012D00070B5002100230F22C47804B3154C246894
:1012E00004F4E064C4F5E064210AC1F10403CA40D7
:1012F000447804FA03F184781440214309010E4C28
:101300000678A155047804F01F050124AC40057847
:101310006D11AD0005F1E025C5F8004109E0047844
:1013200004F01F050124AC40044D0678761145F801
:10133000264070BD0CED00E000E400E080E100E03C
:1013400002490143024A1160704700000000FA059B
:101350000CED00E07047000029B1064AD269024353
:10136000044BDA6104E0034AD2698243014BDA613B
:10137000704700000010024029B1064A126902437A
:10138000044B1A6104E0034A12698243014B1A615B
:10139000704700000010024029B1064A92690243DA
:1013A000044B9A6104E0034A92698243014B9A61BB
:1013B000704700000010024029B1064AD26802437B
:1013C000044BDA6004E0034AD2688243014BDA60DE
:1013D000704700000010024030B5002100220024B8
:1013E00000232D4D6D6805F00C0121B1042905D0B5
:1013F000082923D105E0294D056022E0274D05602D
:101400001FE0254D6D6805F47012234D6D6805F4DD
:101410008034022505EB92421CB9214D55430560ED
:101420000BE01D4D6D6805F400351DB11C4D554395
:10143000056002E0194D5543056002E0174D056057
:1014400000BF00BF144D6D6805F0F0010909154D8E
:101450006B5C0568DD4045600F4D6D6805F4E0612B
:10146000090A104D6B5C4568DD4085600A4D6D686A
:1014700005F46051C90A0B4D6B5C4568DD40C560E1
:10148000054D6D6805F44041890B074D6B5CC568DF
:10149000B5FBF3F5056130BD0010024000127A0083
:1014A00000093D00140000202400002070B504460F
:1014B0000D465A2009490870A520487004208870FC
:1014C0008320C870200A08714C7108468571072175
:1014D00000F07AFC0A2002F007FA70BDCC3100203F
:1014E00008B501211C20FFF757FF4FF40060ADF84D
:1014F000000010208DF8030003208DF802006946DB
:101500001048FFF79BFD4FF400610E48FFF723FEE4
:101510008020ADF8000069460B48FFF78FFD802161
:101520000948FFF718FE4FF48040ADF80000042092
:101530008DF8030003208DF8020069460348FFF789
:101540007DFD08BD0008014000100140000C014075
:1015500000B587B001210420FFF71EFF01214804D8
:10156000FFF7FAFE0420ADF8180018208DF81B00D4
:1015700003208DF81A0006A93648FFF75FFD042105
:101580003448FFF7E8FD0820ADF8180004208DF876
:101590001B0006A92F48FFF751FD0220ADF81800E7
:1015A00010208DF81B0006A92A48FFF747FD0221ED
:1015B0002848FFF7CEFD284800F0BEFC2748006809
:1015C00002900020ADF81400ADF80C00ADF80E004C
:1015D0000C20ADF812002248007820B1012806D076
:1015E00002280ED108E00020ADF8100009E04FF409
:1015F000C060ADF8100004E04FF48060ADF810005A
:1016000000BF00BF02A9144800F040FD40F2255180
:10161000114800F076FC012240F225510E4800F0FE
:1016200010FD26208DF8040002208DF805008DF8AD
:10163000060001208DF8070001A8FFF749FE0121EF
:10164000054800F06DFC01200649086000F032FBFF
:1016500007B000BD00080140004400409002002097
:10166000940200208401214270B504460D460120F9
:10167000104908600BE000BF80210F4800F0AAFC71
:101680000028F9D014F8011B0B4801F000FA281EBD
:10169000A5F10101CDB2EED100BF4021064800F016
:1016A00099FC0028F9D00120044908700020014964
:1016B000086070BD8401214200440040A702002060
:1016C000704710B500F002F810BD00000CB5002006
:1016D000019000903348006840F480303149086040
:1016E00000BF3048006800F4003000900198401CB2
:1016F0000190009818B90198B0F5A06FF1D1294870
:10170000006800F4003010B10120009001E00020DA
:1017100000900098012843D12348006840F0100051
:10172000214908600846006820F003000860084668
:10173000006840F0020008601A4840681949486093
:101740000846406848600846406840F48060486049
:101750000846406820F47C1048600846406840F421
:10176000E81048600846006840F08070086000BFDC
:101770000C48006800F000700028F9D00948406863
:1017800020F00300074948600846406840F0020026
:10179000486000BF0348406800F00C000828F9D1F9
:1017A0000CBD00000010024000200240042808D1B7
:1017B0004FF0E021096941F004014FF0E02211618E
:1017C00007E04FF0E021096921F004014FF0E02229
:1017D000116170477047000010B51348006840F071
:1017E00001001149086008464068104908400E4948
:1017F0004860084600680E4908400B4908600846E2
:10180000006820F4802008600846406820F4FE004C
:1018100048604FF41F008860FFF753FF4FF00060EF
:101820000449086010BD0000001002400000FFF8ED
:10183000FFFFF6FE08ED00E010B50121880700F07B
:10184000CAF900287ED00121880700F0B5F9944834
:101850000068401C9249086092480068401C914909
:1018600008609148007858B98D4800686421B0FB41
:10187000F1F201FB1200C0B901208C49087014E09C
:1018800087480068042810D389480068401C8849AC
:10189000086008460068022804D100200860012082
:1018A0008449087000207E4908607E480068B0F5D1
:1018B000FA7F0FDB01208049087000207949086019
:1018C0007E480068022805D001F0C0FE7C4908600F
:1018D00001F060FE7B480078012804D101F05AFE37
:1018E00000207849087078480078012827D1774887
:1018F0000068401C7549086008460068744909681A
:10190000884203D380217348FFF723FC72480068A4
:10191000401C71490860714800686D4909680844B5
:101920006D49096888420AD880216A48FFF713FC8C
:101930000020654908706549086067490860684883
:10194000007800E0AAE0012829D166480068401C20
:1019500064490860084600685D490968884204D304
:101960004FF400616048FFF7F4FB60480068401CDA
:101970005E490860594800685549096808445B4950
:10198000096888420BD84FF400615748FFF7E3FB22
:10199000002053490870534908605449086046487C
:1019A0000078012866D152480068002862D1424977
:1019B000087001210803FFF779FD02211020FFF7CD
:1019C00075FD01212020FFF771FD01214FF4A0607A
:1019D000FFF76CFD012142F22200FFF767FD0221B3
:1019E00042F22000FFF762FD42480068B8B1424968
:1019F000098888B20221FFF759FD3F49098988B259
:101A00000221FFF753FD3C49898888B20221FFF784
:101A10004DFD3949898988B20221FFF747FD3748D2
:101A2000006820B100203549086002F0C7FA0221A1
:101A300041F23400FFF73AFD022142F21400FFF7B1
:101A400035FD022142F21600FFF730FD022141F27E
:101A50001800FFF72BFD022143F22A00FFF726FDB5
:101A6000022143F22C00FFF721FD022143F22E0058
:101A7000FFF71CFD1048007880B11D48006868B170
:101A80001F48006841F2301101EB400400200A4970
:101A90000870A0B20221FFF709FD00BF10BD0000D1
:101AA000D0020020B00200207C000020AC02002008
:101AB000D8020020AD020020B4020020E80100207E
:101AC00044000020B502002004020020B8020020DB
:101AD000E001002000100140BC020020E4010020D1
:101AE00005020020C002002000080140C4020020BE
:101AF0003C0200202402002090310020340200200B
:101B0000CC0200207FB505460C4601210846FFF7B0
:101B100023FCADF80850ADF804400020ADF80A00F1
:101B2000ADF8060001A94FF0804000F071F80122E5
:101B30001146900700F060F81C208DF8000004208A
:101B40008DF8010003208DF8020001208DF80300BC
:101B50006846FFF7BDFB0121880700F030F87FBD24
:101B600010B50121094800F036F870B1012107488D
:101B700000F022F80021054800F021F80120044976
:101B80000860044908700449087010BD0004004052
:101B9000840121429A020020A902002010B50121EF
:101BA000044800F018F8012803D10121014800F091
:101BB00003F810BD00080040CA430282704721B1FB
:101BC000028842F00102028004E002884FF6FE73B0
:101BD0001A400280704730B50246002000230024DE
:101BE000158A05EA0103958905EA010413B10CB1D0
:101BF000012000E0002030BD1AB183890B438381AE
:101C000002E083898B4383817047818470470000A1
:101C1000002202881D4B98420ED01D4B98420BD0DB
:101C2000B0F1804F08D01B4B984205D01A4B984218
:101C300002D01A4B984204D14FF68F731A404B884A
:101C40001A43174B984207D0164B984204D04FF6D0
:101C5000FF431A40CB881A4302808B8883850B8808
:101C600003850A4B98420BD0094B984208D00E4B83
:101C7000984205D00D4B984202D00D4B984201D1AD
:101C80000B7A03860123838270470000002C0140F9
:101C9000003401400004004000080040000C0040F7
:101CA000001000400014004000400140004401408A
:101CB000004801401FB501210220FFF74DFB1648E7
:101CC000008800EB80004FF6FF7101EA4000ADF89C
:101CD000080041F61F40ADF804000020ADF80A00EE
:101CE000ADF8060001A90D48FFF792FF0122114649
:101CF0000A48FFF781FF1D208DF8000002208DF8B3
:101D0000010003208DF8020001208DF803006846D1
:101D1000FFF7DEFA1FBD000096020020000400401D
:101D200010B540F22551254800F061F9D8B123489B
:101D300000F0A8FEC1B2224842784078401C204BF7
:101D40005870D81C8154C01E01F0D6FB01280AD15E
:101D500000218007FFF733FF184800F003FA012144
:101D60008807FFF72CFF0821144800F033F930B141
:101D7000124800F087FE0821104800F0B9F840F240
:101D800026610E4800F033F9B8B10E4800780D49CD
:101D9000497888420BD00B4802780078401C094BE8
:101DA0001870D81C815C054800F071FE05E0002227
:101DB00040F22661014800F044F910BD00380140AE
:101DC000CF340020CC33002070B505460E460024E9
:101DD00000BF0AE0295D094842784078401C074B63
:101DE0005870D81C8154601CC4B2B442F2DB01228A
:101DF00040F22661024800F024F970BDCC33002087
:101E00000038014070B540F22551184800F0EFF855
:101E100050B30721154800F0DDF820B1012402205D
:101E20001349087000E00024104800F02BFEC5B2F2
:101E30001048008840F2FF71884215DAA4B90E48B4
:101E40000C49098845540B480088401C0949088002
:101E500001210A48FFF7B0FE00210848FFF7D5FE30
:101E600001210648FFF7ABFE70BD000000440040B2
:101E7000A902002098020020D23500200004004072
:101E800010B540F22551174800F0B1F858B1154887
:101E900000F0F8FDC1B2144842784078401C124B63
:101EA0005870D81C815440F226610E4800F09FF80B
:101EB000B8B10E4800780D49497888420BD00B48DC
:101EC00002780078401C094B1870D81C815C0548CA
:101ED00000F0DDFD05E0002240F22661014800F03F
:101EE000B0F810BD00480040D5470020D246002081
:101EF00001F40072B2F5007F00D100BFCA43028036
:101F0000704710B50022002340F66A14A14200D1A8
:101F100000BF0A1201249440A3B2DC43048010BD28
:101F200021B1828942F40052828104E082894DF617
:101F3000FF731A408281704710B5044620488442DE
:101F400009D101218803FFF737FA00214FF48040BF
:101F5000FFF732FA32E01B48844209D101214804DC
:101F6000FFF70AFA00214FF40030FFF705FA25E0E9
:101F70001548844209D101218804FFF7FDF90021A9
:101F80004FF48020FFF7F8F918E01048844209D197
:101F90000121C804FFF7F0F900214FF40020FFF7FA
:101FA000EBF90BE00A48844208D101210805FFF74C
:101FB000E3F900214FF48010FFF7DEF910BD0000B7
:101FC000003801400044004000480040004C004000
:101FD0000050004002460020B1F5007F00D100BF54
:101FE00013880B400BB1012000E00020704770B552
:101FF0000246002400230025002040F66A16B14264
:1020000000D100BFC1F3421501F01F03012606FAFB
:1020100003F3012D02D19689334006E0022D02D14F
:10202000168A334001E0968A33400C12012606FAE4
:1020300004F41688344013B10CB1012000E00020F4
:1020400070BDF0B50346002400260025002040F6B0
:102050006A17B94200D100BF1846C1F3421401F01B
:102060001F06012707FA06F5012C01D10C3004E008
:10207000022C01D1103000E014301AB107682F4350
:10208000076002E00768AF430760F0BD2DE9F04745
:1020900086B005460E460024A24600BFA146002792
:1020A000B08900B100BF2F462C8A4CF6FF70044067
:1020B000F08804432C82AC894EF6F3100440B088BB
:1020C00031890843718908430443AC81AC8A4FF6D7
:1020D000FF400440B0890443AC8201A8FFF77CF9BB
:1020E0001F48874202D1DDF810A001E0DDF80CA006
:1020F000A88900F4004040B10AEBCA0000EB0A10C6
:1021000031684900B0FBF1F807E00AEBCA0000EBC8
:102110000A1031688900B0FBF1F86420B8FBF0F0D8
:1021200004012009642101FB1089A88900F4004002
:1021300040B1322000EBC900B0FBF1F000F0070025
:10214000044308E0322000EB09106421B0FBF1F0F9
:1021500000F00F0004432C8106B0BDE8F0870000BA
:10216000003801402DE9F04105464FF00008FD48D8
:1021700085421BD1FC480088072817DD0020FB4959
:1021800008700CE0FA49F94A127888180422F9A17B
:1021900001F0C2FFF5480078401CF4490870F2488D
:1021A00000880838F14909788842EBDCF348854219
:1021B0007ED1EF49ED4A127888180522F04901F0E6
:1021C000ABFF012839D1EA48007A012804D1ED4952
:1021D0000870ED49086013E0E548007A022806D14E
:1021E0000020E84908700220E749086008E0E0485C
:1021F000007A28B90220E34908700320E249086008
:10220000E0480078E1490978884212D0DD4800783A
:1022100020B1012806D0022809D107E0312000F0C2
:102220003DFC05E0302000F039FC01E000E000BF9B
:1022300000BFD4480078D5490870CD49CB4A127800
:1022400088180622D24901F067FF01281AD1C84830
:10225000807AD049086008460068CF4909688842FA
:102260000CD0C348807A20B1C149887A00F03EFC86
:1022700000E000BFC7480068C7490860C54800685B
:10228000C5490860BA49B94A127888180622C34974
:1022900001F042FF01281BD1B549897AB44A527A2C
:1022A00041EA0220FEF7C2F9BD490860084600E095
:1022B0009DE30068FEF7C3F90446214642F211701F
:1022C00000F056FC0A2001F00FFB0120B549086020
:1022D000A749A64A127888180622B34901F01CFFC4
:1022E000012819D1A249897AA14A527A41EA0220E9
:1022F000FEF79CF9AD49086008460068FEF79FF9B3
:102300000446214642F6110000F032FC0A2001F09A
:10231000EBFA0120A64908609549944A127888187A
:102320000622A44901F0F8FE012807D19048007A5E
:10233000012803D1A0480068A04908608C498B4A55
:102340001278881806229E4901F0E6FE012817D16E
:102350008748807A9B490860084600689A4909685E
:10236000884203D0974800689749086095480068FC
:10237000954908600846006800EB8000400008604E
:102380007B497A4A127888180622904901F0C4FEE7
:10239000012817D17648807A8D4908600846006880
:1023A0008C490968884203D08948006889490860D7
:1023B00087480068874908600846006800EB80008D
:1023C00040000860834800687F49096808448249E2
:1023D00008606749654A1278881806227F4901F02B
:1023E0009BFE01281BD16248807A7D49086008461F
:1023F00000687C490968884203D0794800687949B7
:1024000008607748006877490860084600686438C3
:102410000860084600680860012073490860544954
:10242000524A127888180622704901F075FE012878
:1024300032D14F48807901282ED16D4908606D480E
:102440000068FEF710F906464FF066326A4BFEF759
:102450001DF921D20FE06949694A126851F822003A
:1024600068490968FDF792FE66490860644800689B
:10247000401C63490860624800681028EBDB4FF09D
:10248000834160480068FDF70BFF5F49086000204A
:102490005C4908605A4908603549344A12788818FE
:1024A00006225A4901F038FE012811D13048807ABD
:1024B000574908600846006856490968884203D0B1
:1024C0005348006853490860514800685149086002
:1024D0002749264A1278881806224F4901F01CFE27
:1024E000012824D10FE045494C4A126851F82200D6
:1024F0004B490968FDF74AFE4949086047480068AA
:10250000401C46490860454800681028EBDB4FF046
:10251000834143480068FDF7C3FE4249086000203C
:102520003F4908603D49086001203F490860104963
:102530000E4A1278881806223C4901F0EDFD012868
:102540000FD10B48807A3A4908603A480068096818
:10255000884275D001203849086038490860002455
:102560007CE0CCE000440040660100204C020020EA
:1025700068300020434D443D000000000038014019
:102580007001002054020020E801002055020020C4
:102590007501002058020020DC0100208D01002080
:1025A0001002002030020020870100200C020020D1
:1025B0002C020020BD010020440000205C0100200E
:1025C0007B0100205C020020E0010020810100204E
:1025D00060020020E401002060010020930100203F
:1025E000640200200002002028020020C90100200F
:1025F000F80100203C0000206666104050310020A9
:102600001C02002014020020F0010020C301002061
:1026100068020020F4010020CF01002020020020E9
:1026200018020020EC010020FC010020D501002050
:10263000680100206C0100202402002034020020E8
:1026400016E042F2111101EB042188B2002100F0E2
:102650008FFA0A2001F048F9601CC4B2062CF0DBA6
:10266000E448006818B1E348006801F0E7FD00BFE6
:10267000E1480068401E41F2301101EBC000DF4923
:102680000860DD480068401E41F2301101EBC000D7
:10269000801CDA498860D8480068401E41F2301139
:1026A00001EBC000001DD5494860D3480068401EBA
:1026B00041F2301101EBC000801DD049C8600846CE
:1026C0000089000ACE490871CC48007A4871CB488D
:1026D0008088000ACB490871C84800794871C7480A
:1026E0008089000AC8490871C448007B4871C34802
:1026F0000088000AC5490871C04800784871C4487C
:102700000068E0B9C349C44A127888180622BF4954
:1027100001F002FD012812D1C0490860BD48807A4D
:10272000BC49497A40EA0120BD4908600846016871
:1027300042F6113000F01CFA0A2001F0D5F8B54934
:10274000B54A127888180622B64901F0E5FC01283E
:1027500020D1B0488079B4490860AE48C07948605B
:10276000AC48007A8860AB48807AC860A1480068AD
:1027700060B1A048006801F0C9FD0020AB490860C5
:1027800048608860AA490860486088609A48006884
:10279000984908609F49A04A127888180622A549DE
:1027A00001F0BAFC01280DD19A48007A012809D11C
:1027B000974908600020A049086011209F490871CE
:1027C0003020487192480068F0B39249924A1278DA
:1027D00088180622994901F09FFC012858D1964893
:1027E000006818B9B4219648FDF7B7FC93484079C2
:1027F0009249097900EB0120841C200A8F49087155
:102800004C718448C07900068249097A40EA014047
:102810008049497A40EA01207E49897A08438849FB
:10282000854A126841F8220083480068401C8249AA
:10283000086008460068782829D10020814908608E
:10284000734908607C4900E022E0086011207B4960
:102850000871302048717C4800687949C1F8E0016E
:102860007A4800680A21B0FBF1F07549C1F8E80127
:10287000774800680A21B0FBF1F07149C1F8EC011A
:10288000B4216F4801F06AF86420FEF70FF900BF29
:102890006049614A1278881806226E4901F03CFCB2
:1028A00001280FD15B48007A01280CD16A480068E2
:1028B00048B141F230121421614801F047FB002079
:1028C000654908607AE05348007A02280CD16348D1
:1028D000006848B141F258121421594801F036FB02
:1028E00000205E49086069E04A48007A03280CD15C
:1028F0005B48006848B14FF48C521421504801F0F5
:1029000025FB00205649086058E04248007A042818
:102910000CD15448006848B141F2A812142148482B
:1029200001F014FB00204F49086047E03948007A65
:1029300005280CD14C48006848B141F2D01214214E
:102940003F4801F003FB00204749086036E031486A
:10295000007A06280CD14548006848B141F2F812C7
:102960001421374801F0F2FA00204049086025E0C0
:102970002848007A072821D13D480068F0B13D4938
:10298000096841F2122303EB01123A490968CB00AE
:10299000394901EB8300082101F054FA35480068F9
:1029A000072190FBF1F201FB120010B90020304921
:1029B000086030480068401C2E4908601549164AD6
:1029C0001278881806222D4901F0A6FB01280ED1A5
:1029D0001048007A01280AD12948006838B104213A
:1029E0002548103001F0A9FB002025490860BDE80A
:1029F000F08100006C01002068010020903100206F
:102A0000870100208D010020930100209901002002
:102A10003C020020683000204C02002028020020E8
:102A2000440200209F010020B43100205C300020CF
:102A300050300020A5010020CC020020AB01002076
:102A4000E402002050020020DC010020E001002010
:102A5000E4010020B10100206C020020700200207F
:102A600074020020780200207C02002080020020F6
:102A70008402002088020020B4040020B701002056
:102A80008C02002001468888C0F308007047C1F31B
:102A900008028280704700BFFEE7000010B50446C0
:102AA000252011490870302048703120887023207B
:102AB000C8705720087143204871532088715220F4
:102AC000C871322008723520487230208872C8726E
:102AD000084604732A20487388730D20C873102198
:102AE0000148FEF7C1FD10BDD23D00202DE9F041A7
:102AF000044604EB44104500280AFEF7C3FB0646D3
:102B0000E8B2FEF7BFFB07462520184908703020C1
:102B10004870312088702320C870572008714420E5
:102B2000487188713020C871087232204872332091
:102B300088723820C8723020087348733220887336
:102B40003320C87338200874380A48748F74300AE8
:102B5000C8740E752A20487588750D20C87518210F
:102B60000248FEF781FDBDE8F0810000D23D002063
:102B700070B506460D4601212820FDF7F9FA0446F6
:102B80005A202070A52060700720A0708220E0707D
:102B9000300A20716671280EA071280CE071280A95
:102BA000207265720A212046FFF70EF9204600F0D8
:102BB000F3FE70BD0FB4084B10B504A902AA039828
:102BC00000F0DEF8044602A9002000F05CFC20467C
:102BD00010BC5DF814FB00008734000802E008C850
:102BE000121F08C1002AFAD170477047002001E087
:102BF00001C1121F002AFBD1704700002DE9FF5FC1
:102C000082B00021DDE90430020DDDF840B003435D
:102C100018D044F61050A2F2FF3242431514119816
:102C200001281FD0A5EB0B00401C5FEA000A4FF003
:102C300000064E4FDFF83891B046504615D5CAF120
:102C4000000413E0119801244AA3012801D16FEA7E
:102C50000B010298119AC0E90031C0E9024206B0A6
:102C6000BDE8F09FCBF10000DFE704460021404AB9
:102C7000491842EB0450CDE9001012E0E00707D0FC
:102C800032463B4640464946FDF7EFFB80468946C3
:102C900032463B4610461946FDF7E7FB06460F460F
:102CA0006410002CEAD1DDE90401DDE90023BAF16A
:102CB000000F06DAFDF7D9FB42464B46FDF7D5FB80
:102CC00005E0FDF744FC42464B46FDF740FC044658
:102CD0000E460022284BFDF7F1FC03D84FF0FF30E1
:102CE000014607E00022254B20463146FDF716FB42
:102CF000FDF728FE102409E0002C0ADB0A2200233D
:102D0000FDF73AFD039B30321A55641E50EA01026A
:102D1000F2D1641C039AC4F111031444119A012ADC
:102D200003D0012208430DD10AE0084304D000205B
:102D30004FF0110B119072E7A3EB0B056D1E0DE028
:102D40005B4504DD4FF0000205F1010504E003DA04
:102D50004FF00002A5F10105002AECD0029811996C
:102D6000C0E90231C0E9004579E7000000001440E5
:102D70000000F03F300000000000F0430000E03FA2
:102D80002DE9FF4F95B09A46884606460025EEE1AC
:102D9000252877D100242746F94A0121039400E031
:102DA000044316F8013F203B01FA03F01042F7D12B
:102DB00030782A2811D06FF02F033078A0F130023C
:102DC000092A16D8039A44F0020402EB820203EBAC
:102DD00042021044761C0390EFE758F8042B03924C
:102DE000002A03DA504244F40054039044F00204F1
:102DF000761C30782E2816D116F8010F44F0040402
:102E00002A280DD06FF02F023078A0F13003092B63
:102E100009D807EB870302EB4303C718761CF3E7D7
:102E200058F8047B761C30786C280FD006DC4C28D0
:102E300017D068280DD06A2814D104E0742810D067
:102E40007A280FD10DE044F400140AE044F4801411
:102E500001E044F440147278824202D104F58014F7
:102E6000761C761C307866280BD013DC582877D077
:102E700009DC002875D04528F6D04628F4D047282C
:102E80001AD193E118E0632835D0642879D06528F9
:102E900012D18BE1702873D008DC6728F1D0692843
:102EA0006FD06E280DD06F2806D1ACE073282CD0DF
:102EB000752874D0782853D05246179990476D1CC6
:102EC00054E1C4F30250022809D003280DD0D8F8E9
:102ED000001004280DD00D6008F1040846E1D8F870
:102EE0000010EA17C1E90052F6E7D8F800100D808B
:102EF000F2E70D70F0E718F8041B8DF800100020C1
:102F00008DF80100EB46012003E058F804BB4FF0B8
:102F1000FF3061074FF0000102D40DE009F101011B
:102F20008946B9420FDA8145F8DB1BF80910002900
:102F3000F4D108E009F1010189468142FADB1BF86E
:102F400009100029F6D103985346A0EB0907214642
:102F50003846179A00F080FA284400EB090507E08C
:102F600044E008E10DE01BF8010B52461799904729
:102F7000B9F10109F7D2534621463846179AF2E0D3
:102F800039E00A21C4F302524FF0000B0091022AEB
:102F900006D058F8040BC117032A09D00AE023E031
:102FA00008F1070020F00702F2E80201904605E070
:102FB00000B2C117042A01D140B2C117002906DAB4
:102FC0000A460021404261EB02012D2202E0220567
:102FD00004D52B228DF80420012203E0E20701D062
:102FE0002022F7E7914657E00A2100E010214FF038
:102FF000000B00910BE010214FF0000B44F0040493
:103000000827009103E008204FF0000B0090C4F364
:103010000252022A05D058F8040B0021032A08D0D6
:1030200008E008F1070020F00702F2E802019046EC
:1030300003E080B2042A00D1C0B24FF00009220799
:103040002AD53278702A07D0DDF800C08CF0100C39
:103050005CEA0B0C05D00EE040228DF80420012222
:1030600008E050EA010306D030238DF804308DF8D3
:10307000052002229146009B83F0080353EA0B03CC
:103080000AD150EA010201D1620705D530228DF83C
:1030900004204FF001097F1E3278582A04D039A24B
:1030A0000C920CAA02920BE03BA2F9E75B46009A55
:1030B000FDF762FB0C9B9B5C029A521E02921370FE
:1030C00050EA0102F2D1029804A9081A00F1200B7B
:1030D000600702D524F4803400E001275F4502DD5B
:1030E000A7EB0B0000E0002000EB0B010090039821
:1030F0004944401A0390E00306D453462146179AE8
:10310000039800F0A9F90544002706E001A85246FB
:10311000C05D179990476D1C7F1C4F45F6DBE0039F
:103120000CD553462146179A039800F095F90544AB
:1031300004E030205246179990476D1C0099481EB4
:1031400000900029F5DC08E00298029952460078C8
:10315000491C0291179990476D1CBBF10001ABF11E
:10316000010BF1DC5BE100F065F90544761C307879
:1031700000287FF40DAE19B02846BDE8F08F00009E
:10318000092801003031323334353637383961623D
:103190006364656600000000303132333435363701
:1031A000383941424344454600000000600700D4DE
:1031B000062708F1070020F00700F0E80223804608
:1031C00003F0004C5FEA0C0001D097A009E0200555
:1031D00001D596A005E0E00701D095A001E0AFF28F
:1031E0004C001390307823F0004365280CD006DCA7
:1031F000452809D046281DD047287FD13BE06628C6
:1032000018D067287AD136E00021112F01DB112078
:1032100000E0781CCDE9000104A90CA8FFF7EEFC42
:10322000DDE90D010C9A4FF0000B07F10109109236
:1032300000914EE04FF000400097CDE9011004A945
:103240000CA8FFF7DBFCDDE90D020C9B0F994FF09A
:10325000000B91461093009211B9791C00EB010903
:10326000B7EB090003D4C0F1FF3B07F10109A9EB5B
:103270000700019042E0012F00DA01270021112F01
:1032800001DD112000E03846CDE9000104A90CA8B9
:10329000FFF7B4FCDDE90D010C9A00914FF0000B33
:1032A000B946109221070FD4009A4A4503DA914695
:1032B00001E0A9F10109B9F1010F05DD109AA9F1A9
:1032C0000101515C3029F4D0B84202DA10F1040F48
:1032D00003DA0121CDE9011010E0002803DC83446A
:1032E000A9EB000102E0411C494500DD8946A0EB45
:1032F0000B00401C01904FF000400290200705D4C5
:103300000198484502DB4FF0FF30019000208DF816
:103310004B0002980DF14B07B0F1004F25D0022071
:103320000C902B200D90029800280CDA404202905D
:103330002D200D9007E00A210298FDF707FA3031A1
:10334000029007F8011D0C99481E0C900029F2DC30
:1033500002980028EFD1791E0D980870307800F09F
:10336000200040F0450007F8020D11A8C01BC01D49
:1033700002901398007800B1012000EB0901019838
:1033800001EBE071029801440398401A401E03903B
:10339000E00306D453462146179A039800F05CF8E0
:1033A00005441398007818B15246179990476D1C40
:1033B000E00323D553462146179A039800F04CF8B2
:1033C00005441BE0BBF1000F07DB0098584504DD06
:1033D0001098179910F80B0001E017993020524609
:1033E000904701980BF1010B401E05F1010501907A
:1033F00004D12E205246179990476D1CB9F1000157
:10340000A9F10109DEDC05E017F8010B5246179916
:1034100090476D1C0299481E02900029F4DC534627
:103420002146179A03989EE62D0000002B0000000D
:10343000200000002DE9F041044600251E461746F5
:10344000880404D405E039462020B0476D1C641E72
:10345000F9D52846BDE8F0812DE9F0410446002564
:103460001E469046C80301D5302700E02027880477
:1034700004D505E041463846B0476D1C641EF9D5B9
:103480002846BDE8F0810A68531C0B601070704735
:103490002DE9F04107460C4615461E46DDF818801A
:1034A00000F016F800F01EF8FDF7B2FA284600F01A
:1034B000BFFD384600F0FCFD304600F0A7FD404659
:1034C00000F092FD204600F0BFFDBDE8F081000055
:1034D00010B5012002490860502000F005FA10BD27
:1034E0009001214210B5002002490860502000F0F0
:1034F000FBF910BD9001214210B5044640E0207850
:10350000401EE11C085C5A2837D12178E01C405C41
:10351000A52832D160782178401A08D5607800F566
:1035200080702178401A401C1849088005E06078B6
:103530002178401A401C15490880144800880B283F
:103540000BDB2078401EC1B20B22E01C00F04CFACD
:103550002078401C2070012010BD0D480068401CE0
:103560000B49086008460068B0F5FA6F03DB0020DD
:103570000860607820700020EEE72078401C207002
:10358000207861788842BAD10020E5E76601002002
:10359000480200202DE9F047002501212820FCF7F2
:1035A000E7FD044601211420FCF7E2FD80460121DD
:1035B0002820FCF7DDFD814620480168204800688E
:1035C000FCF736FE1E49086000211D480068FDF723
:1035D000A9F802D200201A49086019480068FDF7CE
:1035E00042F8064632460B4616A14046FFF7E2FA7D
:1035F0004146484600F03EF905465A202070A52075
:103600006070E81CA0708220E07011202071607151
:103610002A464946A01DFCF787FDA81DC1B22046D9
:10362000FEF7D2FB404600F0B7F9204600F0B4F9AF
:10363000484600F0B1F9BDE8F08700006C000020BA
:1036400044000020252E31660D0A000070B500F000
:10365000E7FB7E4908607E497C480068FDF76CF80E
:1036600071D27C480068012809DA784800687A49F4
:10367000086078480068401C7649086002E0002035
:103680007449086073480068002876D17248016860
:103690006E480068FCF7CCFD70490860704801680E
:1036A0006D480068FCF7C4FD6E4908606C4801680D
:1036B00066480068FCF7BCFD6B4908606948006813
:1036C000FCF7D1FF04460022684BFCF7F7FF09D84E
:1036D00062480068FCF7C7FF04460022634BFCF712
:1036E000EDFF13D95F480068FCF7BDFF04460022D8
:1036F0005F4BFCF7CBFF10D858480068FCF7B3FFCE
:10370000044600225A4BFCF7C1FF06D84F48006818
:10371000534908604D48006870BD52480068FCF786
:10372000A2FF04460022514BFCF7C8FF0FD84B48BC
:103730000068FCF798FF044600224C4BFCF7A6FFFC
:1037400002D2012001E07BE00020002819DC45487E
:103750000068FCF788FF04460022454BFCF796FF03
:1037600016D83E480068FCF77EFF04460022404B16
:10377000FCF7A4FF02D2012001E05EE00020002857
:1037800006DA354800683649086033480068C3E700
:1037900034480068FCF767FF04460022334BFCF70F
:1037A00075FF01D2012000E0002000280EDD2B482B
:1037B0000068FCF758FF044600222C4BFCF766FF1C
:1037C00001D2012000E0002000281DDA2548006811
:1037D000FCF749FF04460022254BFCF76FFF01D29E
:1037E000012000E00020002824DA1C480068FCF7D3
:1037F0003AFF044600221E4BFCF760FF01D2012075
:1038000000E00020002815DC17480068FCF72BFFBB
:1038100021F0004104460022144BFCF737FF02D888
:103820000F48006878E7094800680D4908600748B4
:10383000006871E70A4800686EE7094800686BE7AE
:103840000020024908600846006865E73000002053
:1038500000004040340100204C00002058000020AF
:103860005000002054000020480000200000E03FED
:103870000000E0BF30B5024600200FE0034600EB39
:10388000D3746410A0EB44041CB90025401CD5542B
:1038900004E00D780346401CD554491C0B78002BDE
:1038A000ECD130BD10B56FF00400FDF77FFF0A4882
:1038B00000680A49B0FBF1F0094908700846007831
:1038C00000EB4001C1EBC0104FF6FF7101EAC000F0
:1038D0000449088010BD00000000002000127A009A
:1038E000280000202A0000200146114A12884A437D
:1038F0004FF0E0235A6100229A611A46126942F0A1
:1039000001021A6100BF4FF0E022106900F00102CD
:103910001AB100F48032002AF5D04FF0E02212698B
:1039200022F001024FF0E0231A6100229A617047F1
:103930002A0000200020024981F8000270470000A0
:103940003C07002030B50346002004E052F8204038
:1039500043F82040401C8842F8D330BD70B505467E
:103960000E46FDF72BFB3420FDF7A2FA0948FDF7C0
:10397000A5FA04280BD1002407E055F82410054AC5
:1039800002EB8400FDF7E4FA641CB442F5D3FDF7C2
:10399000D5FA70BD0050000810B5002821D0114B99
:1039A0000022001F196803E0814203D80A464968D3
:1039B0000029F9D152B11368841A9C4204D10068DD
:1039C00018441060104602E0506000E0186039B101
:1039D00002680B1A934203D10B681A4402604968CB
:1039E000416010BDDC02002030B5034600200AE033
:1039F0000C464D1CE9B21C5D044D2C54FF2900DD22
:103A00000021441CE0B29042F2DB30BD683000205F
:103A10002DE9F84F00BFDF4800680128FBD000F017
:103A2000B7FADD49086008460068DC49DC4A1268DC
:103A300041F82200DA480068401CD949086008466D
:103A40000068102804DB002008600120D5490860C8
:103A5000D4480068012871D10020D349086059E09A
:103A6000CE48D149096850F821100246CE48006876
:103A7000401C52F8200081421DDD1146CA480068F2
:103A8000401C51F82010C8480068801C52F82000E3
:103A9000814210DA1146C4480068401C51F82010D9
:103AA000C248C34A126840F82210C1480068401C4E
:103AB000BF49086029E0B948BB49096850F821109E
:103AC0000246B9480068401C52F8200081421CDAC6
:103AD0001146B5480068401C51F82010B2480068F3
:103AE000801C52F8200081420FDD1146AE4800686C
:103AF000401C51F82000AF49AF4A126841F822003B
:103B0000AD480068401CAC490860A7480068401CEC
:103B1000A5490860A44800680E28A1DBA4480068F5
:103B2000022803DDA4480068022852DC0020A349D3
:103B300008603CE00020A24908602BE025E197489E
:103B40009F49096850F8211002469D480068401CB2
:103B500052F82000814218DD10469949096850F852
:103B6000210098490860114695480068401C51F8AA
:103B70002000934A126841F822009248874A01685F
:103B80008F480068401C42F820108D480068401C97
:103B90008B49086089480068C0F10F0088490968AE
:103BA0008842CCDC85480068401C84490860834812
:103BB00000680F28BEDB794800687849C96B084463
:103BC00081490860086800EBD07149107F4A116094
:103BD0004CE07748006878490968884204DA7448FC
:103BE00000687B49086003E0734800687849086012
:103BF00000206F4908600EE06C486D49096850F874
:103C000021007449096808447249086068480068DE
:103C1000401C67490860664800686D490968884229
:103C2000EADB0020644908600EE0624862490968E6
:103C300050F82100684909680844674908605E48EF
:103C40000068401C5C4908605B480068604909687E
:103C50008842EADB604800685E49096808445C49BC
:103C60000968490090FBF1F0584908605749096814
:103C7000A1F50000FCF7DAFC0090FCF7F4FC064626
:103C80000022564BFCF7F1FB80460022544BFCF718
:103C9000ECFB04460022534BFCF759FC8246FCF730
:103CA00025FD51490860084600685049504A12688D
:103CB00041F822004E480068401C4D490860084603
:103CC0000068102811DB484801684848494A1268D2
:103CD00040F8221047490968481CC11700EB1171D0
:103CE0000911A0EB0111434A116043480068012803
:103CF0001BD1424801683C480068FCF799FA054628
:103D00003E4801683E480068FCF792FA0646314694
:103D10003C48FCF7C5FA04462946FCF78FFA3A49B5
:103D2000086000203449086012E02F480068FCF762
:103D30009AFC8046354A364BFCF797FB0646354AD7
:103D4000354BFCF78CFB0446FCF7D0FC2E49086091
:103D50000020144908601449086017490860144994
:103D600008601C4908601C490860194908602B4913
:103D70000860154908601549086040210D48FCF7A6
:103D8000ECF940210948FCF7E8F91F480068BDE854
:103D9000F88F000018012142900000207C060020CE
:103DA00098000020A00000209C000020FC060020BD
:103DB000C0000020BC060020BC000020D80000206D
:103DC000DC000020E0000020B8000020AC00002053
:103DD000C4000020B0000020B40000200000144007
:103DE00000408F400000D0413C00002050310020B6
:103DF000CC000020E4000020FC010020F0010020A5
:103E0000EC0100200000FA44380000205A643BDF37
:103E1000CFD1A540713D0AD703E8C540D4000020AA
:103E200010B50548016805480068FCF701FA044927
:103E300008600846006810BD5C01002034000020C6
:103E4000300100202DE9F04105460E4617460024BA
:103E500009E055F8241007EB4400FEF789FE0A201C
:103E6000FFF742FD641CB442F3D3BDE8F0810000CB
:103E700008B5FDF7B1FCFFF715FD4FF4A060FDF7A5
:103E80005FFAFDF765FBFDF72BFBFFF753FDFFF72F
:103E900009FD4FF4E13000F07DF9002003460222D5
:103EA000032100900846FFF7F3FAFCF755FF094A93
:103EB000B4210948FFF746FD0421084800F03DF908
:103EC000312140F2CF20FDF71DFEFDF7AFF900BF15
:103ED000FEE7000000500008E4020020C4040020B7
:103EE000F0B50B30154D20F007010024144A0FE007
:103EF00003688B420BD38B4205D95E1A431847687F
:103F0000C3E9006700E04368136002C004E0021DDB
:103F100010680028ECD12046002802D1286808B19A
:103F20000020F0BD064A07481060074A121A22F026
:103F30000702C0E9002401202860D7E7E002002042
:103F4000DC020020DC480020D84A00202DE9F047A0
:103F500006460F461546A5F58850303800EBD0715F
:103F60004FEA610900240EE005EB44001FFA80F8D7
:103F700004EB090056F820104046FEF7F9FD0A2030
:103F8000FFF7B2FC641CBC42EED3BDE8F087000032
:103F9000002000210BE00022064B1A604000064A78
:103FA000D2F81821104301221A604A1CD1B21829F4
:103FB000F1DB7047940121420000214210B55A20E4
:103FC00008490870A5204870032088708120C870B7
:103FD000202008710720487106210248FDF7F4FEF1
:103FE00010BD0000CC31002018B90121064A116033
:103FF00008E0012803D10021034A116002E00121F9
:10400000014A1160704700008001214218B9002167
:10401000064A116008E0012803D10121034A11601A
:1040200002E00021014A1160704700008001224235
:10403000012803D10021034A116002E00121014A55
:10404000116070478401224230B101280BD0022850
:1040500011D003281ED116E00021134A1160134A23
:10406000C2F88C111DE001210F4A116000210F4A96
:10407000C2F88C1115E000210B4A116001210B4A96
:10408000C2F88C110DE00121074A1160074AC2F8FD
:104090008C1106E00021044A1160044AC2F88C1118
:1040A00000BF00BF7047000088012242000022428A
:1040B00030B101280BD0022811D003281ED115E001
:1040C0000121134A1160134AC2F894111EE0002125
:1040D0000F4A116001210F4AC2F8941116E0002125
:1040E0000B4A11600B4AC2F894110FE00121084AF3
:1040F00011600021074AC2F8941107E00021044A28
:1041000011600121034AC2F8941100BF00BF70473B
:10411000808121420000224230B503460C46002136
:1041200007E0585C655CA84201D0002030BD481C07
:10413000C1B29142F5DB0120F8E770B505460E46A5
:10414000002423E02CB955F824101020FEF710FDB0
:1041500018E0012C05D155F824101220FEF708FDB7
:1041600010E0022C06D155F8241042F21400FEF79C
:10417000FFFC07E0032C05D155F8241042F216008D
:10418000FEF7F6FC0A20FFF7AFFB641CB442D9D35C
:1041900070BD000010B586B00446012144F2040051
:1041A000FDF7FAF82348FDF7C7FE4FF40070ADF8AD
:1041B000140003208DF8160018208DF8170005A9AB
:1041C0001D48FCF73BFF4FF48060ADF8140004205D
:1041D0008DF8170005A91848FCF730FF25208DF849
:1041E000000003208DF801008DF8020001208DF8F9
:1041F00003006846FDF76CF801940020ADF8080054
:10420000ADF80A00ADF80C00ADF810000C20ADF8C8
:104210000E0001A90748FDF739FF012240F22551A0
:104220000448FDF70EFF01210248FDF779FE06B0B4
:1042300010BD0000003801400008014070B5044680
:10424000601E41F2222101EB00102C490860601E23
:1042500041F22C2101EB001028494860601E41F218
:104260002E2101EB00102549C860601E41F230216B
:1042700001EB001021498860098888B2204909684B
:10428000FEF776FC0A20FFF72FFB1E4A51681B4AF7
:10429000928890B2FEF76CFC0A20FFF725FB194AC2
:1042A0001168164A928990B2FEF762FC0A20FFF765
:1042B0001BFB144A9168114A128990B2FEF758FC10
:1042C0000A20FFF711FB601E7C2101EBC0050C48A2
:1042D00000680D4941F825000A480B4A4168681DED
:1042E00042F8201007480168A81D42F82010054830
:1042F0008168E81D42F8201070BD0000A031002048
:104300004402002050300020E40200202DE9F04754
:1043100007460026B146781E41F2242101EB001029
:10432000A0F1020801212820FBF722FF04465A20B1
:104330002070A52060700720A0708220E070781E99
:104340007C2101EBC00900BF4DE008F102084FEAF3
:104350001820207184F8058036B1012E0ED0022E6F
:1043600016D0032E28D11DE0224800682149096893
:10437000090901EB4101A0EB41051EE01D48406821
:104380001C494968090901EB4101A0EB410514E012
:104390001848806817498968090901EB4101A0EBB9
:1043A00041050AE01348C0681249C968090901EBD0
:1043B0004101A0EB410500E000BF00BF280EA07145
:1043C000280CE071280A207265720A212046FDF748
:1043D000FBFC0A20FFF788FA09EB0600401C06499F
:1043E00041F82050761C042EAFDB2046FFF7D4FAAC
:1043F000BDE8F087B4310020E40200201C4400082E
:1044000000000020E4020000B80900089C440008F5
:10441000E4020020F44B0000EC2B00081184A24AB7
:1044200004680901020304060708090C6910053431
:10443000020406085A010401E0092AE4100A5AA5F8
:104440000683105AA5088339063B2014062A16064F
:104450003B1032063A34063A36062808305AA50A86
:10446000812007352B2022121A11123C06830547A2
:10447000113A204D3A242A2A180C3B302A063A2CAD
:1044800054027A200216020A2101044380258A047C
:0C449000342C030CC118023B0800000093
:04000005080000ED02
:00000001FF
