:020000040800F2
:10000000E823002001010008A70F0008590F00088D
:10001000A30F00085D0A000803220008000000008A
:100020000000000000000000000000009513000820
:10003000610A0008000000002D100008A914000843
:100040001B0100081B0100081B0100081B01000820
:100050001B0100081B0100081B0100081B01000810
:100060001B0100081B0100081B0100081B01000800
:100070001B0100081B0100081B0100081B010008F0
:100080001B0100081B0100081B0100081B010008E0
:100090001B0100081B0100081B010008850A00085D
:1000A0001B0100081B0100081B0100081B010008C0
:1000B0000D150008A5170008E11700081B0100082E
:1000C0001B0100081B0100081B0100081B010008A0
:1000D0001B01000865190008211A00089D1A000874
:1000E000650A00081B0100081B010008DFF80CD09E
:1000F00000F018FC0048004725350008E8230020E0
:100100000648804706480047FEE7FEE7FEE7FEE7B1
:10011000FEE7FEE7FEE7FEE7FEE7FEE7AD140008B8
:10012000ED00000840EA01039B0703D009E008C97D
:10013000121F08C0042AFAD203E011F8013B00F8AC
:10014000013B521EF9D2704710B54843044603F0F4
:1001500017FA002805D00021002C02D0641E01559A
:10016000FAE710BDF0B480EA0102D40F4200B2EB0E
:10017000410F02D20246084611464A0042D0C30D42
:10018000DDB2C1F3C752AD1A202D35DAC1F3160125
:1001900041F4000204B15242C5F1200602FA06F110
:1001A0002A411044B3EBD05F23D0C4B1012DA0EBA2
:1001B000C35009DCF0BC4FF0004202EAC352DBB28C
:1001C00000F5000000F00BBB400000F1807000EB78
:1001D000C350A0F1807040EAD170490009E049089D
:1001E00041EAC071A0EBC35000F50000400800EBED
:1001F000C350F0BC00F0EABA6142012202EB4101B7
:10020000001BF6E7F0BC704781F00041AAE780F0E0
:100210000040A7E780EA010210B502F00043400069
:1002200022D04A001FD0010E01EB1261C0F356002C
:10023000C2F3560240F4000042F40002A0FB022088
:1002400000047F39140400D0401C50EA124001D44D
:100250004000491EC2B20C0604EBD010401C4008FE
:10026000802A02D003E0002010BD20F00100002908
:1002700000DA0020184310BD30B480EA010202F019
:10028000004530F0004221F0004013D090B1C30D82
:10029000D40DC2F31601C0F31600E41A41F40001B4
:1002A00040F400027D34914201D3641C00E0490017
:1002B000002C02DA30BC002070474FF4000000230D
:1002C000914201D3891A034340084FEA4101F7D113
:1002D00051B1914202D14FF0004105E002D24FF0FE
:1002E000010101E06FF0010103EBC450284430BC70
:1002F00000F06CBA2DE9FE4F804681EA0300C00F82
:100300000C46009021F0004123F00045B8EB0200BC
:10031000A94105D24046214690461C460B4602465E
:1003200023F00040104347D0270DC7F30A00C3F362
:100330000A510290401A019040286BDAC3F313006F
:1003400040F4801B0098924620B10023D2EB030AB0
:1003500063EB0B0B01985946C0F14002504600F088
:1003600014FA06460D4650465946019A00F01CFA0A
:1003700010EB08006141002487EA115284EAE77318
:100380001A4340D0009A62B3019A012A4FEA0752F9
:1003900015DC001B61EB02014FF0004202EA07523C
:1003A000CDE90042001C41F5801132462B4600F099
:1003B00053FA03B0BDE8F08F40462146F9E7001B31
:1003C00061EB0201001C41F5801300185B4120180D
:1003D000A2F5001747EB030140EAD570B6196D414D
:1003E00011E06D084FEA360645EAC0754FEA07523C
:1003F000001B61EB0201001C41F5801149084FEA26
:1004000030000019514132462B4603B0BDE8F04F91
:1004100000F013BA0098012240000023D0EB020242
:1004200063EBE073009821464FEAE074B8EB0000FC
:1004300061EB0401E9E783F000435BE781F00041F1
:1004400058E72DE9FE4F81EA030404F0004421F04F
:10045000004100944FF0000B23F0004350EA0104E8
:100460005ED052EA03045BD0C3F30A54C1F30A55C9
:100470002C44A4F2F3340194A0FB0254C1F3130101
:1004800041F48011C3F3130343F4801301FB0244CE
:1004900000FB034E840A970A44EA815447EA8357D3
:1004A000A4FB076802958D0A05FB07854FEA932C8C
:1004B00004FB0C542705029D4FEA065847EA1637FD
:1004C000B5EB08056EEB070C870E920E47EA811715
:1004D00042EA8312A7FB0201B6EB0B0164EB0004B6
:1004E0002B0D43EA0C335E1844EB1C50DA465146A0
:1004F000E7FB0201C5F313044FEA0B3343EA14533D
:100500004FEA0432019C43EA0603A4F10C0402946E
:10051000009CCDE900B400F09FF903B0BDE8F08F76
:1005200000200146F9E72DE9F04D81EA030404F0CB
:10053000004B21F0004514464FF0000A23F0004123
:1005400050EA050220D054EA01021DD0C5F30A5733
:100550000246C5F31303C1F31300C1F30A5640F476
:10056000801543F48013A7EB0608101BD64608F24B
:10057000FD3873EB050002D308F1010801E0921881
:100580005B41B8F1000F03DA00200146BDE8F08DB1
:1005900000204FF48011064684460EE0171B73EBD3
:1005A000050705D3121B63EB050306434CEA010C58
:1005B00049084FEA300092185B4150EA0107EDD13B
:1005C00052EA030012D082EA040083EA05010843DC
:1005D00005D0101BAB4106D20122002306E0002209
:1005E0004FF0004302E06FF0010253101AEB0600D7
:1005F0004CEB085110EB0A0041EB0B01BDE8F04D4C
:1006000000F01BB9C10F80EAE0700844CA079623C6
:10061000002100F0E4B800F0004230F000400AD0C1
:10062000C10D01F56071C0F3160042EA0151C20824
:1006300040071143704700200146704730B5041E43
:1006400071F1000404DB4FF00044404264EB01010F
:10065000141E73F1000405DB1C464FF000435242A8
:1006600063EB04038B4208BF824230BD30B5041EE9
:1006700071F1000404DB4FF00044404264EB0101DF
:10068000141E73F1000405DB1C464FF00043524278
:1006900063EB0403994208BF904230BD01F0004370
:1006A00030B421F0004150EA010206D00A0DA2F553
:1006B0006072C1F31301002A02DC30BC00207047D5
:1006C000440F44EAC104C100E01830BC00EBC25042
:1006D00000F07CB8002801DBC0F10040002901DBFC
:1006E000C1F1004181427047002801DBC0F10040A8
:1006F000002901DBC1F100418842704730B50B464B
:10070000014600202022012409E021FA02F59D4241
:1007100005D303FA02F5491B04FA02F52844151E15
:10072000A2F10102F1DC30BD2DE9F05F05460020A9
:1007300092469B4688460646814640241BE0284652
:1007400041464746224600F0FFF853465A46C01A33
:10075000914110D311461846224600F016F82D1A82
:1007600067EB01084F4622460120002100F00DF8FA
:1007700017EB00094E41201EA4F10104DFDC4846BE
:1007800031462A464346BDE8F09F202A04DB203A42
:1007900000FA02F1002070479140C2F1200320FAD4
:1007A00003F3194390407047202A06DBCB17203A09
:1007B00041FA02F043EAE07306E041FA02F3D04066
:1007C000C2F1200291400843194670470029A8BF92
:1007D0007047401C490008BF20F00100704710B46A
:1007E000B0FA80FC00FA0CF050EA010404BF10BC1F
:1007F000704749B1CCF1200421FA04F411FA0CF14C
:1008000018BF012121430843A3EB0C01CB1D4FEA84
:1008100000614FEA102042BF002010BC704700EB7F
:10082000C35010440029A4BF10BC7047401C4900AD
:1008300008BF20F0010010BC704710B5141E73F102
:10084000000408DA401C41F1000192185B411A4390
:1008500001D120F0010010BD2DE9F04D92469B46DC
:1008600011B1B1FA81F202E0B0FA80F22032904682
:10087000FFF78BFF04460F4640EA0A0041EA0B01EE
:1008800053465A46084313D0114653EA010019D083
:10089000C8F14002504600F057F805460E46504653
:1008A00059464246FFF771FF084305D0012004E096
:1008B00020463946BDE8F08D0020054346EAE07643
:1008C0002C4337430A986305E40AA0EB0800002292
:1008D000FD0A44EA47540A3002D500200146E9E700
:1008E000010510196941DDE9084500196941BDE8B4
:1008F000F04DA2E7C1F30A52C1F3130140F2FF33F6
:1009000041F480119A4202DA00200146704740F219
:1009100033439A42A2F2334202DC524200F014B84E
:10092000FFF733BF064C074D06E0E06840F00103D7
:1009300094E8070098471034AC42F6D3FFF7DAFB8F
:100940005C3900087C390008202A04DB203A21FAAF
:1009500002F00021704721FA02F3D040C2F12002D8
:10096000914008431946704770B58C1810F8015B28
:1009700015F0070301D110F8013B2A1106D110F838
:10098000012B03E010F8016B01F8016B5B1EF9D13C
:100990002B0705D40023521E0DD401F8013BFAE7C2
:1009A00010F8013BCB1A921C03E013F8015B01F82D
:1009B000015B521EF9D5A142D8D3002070BD0000C2
:1009C00008B50121042000F053FB0121082000F0AC
:1009D0004FFB0121102000F04BFB3120ADF800004F
:1009E00010208DF8030003208DF802006946174897
:1009F00000F0BAF94020ADF8000004208DF80300A3
:100A000003208DF802006946104800F0ADF92F2050
:100A1000ADF8000010208DF8030003208DF80200CF
:100A200069460B4800F0A0F90120ADF80000102045
:100A30008DF8030003208DF802006946054800F098
:100A400093F901200449086008BD00000008014036
:100A500000100140000C01409401214200BFFEE75C
:100A60007047000010B54FF4804000F0FFF810B15F
:100A70000120034908604FF4804000F0F1F810BDF8
:100A80001800002070B5402000F0F0F8002879D060
:100A900001203E49087002F03DFB3D4908600020FE
:100AA0003C4908603C480068401C3B4908603B48A2
:100AB000006802284CD13A480068012848D13948DA
:100AC0000068FFF79FFD044637480168304800681A
:100AD000FFF79AFB05462146FFF744FB33490860C0
:100AE00001203349087008460078012811D13149A6
:100AF000086000202549087000F0C6F92A490860FE
:100B000001202249087000202B49C1F880012B499F
:100B100008704FF0804125480068FFF7E5FD09D2D5
:100B20002748016821480068FFF7D4FD02D2012060
:100B300024490870244801681C480068FFF7D4FD68
:100B400002D201202149087000201549086019E0EF
:100B500011480068B0F57A7F14DD0120154908605E
:100B600000200A49087000F08FF90F490860012041
:100B70000649087000201049C1F880010F4908702B
:100B800005490860402000F06BF870BD1C00002093
:100B9000540000207C00002014000020B40100203C
:100BA00018000020CC0100208C00002064000020F0
:100BB00031020020800122420000224288000020F1
:100BC000DC010020D0010020D8010020D10100204C
:100BD0000EB50121084600F04BFA0621002000F076
:100BE000A3F84020019000208DF808000C208DF81B
:100BF000090001208DF80A0001A800F04BF8172029
:100C00008DF8000002208DF8010000208DF8020010
:100C100001208DF80300684600F0C6F90E2101207E
:100C200000F082F84FF48040019000208DF8080019
:100C30000C208DF8090001208DF80A0001A800F0B1
:100C400029F828208DF8000002208DF801000120ED
:100C50008DF802008DF80300684600F0A5F90EBD7E
:100C6000014908607047000014040140014600205B
:100C70000022074B1B6803EA0102054B14331B6873
:100C80000B4013B10AB1012000E0002070470000C2
:100C900000040140002123498279002A3AD00A4603
:100CA000126803689A430B461A600A1D12680368AB
:100CB0009A430B1D1A60027911440A6803681A43AB
:100CC0000A60184A0832126803689A43154B0833C1
:100CD0001A601A1D126803689A43124B0C331A608B
:100CE0004279102A0ED11A1F126803681A430D4B5D
:100CF00008331A601A1D126803681A43094B0C3333
:100D00001A600DE00749427911440A6803681A43E2
:100D10000A6005E0027911440A6803689A430A6090
:100D2000704700000004014030B500228B071C0F03
:100D30000F2303FA04F20B4B8C1053F82430934327
:100D4000084C8D1044F8253023468C1053F824307D
:100D50008C07240F00FA04F42343024C8D1044F84E
:100D6000253030BD080001402DE9F0410246002544
:100D70000026002000230024002791F803C00CF077
:100D80000F0591F803C00CF0100CBCF1000F03D05C
:100D900091F802C04CEA050591F800C0BCF1000FC3
:100DA00031D0146800202BE04FF0010C0CFA00F356
:100DB000B1F800C00CEA03069E4220D183004FF038
:100DC0000F0C0CFA03F7BC4305FA03FC4CEA0404CD
:100DD00091F803C0BCF1280F06D14FF0010C0CFABA
:100DE00000FCC2F814C00AE091F803C0BCF1480F3F
:100DF00005D14FF0010C0CFA00FCC2F810C0401CE9
:100E00000828D1D31460B1F800C0BCF1FF0F34DD65
:100E1000546800202EE000F1080C4FF0010808FA99
:100E20000CF3B1F800C00CEA03069E4221D1830006
:100E30004FF00F0C0CFA03F7BC4305FA03FC4CEA25
:100E4000040491F803C0BCF1280F05D100F1080C8F
:100E500008FA0CF8C2F8148091F803C0BCF1480FEE
:100E600007D100F1080C4FF0010808FA0CF8C2F89D
:100E70001080401C0828CED35460BDE8F081416149
:100E800070470161704700002DE9F041642002F0D5
:100E9000D7F802F0ABFB2649086008460068B0F1BD
:100EA0000C6F01DD012000E00020B0F50D0F3CDAF1
:100EB0001F490968A1F50000FFF7A4FB05461D497D
:100EC000FFF7DAF904461C49FFF79EF91B49086051
:100ED0000846006808601A4918480068FFF794F946
:100EE0008046FFF798FB0646164A174BFFF7A9FA0C
:100EF0000446FFF7D3FB1149086008460068FFF776
:100F00008AFB0646114A124BFFF79BFA0446FFF78D
:100F1000C5FB0A49086008460068086000200D49C2
:100F2000086006480068BDE8F08100BFFBE70000EC
:100F3000A800002000F02F4500808843AC0000206E
:100F40000000E041809F71E14048263F5C8FC2F580
:100F5000A862A6408000002000BFFEE710B503464F
:100F6000190903F00F02092903DC01F13004E1B291
:100F700006E00A2904DB0F2902DC01F13704E1B2A3
:100F8000092A03DC02F13004E2B206E00A2A04DB9B
:100F90000F2A02DC02F13704E2B2CCB242EA0420AA
:100FA00010BD00BFFEE7704770B5002100230F227F
:100FB000C47804B3154C246804F4E064C4F5E06418
:100FC000210AC1F10403CA40447804FA03F1847889
:100FD0001440214309010E4C0678A155047804F011
:100FE0001F050124AC4005786D11AD0005F1E02529
:100FF000C5F8004109E0047804F01F050124AC4065
:10100000044D0678761145F8264070BD0CED00E0E1
:1010100000E400E080E100E002490143024A11607F
:10102000704700000000FA050CED00E0704700007A
:1010300029B1064AD2690243044BDA6104E0034A4B
:10104000D2698243014BDA61704700000010024010
:1010500029B1064A12690243044B1A6104E0034AAB
:1010600012698243014B1A61704700000010024070
:1010700029B1064A92690243044B9A6104E0034A8B
:1010800092698243014B9A61704700000010024050
:1010900029B1064AD2680243044BDA6004E0034AED
:1010A000D2688243014BDA607047000000100240B2
:1010B00030B500210022002400232D4D6D6805F07D
:1010C0000C0121B1042905D0082923D105E0294DBF
:1010D000056022E0274D05601FE0254D6D6805F491
:1010E0007012234D6D6805F48034022505EB9242A1
:1010F0001CB9214D554305600BE01D4D6D6805F48D
:1011000000351DB11C4D5543056002E0194D554396
:10111000056002E0174D056000BF00BF144D6D680B
:1011200005F0F0010909154D6B5C0568DD4045606F
:101130000F4D6D6805F4E061090A104D6B5C456860
:10114000DD4085600A4D6D6805F46051C90A0B4D9C
:101150006B5C4568DD40C560054D6D6805F4404138
:10116000890B074D6B5CC568B5FBF3F5056130BDB8
:101170000010024000127A0000093D0034000020F7
:101180004400002070B504460D465A2008490870F6
:10119000A5204870042088708320C870200A087138
:1011A0004C7108468571072100F01CFC70BD0000E1
:1011B000E009002008B501211C20FFF759FF4FF47A
:1011C0000060ADF8000010208DF8030003208DF8BA
:1011D000020069461048FFF7C7FD4FF400610E4852
:1011E000FFF74FFE8020ADF8000069460B48FFF77F
:1011F000BBFD80210948FFF744FE4FF48040ADF865
:10120000000004208DF8030003208DF802006946D9
:101210000348FFF7A9FD08BD000801400010014088
:10122000000C014000B587B001210420FFF720FF2A
:1012300001214804FFF7FCFE0420ADF81800182037
:101240008DF81B0003208DF81A0006A93648FFF719
:101250008BFD04213448FFF714FE0820ADF8180078
:1012600004208DF81B0006A92F48FFF77DFD022002
:10127000ADF8180010208DF81B0006A92A48FFF7CA
:1012800073FD02212848FFF7FAFD284800F078FC9A
:101290002748006802900020ADF81400ADF80C005B
:1012A000ADF80E000C20ADF812002248007820B1F5
:1012B000012806D002280ED108E00020ADF8100069
:1012C00009E04FF4C060ADF8100004E04FF4806016
:1012D000ADF8100000BF00BF02A9144800F0FAFCEE
:1012E00040F22551114800F02FFC012240F2255117
:1012F0000E4800F0CAFC26208DF8040002208DF86C
:1013000005008DF8060001208DF8070001A8FFF701
:101310004BFE0121054800F026FC0120064908602B
:1013200000F0EAFA07B000BD0008014000440040A8
:101330000C020020100200208401214270B50446F6
:101340000D460120104908600BE000BF80210F48C6
:1013500000F064FC0028F9D014F8011B0B4800F0E1
:101360004CFF281EA5F10101CDB2EED100BF4021F6
:10137000064800F053FC0028F9D001200449087009
:1013800000200149086070BD8401214200440040F2
:1013900023020020704710B500F002F810BD0000D5
:1013A0000CB50020019000903348006840F4803074
:1013B0003149086000BF3048006800F400300090F8
:1013C0000198401C0190009818B90198B0F5A06FE1
:1013D000F1D12948006800F4003010B101200090DC
:1013E00001E0002000900098012843D123480068C4
:1013F00040F01000214908600846006820F0030012
:1014000008600846006840F0020008601A4840681A
:10141000194948600846406848600846406840F4FA
:10142000806048600846406820F47C1048600846A8
:10143000406840F4E81048600846006840F080705A
:10144000086000BF0C48006800F000700028F9D068
:101450000948406820F00300074948600846406892
:1014600040F00200486000BF0348406800F00C00F4
:101470000828F9D10CBD00000010024000200240F5
:10148000042808D14FF0E021096941F004014FF030
:10149000E022116107E04FF0E021096921F0040129
:1014A0004FF0E022116170477047000010B51348FB
:1014B000006840F001001149086008464068104982
:1014C00008400E494860084600680E4908400B492C
:1014D00008600846006820F48020086008464068DC
:1014E00020F4FE0048604FF41F008860FFF753FFB0
:1014F0004FF000600449086010BD00000010024079
:101500000000FFF8FFFFF6FE08ED00E010B5012136
:10151000880700F082F900287ED00121880700F0BA
:101520006DF975480068401C73490860734800688D
:10153000401C724908607248007858B96E480068CB
:101540006421B0FBF1F201FB1200C0B901206D492A
:10155000087014E068480068042810D36A480068DE
:10156000401C6949086008460068022804D1002030
:10157000086001206549087000205F4908605F48E5
:101580000068B0F5FA7F0FDB012061490870002088
:101590005A4908605F480068022805D001F002FC43
:1015A0005D49086001F09EFB5C480078012804D189
:1015B00001F098FB0020594908705948007801282B
:1015C00027D158480068401C564908600846006802
:1015D00055490968884203D380215448FFF74FFCDE
:1015E00053480068401C52490860524800684E4900
:1015F000096808444E49096888420AD880214B4846
:10160000FFF73FFC002046490870464908604849FA
:1016100008603F48007800E06CE001283CD10020E1
:101620003B49087001210803FFF7ACFD022110209F
:10163000FFF7A8FD022141F21000FFF7A3FD0221F0
:1016400041F21200FFF79EFD022141F23400FFF744
:1016500099FD022142F21400FFF794FD022142F2AB
:101660001600FFF78FFD022141F21800FFF78AFDF7
:10167000022143F22A00FFF785FD022143F22C00EC
:10168000FFF780FD022141F21400FFF77BFD0221EC
:1016900043F22E00FFF776FD27480078012829D174
:1016A00026480068401C25490860084600681E4915
:1016B0000968884204D34FF400612148FFF7DFFB3B
:1016C00020480068401C1F4908601A4800681649F5
:1016D000096808441B49096888420BD84FF4006127
:1016E0001748FFF7CEFB0020134908701349086024
:1016F0001449086010BD0000440200202C020020A4
:101700009C000020280200204C020020290200201A
:1017100030020020B40100206400002031020020CB
:10172000D001002034020020AC0100200010014054
:1017300038020020B0010020D10100203C0200202E
:1017400000080140400200207FB505460C460121FB
:101750000846FFF76DFCADF80850ADF804400020D6
:10176000ADF80A00ADF8060001A94FF0804000F086
:1017700071F801221146900700F060F81C208DF8E6
:10178000000000208DF8010003208DF802000120E8
:101790008DF803006846FFF707FC0121880700F079
:1017A00030F87FBD10B50121094800F036F870B15E
:1017B0000121074800F022F80021054800F021F837
:1017C000012004490860044908700449087010BDEC
:1017D000000400408401214216020020250200205E
:1017E00010B50121044800F018F8012803D10121A7
:1017F000014800F003F810BD00080040CA4302820F
:10180000704721B1028842F00102028004E00288A0
:101810004FF6FE731A400280704730B50246002032
:1018200000230024158A05EA0103958905EA0104CD
:1018300013B10CB1012000E0002030BD1AB1838942
:101840000B43838102E083898B43838170478184CA
:1018500070470000002202881D4B98420ED01D4B9D
:1018600098420BD0B0F1804F08D01B4B984205D066
:101870001A4B984202D01A4B984204D14FF68F73FC
:101880001A404B881A43174B984207D0164B984280
:1018900004D04FF6FF431A40CB881A4302808B884E
:1018A00083850B8803850A4B98420BD0094B9842DD
:1018B00008D00E4B984205D00D4B984202D00D4BEC
:1018C000984201D10B7A038601238382704700007E
:1018D000002C01400034014000040040000800409A
:1018E000000C004000100040001400400040014087
:1018F00000440140004801401FB501210220FFF7CC
:1019000097FB1648008800EB80004FF6FF7101EA54
:101910004000ADF8080041F61F40ADF8040000207B
:10192000ADF80A00ADF8060001A90D48FFF792FFD7
:10193000012211460A48FFF781FF1D208DF80000A3
:1019400002208DF8010003208DF8020001208DF89F
:1019500003006846FFF728FB1FBD000012020020AD
:101960000004004010B540F225511B4800F063F917
:1019700098B1194800F03CFCC1B218484278407850
:10198000401C164B5870D81C8154C01E01F05CF9E5
:10199000012802D1104800F009FA40F226610E48F1
:1019A00000F049F9B8B10E4800780D4949788842ED
:1019B0000BD00B4802780078401C094B1870D81CDB
:1019C000815C054800F019FC05E0002240F2266128
:1019D000014800F05AF910BD00380140E30C002026
:1019E000E00B002070B505460E46002400BF0AE05B
:1019F000295D094842784078401C074B5870D81C34
:101A00008154601CC4B2B442F2DB012240F2266170
:101A1000024800F03AF970BDE00B002000380140A8
:101A200070B540F22551184800F005F950B3072170
:101A3000154800F0F3F820B1012402201349087082
:101A400000E00024104800F0D3FBC5B21048008825
:101A500040F2FF71884215DAA4B90E480C49098892
:101A600045540B480088401C0949088001210A4858
:101A7000FFF7C4FE00210848FFF7E9FE01210648F0
:101A8000FFF7BFFE70BD00000044004025020020AB
:101A900014020020E60D00200004004010B540F2C2
:101AA0002551174800F0C7F858B1154800F0A0FBC1
:101AB000C1B2144842784078401C124B5870D81C70
:101AC000815440F226610E4800F0B5F8B8B10E48D6
:101AD00000780D49497888420BD00B48027800788D
:101AE000401C094B1870D81C815C054800F085FB30
:101AF00005E0002240F22661014800F0C6F810BD62
:101B000000480040F7070020F406002070B50546A5
:101B10000E46002400BF0AE0295D0948427840785B
:101B2000401C074B5870D81C8154601CC4B2B4428E
:101B3000F2DB012240F22661024800F0A6F870BDF7
:101B4000F40600200048004010B50022002340F6B3
:101B50006A14A14200D100BF0A1201249440A3B22A
:101B6000DC43048010BD21B1828942F4005282819D
:101B700004E082894DF6FF731A40828170470000AD
:101B800010B504462048844209D101218803FFF79B
:101B90007FFA00214FF48040FFF77AFA32E01B48C9
:101BA000844209D101214804FFF752FA00214FF481
:101BB0000030FFF74DFA25E01548844209D1012194
:101BC0008804FFF745FA00214FF48020FFF740FA20
:101BD00018E01048844209D10121C804FFF738FAFF
:101BE00000214FF40020FFF733FA0BE00A4884424B
:101BF00008D101210805FFF72BFA00214FF48010CE
:101C0000FFF726FA10BD00000038014000440040F4
:101C100000480040004C00400050004002460020B8
:101C2000B1F5007F00D100BF13880B400BB101203C
:101C300000E00020704770B5024600240023002514
:101C4000002040F66A16B14200D100BFC1F3421530
:101C500001F01F03012606FA03F3012D02D1968934
:101C6000334006E0022D02D1168A334001E0968A05
:101C700033400C12012606FA04F41688344013B1DE
:101C80000CB1012000E0002070BDF0B50346002437
:101C900000260025002040F66A17B94200D100BF97
:101CA0001846C1F3421401F01F06012707FA06F592
:101CB000012C01D10C3004E0022C01D1103000E0E5
:101CC00014301AB107682F43076002E00768AF437A
:101CD0000760F0BD2DE9F04786B005460E460024AA
:101CE000A24600BFA1460027B08900B100BF2F4621
:101CF0002C8A4CF6FF700440F08804432C82AC8997
:101D00004EF6F3100440B0883189084371890843C6
:101D10000443AC81AC8A4FF6FF400440B0890443D1
:101D2000AC8201A8FFF7C4F91F48874202D1DDF851
:101D300010A001E0DDF80CA0A88900F4004040B13B
:101D40000AEBCA0000EB0A1031684900B0FBF1F859
:101D500007E00AEBCA0000EB0A1031688900B0FB0B
:101D6000F1F86420B8FBF0F004012009642101FBC4
:101D70001089A88900F4004040B1322000EBC9006E
:101D8000B0FBF1F000F00700044308E0322000EB64
:101D900009106421B0FBF1F000F00F0004432C8126
:101DA00006B0BDE8F0870000003801402DE9F041A1
:101DB00004460027DF4884421BD1DF4800880728FB
:101DC00017DD0020DD4908700CE0DD49DB4A1278A0
:101DD00088180422DBA101F0B7FCD8480078401C29
:101DE000D6490870D44800880838D4490978884210
:101DF000EBDCD64884427DD1D149D04A127888188C
:101E00000522D34901F0A0FC012839D1CC48007A41
:101E1000012804D1CF490870CF49086013E0C848B1
:101E2000007A022806D10020CA4908700220CA4957
:101E3000086008E0C248007A28B90220C549087045
:101E40000320C5490860C3480078C449097888421E
:101E500012D0C048007820B1012806D0022809D14C
:101E600007E0312000F0D0F905E0302000F0CCF997
:101E700001E000E000BF00BFB6480078B749087035
:101E8000AF49AE4A127888180622B54901F05CFCC9
:101E900001281AD1AA48807AB24908600846006829
:101EA000B149096888420CD0A548807A20B1A4497C
:101EB000887A00F0D1F900E000BFAA480068AA497A
:101EC0000860A8480068A84908609D499B4A1278A4
:101ED00088180622A54901F037FC012809D1984944
:101EE000897A974A527A41EA0220FEF78BFBA04991
:101EF000086000E01BE19249904A12788818062297
:101F00009C4901F021FC012809D18D49897A8C4A2C
:101F1000527A41EA0220FEF775FB9749086088492A
:101F2000864A127888180622944901F00DFC01288F
:101F300007D18348007A012803D19148006891496C
:101F400008607F497D4A1278881806228E4901F080
:101F5000FBFB012817D17A48807A8C490860084633
:101F600000688B490968884203D08848006888491E
:101F7000086086480068864908600846006800EBEB
:101F80008000400008606E496C4A1278881806226A
:101F9000804901F0D9FB012817D16948807A7E4930
:101FA0000860084600687D490968884203D07A487D
:101FB00000687A49086078480068784908600846EF
:101FC000006800EB800040000860744800687049B9
:101FD00009680844724908605949584A12788818B3
:101FE0000622704901F0B0FB012818D15448807ACC
:101FF0006D490860084600686C490968884203D04A
:10200000694800686949086067480068674908606E
:102010000846006864380860084600680860484957
:10202000464A127888180622614901F08DFB012882
:1020300032D14348807901282ED15E4908605E483C
:102040000068FEF7E8FA05464FF066325B4BFEF794
:10205000F5FA21D20FE05A495A4A126851F8220083
:1020600059490968FEF77EF85749086055480068E5
:10207000401C54490860534800681028EBDB4FF0BF
:10208000834151480068FEF7F7F850490860002086
:102090004D4908604B4908602949284A1278881838
:1020A00006224B4901F050FB012811D12448807AC7
:1020B000484908600846006847490968884203D0D3
:1020C0004448006844490860424800684249086042
:1020D0001B491A4A127888180622404901F034FB3D
:1020E000012824D10FE036493D4A126851F82200F8
:1020F0003C490968FEF736F83A49086038480068F4
:10210000401C37490860364800681028EBDB4FF068
:10211000834134480068FEF7AFF833490860002077
:10212000304908602E490860012030490860BDE848
:10213000F08100000044004062010020F401002012
:10214000FA080020434D443D0000000000380140E3
:1021500064010020F5010020B4010020F6010020F8
:1021600069010020F8010020A80100206F01002073
:10217000DC01002075010020D80100207B01002037
:10218000640000205801002081010020FC01002093
:10219000AC0100208701002000020020B0010020D7
:1021A0005C0100209F01002004020020CC010020DF
:1021B00093010020C40100205C00002066661040EE
:1021C00060030020E8010020E0010020BC010020A5
:1021D0008D01002008020020C0010020990100208C
:1021E000EC010020E4010020B8010020C80100201B
:1021F00001468888C0F308007047C1F30802828056
:10220000704700BFFEE7000010B5044625201149C5
:10221000087030204870312088702320C870572003
:10222000087143204871532088715220C8713220B0
:1022300008723520487230208872C87208460473CC
:102240002A20487388730D20C87310210148FFF7B6
:1022500075F810BDE61500202DE9F041044604EBA9
:1022600044104500280AFEF779FE0646E8B2FEF75C
:1022700075FE074625201849087030204870312027
:1022800088702320C87057200871442048718871D5
:102290003020C8710872322048723320887238208A
:1022A000C872302008734873322088733320C87393
:1022B00038200874380A48748F74300AC8740E7550
:1022C0002A20487588750D20C87518210248FFF727
:1022D00035F8BDE8F0810000E61500200FB4084B8A
:1022E00010B504A902AA039800F0DEF8044602A97A
:1022F000002000F070FC204610BC5DF814FB0000CC
:10230000D72B000802E008C8121F08C1002AFAD122
:1023100070477047002001E001C1121F002AFBD165
:10232000704700002DE9FF5F82B00021DDE9043035
:10233000020DDDF840B0034318D044F61050A2F26D
:10234000FF3242431514119801281FD0A5EB0B0052
:10235000401C5FEA000A4FF000064E4FDFF838914C
:10236000B046504615D5CAF1000413E01198012477
:102370004AA3012801D16FEA0B010298119AC0E922
:102380000031C0E9024206B0BDE8F09FCBF1000089
:10239000DFE704460021404A491842EB0450CDE9EA
:1023A000001012E0E00707D032463B46404649465F
:1023B000FEF747F88046894632463B4610461946A6
:1023C000FEF73FF806460F466410002CEAD1DDE91F
:1023D0000401DDE90023BAF1000F06DAFEF731F857
:1023E00042464B46FEF72DF805E0FEF79CF84246C4
:1023F0004B46FEF798F804460E460022284BFEF79F
:1024000035F903D84FF0FF30014607E00022254B95
:1024100020463146FDF76EFFFEF76CFA102409E006
:10242000002C0ADB0A220023FEF77EF9039B3032E0
:102430001A55641E50EA0102F2D1641C039AC4F1D9
:1024400011031444119A012A03D0012208430DD12B
:102450000AE0084304D000204FF0110B119072E7FE
:10246000A3EB0B056D1E0DE05B4504DD4FF0000294
:1024700005F1010504E003DA4FF00002A5F10105C2
:10248000002AECD002981199C0E90231C0E9004558
:1024900079E70000000014400000F03F3000000029
:1024A0000000F0430000E03F2DE9FF4F95B09B4650
:1024B0008946064600250FE2252877D100242746C5
:1024C000F84A0121059400E0044316F8013F203B3F
:1024D00001FA03F01042F7D130782A2811D06FF0BA
:1024E0002F033078A0F13002092A16D8059A44F05B
:1024F000020402EB820203EB42021044761C0590B8
:10250000EFE759F8042B0592002A03DA504244F40D
:102510000054059044F00204761C30782E2816D121
:1025200016F8010F44F004042A280DD06FF02F0292
:102530003078A0F13003092B09D807EB870302EBB1
:102540004303C718761CF3E759F8047B761C3078F0
:102550006C280FD006DC4C2817D068280DD06A28CC
:1025600014D104E0742810D07A280FD10DE044F47F
:1025700000140AE044F4801401E044F4401472783A
:10258000824202D104F58014761C761C30786628CD
:102590000BD013DC582877D009DC002875D04528EB
:1025A000F6D04628F4D047281AD19DE118E06328D8
:1025B00035D0642879D0652812D195E1702873D080
:1025C00008DC6728F1D069286FD06E280DD06F28FD
:1025D00006D1B5E073282CD0752875D0782874D032
:1025E0005A46179990476D1C75E1C4F302500228B2
:1025F00009D003280DD0D9F8001004280DD00D60A3
:1026000009F1040967E1D9F80010EA17C1E900529D
:10261000F6E7D9F800100D80F2E70D70F0E719F831
:10262000041B8DF8001000208DF80100EA460120FF
:1026300003E059F804AB4FF0FF3061074FF00001A1
:1026400002D40DE008F101018846B9420FDA804555
:10265000F8DB1AF808100029F4D108E008F10101AC
:1026600088468142FADB1AF808100029F6D105984D
:102670005B46A0EB080721463846179A00F094FA0B
:10268000284400EB080507E04DE029E10DE01AF8C9
:10269000010B5A4617999047B8F10108F7D25B46EB
:1026A00021463846179A13E142E00A220092C4F309
:1026B00002524FF0000A022A08D059F804CB032A2C
:1026C0004FEAEC710AD00DE029E02AE009F1070198
:1026D00021F00702F2E802C1914609E00FFA8CFCF2
:1026E0004FEAEC71042A03D14FFA8CFC4FEAEC71EB
:1026F000002907DA0A460021DCF1000C61EB020137
:102700002D2202E0220504D52B228DF8042001227F
:1027100003E0E20701D02022F7E7904659E00A21C2
:1027200002E010220DE010214FF0000A00910BE0B2
:1027300010224FF0000A44F004040827009203E03E
:1027400008224FF0000A0092C4F30252022A05D078
:1027500059F804CB0021032A08D009E009F1070148
:1027600021F00702F2E802C1914605E01FFA8CFC55
:10277000042A01D10CF0FF0C4FF00008220728D5E5
:10278000702806D0009B83F0100353EA0A0305D09B
:102790000EE040228DF80420012208E05CEA0102EC
:1027A00006D030228DF804208DF8050002229046D4
:1027B000009B83F0080353EA0A030AD15CEA010292
:1027C00001D1620705D530228DF804204FF00108B1
:1027D0007F1E582804D034A003900EA802900DE06C
:1027E00036A0F9E753466046009AFDF79DFF844600
:1027F0000398825C0298401E029002705CEA01001D
:10280000F0D1029806A9081A00F1200A600702D543
:1028100024F4803400E00127574502DDA7EB0A00CD
:1028200000E0002000EB0A01009005984144401AA6
:102830000590E00306D45B462146179A059800F000
:10284000B3F90544002706E001A85A46C05D179970
:1028500090476D1C7F1C4745F6DBE0030CD55B46BB
:102860002146179A059800F09FF9054404E03020AE
:102870005A46179990476D1C0099481E00900029F0
:10288000F5DC08E0029802995A460078491C02914A
:10289000179990476D1CBAF10001AAF1010AF1DC09
:1028A00065E1000009280100303132333435363714
:1028B000383961626364656600000000303132338C
:1028C000343536373839414243444546000000002C
:1028D00000F058F90544761C307800287FF4ECAD00
:1028E00019B02846BDE8F08F620700D4062709F129
:1028F000070222F0070CFCE80223E14603F000483F
:102900005FEA080C02D00FF2702C0DE05FEA045C65
:1029100002D50FF2682C07E05FEAC47C02D00FF208
:10292000602C01E0AFF2700C4FF0FF3823F0004351
:10293000CDF850C065280CD006DC452809D04628C3
:102940001DD047283DD13DE0662818D067287ED1AC
:1029500038E00021112F01DB112000E0781CCDE9C7
:10296000000106A90EA8FFF7DDFCDDE90F010E9AB4
:1029700003910021009207F1010A04914DE04FF00C
:1029800000400097CDE9011006A90EA8FFF7CAFC88
:10299000DDE90F0203920E9B11990022DDF80CA0D5
:1029A0000093049211B9791C00EB010AB7EB0A00FD
:1029B00004D4C0F1FF3007F1010A0490AAEB07002C
:1029C000019044E0012F00DA01270021112F01DDE1
:1029D000112000E03846CDE9000106A90EA8FFF756
:1029E000A1FCDDE90F010E9A0391002104910092F0
:1029F000BA4621070CD40399514500DA8A46BAF148
:102A0000010F05DD009AAAF10101515C302908D0BF
:102A1000B84202DA10F1040F06DA0121CDE9011003
:102A200015E0AAF10101E9E7002805DC0499014459
:102A30000491AAEB000102E0411C514500DD8A46E9
:102A40000499401A401C01904FF00040029020076A
:102A500004D40198504501DBCDF8048000208DF8A6
:102A60004F0002980DF14F07B0F1004F25D02B20F9
:102A70000E9002984FF0020800280CDA40420290B3
:102A80002D200E9007E00A210298FDF737FE303125
:102A9000029007F8011DB8F10001A8F10108F2DC6D
:102AA00002980028EFD1791E0E980870307800F057
:102AB000200040F0450007F8020D12A8C01B00F1ED
:102AC00007081498007800B1012000EB0A01019872
:102AD00001EBE07105984144401A401E0590E00367
:102AE00006D45B462146179A059800F05DF8054428
:102AF0001498007818B15A46179990476D1CE00356
:102B000024D55B462146179A059800F04DF80544F8
:102B10001CE00498002807DBDDE90301884203DD9F
:102B20000098405C179901E0179930205A46904769
:102B3000049805F10105401C04900198401E019085
:102B400004D12E205A46179990476D1CBAF1000106
:102B5000AAF1010ADDDC05E017F8010B5A461799C6
:102B600090476D1CB8F10001A8F10108F4DC5B4648
:102B70002146179A0598ABE62D0000002B000000B7
:102B8000200000002DE9F041044600251E461746AE
:102B9000880404D405E039462020B0476D1C641E2B
:102BA000F9D52846BDE8F0812DE9F041044600251D
:102BB0001E469046C80301D5302700E02027880430
:102BC00004D505E041463846B0476D1C641EF9D572
:102BD0002846BDE8F0810A68531C0B6010707047EE
:102BE0002DE9F04107460C4615461E46DDF81880D3
:102BF00000F016F800F01EF8FDF7E2FE284600F09F
:102C00002FFD384600F06CFD304600F017FD4046C1
:102C100000F002FD204600F02FFDBDE8F08100002D
:102C200010B5012002490860502000F009FA10BDDB
:102C30009001214210B5002002490860502000F0A8
:102C4000FFF910BD9001214210B5044640E0207804
:102C5000401EE11C085C5A2837D12178E01C405CFA
:102C6000A52832D160782178401A08D5607800F51F
:102C700080702178401A401C1849088005E060786F
:102C80002178401A401C15490880144800880B28F8
:102C90000BDB2078401EC1B20B22E01C00F026FAAC
:102CA0002078401C2070012010BD0D480068401C99
:102CB0000B49086008460068B0F5FA6F03DB002096
:102CC0000860607820700020EEE72078401C2070BB
:102CD000207861788842BAD10020E5E762010020BF
:102CE000F00100202DE9F047002501212820FDF703
:102CF0002BFA044601211420FDF726FA8046012113
:102D00002820FDF721FA8146224801682248006800
:102D1000FDF77AFA2049086000211F480068FDF796
:102D2000D9FC02D200201C4908601B480068FDF74E
:102D300072FC064632460B4618A14046FFF7CEFA13
:102D40004146484600F042F90546E9B24046FEF7E2
:102D5000DDFE5A202070A5206070E81CA070822043
:102D6000E0701120207160712A464946A01DFDF7D0
:102D7000D9F9A81DC1B22046FEF734FE404600F046
:102D80008DF9204600F08AF9484600F087F9BDE841
:102D9000F08700008C00002064000020252E3166A2
:102DA0000D0A000070B500F0ABFB7E4908607E495B
:102DB0007C480068FDF798FC71D27C4800680128C7
:102DC00009DA784800687A49086078480068401C49
:102DD0007649086002E00020744908607348006882
:102DE000002876D1724801686E480068FDF70CFA39
:102DF00070490860704801686D480068FDF704FA82
:102E00006E4908606C48016866480068FDF7FCF987
:102E10006B49086069480068FDF7FDFB0446002225
:102E2000684BFDF723FC09D862480068FDF7F3FB07
:102E300004460022634BFDF719FC13D95F48006874
:102E4000FDF7E9FB044600225F4BFDF7F7FB10D8C6
:102E500058480068FDF7DFFB044600225A4BFDF797
:102E6000EDFB06D84F480068534908604D4800689C
:102E700070BD52480068FDF7CEFB04460022514B5E
:102E8000FDF7F4FB0FD84B480068FDF7C4FB044680
:102E900000224C4BFDF7D2FB02D2012001E07BE087
:102EA0000020002819DC45480068FDF7B4FB044603
:102EB0000022454BFDF7C2FB16D83E480068FDF7DF
:102EC000AAFB04460022404BFDF7D0FB02D20120B2
:102ED00001E05EE00020002806DA35480068364947
:102EE000086033480068C3E734480068FDF793FB87
:102EF00004460022334BFDF7A1FB01D2012000E084
:102F0000002000280EDD2B480068FDF784FB0446F6
:102F100000222C4BFDF792FB01D2012000E00020A3
:102F200000281DDA25480068FDF775FB04460022DD
:102F3000254BFDF79BFB01D2012000E0002000287B
:102F400024DA1C480068FDF766FB044600221E4B8D
:102F5000FDF78CFB01D2012000E00020002815DCE9
:102F600017480068FDF757FB21F000410446002296
:102F7000144BFDF763FB02D80F48006878E7094857
:102F800000680D4908600748006871E70A48006852
:102F90006EE7094800686BE70020024908600846B0
:102FA000006865E75000002000004040500100200C
:102FB0006C000020780000207000002074000020C9
:102FC000680000200000E03F0000E0BF30B502468E
:102FD00000200EE0034600EBD3746410A0EB440421
:102FE0001CB90025401CD55403E00B781354401C39
:102FF000491C0B78002BEDD130BD000010B56FF0EF
:103000000400FEF73DFA0A4800680A49B0FBF1F0F7
:10301000094908700846007800EB4001C1EBC01078
:103020004FF6FF7101EAC0000449088010BD00009E
:103030000000002000127A00480000204A00002012
:103040000146114A12884A434FF0E0235A61002298
:103050009A611A46126942F001021A6100BF4FF0EC
:10306000E022106900F001021AB100F48032002A57
:10307000F5D04FF0E022126922F001024FF0E02378
:103080001A6100229A6170474A000020002002491C
:1030900081F8000270470000F003002010B50028FE
:1030A00021D0114B0022001F196803E0814203D890
:1030B0000A4649680029F9D152B11368841A9C4222
:1030C00004D1006818441060104602E0506000E02F
:1030D000186039B102680B1A934203D10B681A4485
:1030E00002604968416010BD5002002030B50346BF
:1030F00000200AE00C464D1CE9B21C5D044D2C5426
:10310000FF2900DD0021441CE0B29042F2DB30BD1B
:10311000FA0800202DE9F84F00BFD54800680128C3
:10312000FBD000F063FAD349086008460168D24832
:10313000D24A126840F82210D0480068401CCF499B
:10314000086008460068102804D1002008600120AB
:10315000CB490860CA480068012871D10020C949DC
:10316000086059E0C448C749096850F82110024670
:10317000C4480068401C52F8200081421DDD114601
:10318000C0480068401C51F82010BE480068801CF0
:1031900052F82000814210DA1146BA480068401CFB
:1031A00051F82010B848B94A126840F82210B748C0
:1031B0000068401CB549086029E0AF48B14909687A
:1031C00050F821100246AF480068401C52F8200019
:1031D00081421CDA1146AB480068401C51F82010AF
:1031E000A8480068801C52F8200081420FDD11467B
:1031F000A4480068401C51F82000A549A54A12685F
:1032000041F82200A3480068401CA24908609D487C
:103210000068401C9B4908609A4800680E28A1DBA2
:103220009A480068022803DD9A480068022854DCA6
:103230000020994908603EE00020984908602DE090
:1032400012E1974B954A1268521C53F822101A4605
:10325000924B1B6852F82300FDF746FA19D28648B4
:103260008E49096850F821008E49086082498B48D0
:103270000068401C51F820107F48884A126840F8C6
:10328000221088487C4A016884480068401C42F843
:10329000201082480068401C804908607E48006811
:1032A000C0F120007D4909688842CADC7A4800687C
:1032B000401C79490860784800681028BCDB6E48DB
:1032C00000686D49C96B084477490860086800EBDD
:1032D000D0714910754A11604CE06C4800686D4926
:1032E0000968884204DA694800687149086003E0A7
:1032F000684800686E4908600020644908600EE074
:1033000061486249096850F821006A49096808441F
:10331000684908605D480068401C5C4908605B487B
:103320000068634909688842EADB0020594908605F
:103330000EE057485749096850F821005E4909686E
:1033400008445D49086053480068401C51490860C2
:1033500050480068564909688842EADB56480068C8
:1033600054490968084452490968490090FBF1F042
:103370004E4908604D490968A1F50000FDF742F982
:103380000090FDF748F9064600224C4BFDF759F82E
:10339000804600224A4BFDF754F804460022494B70
:1033A000FDF7C1F88246FDF779F9474908600846FC
:1033B00000684649464A126841F8220044480068BD
:1033C000401C4349086008460068102804DB0020C0
:1033D000086001203F4908603F48006801281BD170
:1033E0003E48016838480068FCF70EFF05463B4838
:1033F00001683B480068FCF707FF0646314639483C
:10340000FCF73AFF04462946FCF704FF36490860FA
:1034100000203149086012E02B480068FDF7FBF8F6
:103420008046324A324BFDF70CF80646314A324BA1
:10343000FDF701F80446FDF731F92B49086000203B
:103440000F4908600F490860124908600F49086079
:10345000184908601849086015490860274908603C
:1034600011490860114908601F480068BDE8F88FDD
:1034700018012142B000002020030020B8000020E5
:10348000C0000020BC000020C8030020E000002095
:10349000A0030020DC000020F8000020FC00002039
:1034A0005802002000010020D8000020CC0000209D
:1034B000E4000020D0000020D400002000001440D0
:1034C00000408F400000D0415C00002060030020DD
:1034D000EC000020F0000020C8010020BC0100200A
:1034E000B80100200000FA44580000205A643BDF75
:1034F000CFD1A540713D0AD703E8C540F4000020B4
:1035000010B50548016805480068FCF77DFE0449D0
:1035100008600846006810BD5801002054000020D3
:103520004C01002008B5FDF7C1FFFFF767FD4FF420
:10353000A060FDF771FDFDF775FE4FF4165000F029
:10354000BFF9FDF737FEFFF7A1FDFFF757FD4FF479
:10355000E13000F00BF94FF4E13000F05BF931217C
:1035600040F2CF20FEF7F0F80020034602220321AC
:1035700000900846FFF734FBFDF72AFB00BFFEE78B
:10358000F0B50B30154D20F007010024144A0FE070
:1035900003688B420BD38B4205D95E1A43184768E8
:1035A000C3E9006700E04368136002C004E0021D45
:1035B00010680028ECD12046002802D1286808B104
:1035C0000020F0BD064A07481060074A121A22F090
:1035D0000702C0E9002401202860D7E75402002038
:1035E00050020020EC1D0020E81F002000200021D8
:1035F0000BE00022064B1A604000064AD2F8182160
:10360000104301221A604A1CD1B21829F1DB70471D
:10361000940121420000214218B90121064A11609B
:1036200008E0012803D10021034A116002E00121D2
:10363000014A1160704700008001214218B9002141
:10364000064A116008E0012803D10121034A1160F4
:1036500002E00021014A116070470000800122420F
:10366000012803D10021034A116002E00121014A2F
:10367000116070478401224230B101280BD002282A
:1036800011D003281ED116E00021134A1160134AFD
:10369000C2F88C111DE001210F4A116000210F4A70
:1036A000C2F88C1115E000210B4A116001210B4A70
:1036B000C2F88C110DE00121074A1160074AC2F8D7
:1036C0008C1106E00021044A1160044AC2F88C11F2
:1036D00000BF00BF70470000880122420000224264
:1036E00030B101280BD0022811D003281ED115E0DB
:1036F0000121134A1160134AC2F894111EE00021FF
:103700000F4A116001210F4AC2F8941116E00021FE
:103710000B4A11600B4AC2F894110FE00121084ACC
:1037200011600021074AC2F8941107E00021044A01
:1037300011600121034AC2F8941100BF00BF704715
:10374000808121420000224230B503460C46002110
:1037500007E0585C655CA84201D0002030BD481CE1
:10376000C1B29142F5DB0120F8E7000010B586B048
:103770000446012144F20400FDF77AFC2348FEF7D9
:10378000FFF94FF40070ADF8140003208DF8160017
:1037900018208DF8170005A91D48FDF7E5FA4FF42C
:1037A0008060ADF8140004208DF8170005A91848B2
:1037B000FDF7DAFA25208DF8000003208DF80100CE
:1037C0008DF8020001208DF803006846FDF7ECFB40
:1037D00001940020ADF80800ADF80A00ADF80C0027
:1037E000ADF810000C20ADF80E0001A90748FEF757
:1037F00071FA012240F225510448FEF746FA0121F0
:103800000248FEF7B0F906B010BD000000380140D4
:103810000008014010B586B0044601218804FDF778
:1038200007FC01212820FDF723FC2348FEF7A8F917
:103830004FF48060ADF8140003208DF816001820B6
:103840008DF8170005A91D48FDF78EFA4FF40060AA
:10385000ADF8140004208DF8170005A91748FDF7EE
:1038600083FA27208DF8000003208DF801008DF8E1
:10387000020001208DF803006846FDF795FB0194D6
:103880000020ADF80800ADF80A00ADF80C00ADF866
:1038900010000C20ADF80E0001A90748FEF71AFA37
:1038A000012240F225510448FEF7EFF901210248B8
:1038B000FEF759F906B010BD00480040000C014069
:1038C00010B586B00446012144F20400FDF7D0FB98
:1038D0000420ADF8140003208DF8160018208DF890
:1038E000170005A91B48FDF73FFA0820ADF81400A2
:1038F00004208DF8170005A91648FDF735FA252094
:103900008DF8000003208DF801008DF802000120E1
:103910008DF803006846FDF747FB01940020ADF8E1
:103920000800ADF80A00ADF80C00ADF810000C204E
:10393000ADF80E0001A90848FEF7CCF9012240F2CB
:1039400025510548FEF7A1F901210348FEF70BF9BF
:1039500006B010BD00080140004400407C3900085A
:10396000000000205802000068090008DC39000847
:103970005802002090210000142300081184A24A5C
:1039800004C0090102030406070809021701292CD3
:103990006930053402040608295C09166001CC1060
:1039A0000A5AA50683105AA5088339064A10063A12
:1039B00012172A340C3B2014063A16182A18183B02
:1039C000302A063A2C120251140215024380259225
:0C39D000043601030CC1010233080000A2
:04000005080000ED02
:00000001FF
