:020000040800F2
:10000000A0200020050100084D0E0008190E000870
:100010004B0E00087D0A0008991D00080000000032
:10002000000000000000000000000000B9110008FE
:100030007F0A000800000000C90E00087D120008B9
:100040001F0100081F0100081F0100081F01000810
:100050001F0100081F0100081F0100081F01000800
:100060001F0100081F0100081F0100081F010008F0
:100070001F0100081F0100081F0100081F010008E0
:100080001F0100081F0100081F0100081F010008D0
:100090001F0100081F0100081F010008A50A000831
:1000A0001F0100081F0100081F0100081F010008B0
:1000B000D1120008111500084D1500081F01000895
:1000C0001F0100081F0100081F0100081F01000890
:1000D0001F010008C116000871170008E917000881
:1000E000810A00081F0100081F010008DFF810D076
:1000F00000F02CFC00480047512D0008AFF30080B1
:10010000A02000200648804706480047FEE7FEE79B
:10011000FEE7FEE7FEE7FEE7FEE7FEE7FEE7FEE7B7
:1001200081120008ED00000840EA01039B0703D09C
:1001300009E008C9121F08C0042AFAD203E011F826
:10014000013B00F8013B521EF9D2704710B54843FD
:10015000044602F02BFE002805D00021002C02D01E
:10016000641E0155FAE710BDF0B480EA0102D40F15
:100170004200B2EB410F02D20246084611464A0045
:1001800042D0C30DDDB2C1F3C752AD1A202D35DA0E
:10019000C1F3160141F4000204B15242C5F1200638
:1001A00002FA06F12A411044B3EBD05F23D0C4B168
:1001B000012DA0EBC35009DCF0BC4FF0004202EA75
:1001C000C352DBB200F5000000F095BA400000F128
:1001D000807000EBC350A0F1807040EAD1704900FC
:1001E00009E0490841EAC071A0EBC35000F50000E6
:1001F000400800EBC350F0BC00F074BA6142012229
:1002000002EB4101001BF6E7F0BC704781F00041B2
:10021000AAE780F00040A7E780EA010210B502F0EB
:100220000043400022D04A001FD0010E01EB1261B2
:10023000C0F35600C2F3560240F4000042F400023C
:10024000A0FB022000047F39140400D0401C50EAB7
:10025000124001D44000491EC2B20C0604EBD0107B
:10026000401C4008802A02D003E0002010BD20F08E
:100270000100002900DA0020184310BD30B480EAE4
:10028000010202F0004530F0004221F0004013D09E
:1002900090B1C30DD40DC2F31601C0F31600E41AD9
:1002A00041F4000140F400027D34914201D3641C0A
:1002B00000E04900002C02DA30BC002070474FF407
:1002C00000000023914201D3891A034340084FEAFA
:1002D0004101F7D151B1914202D14FF0004105E007
:1002E00002D24FF0010101E06FF0010103EBC450B5
:1002F000284430BC00F0F6B9420005D0C0F3C75224
:100300005242914201DC0020704700EBC15070471F
:100310002DE9FE4F804681EA0300C00F0C46009095
:1003200021F0004123F00045B8EB0200A94105D2BD
:100330004046214690461C460B46024623F00040AC
:10034000104347D0270DC7F30A00C3F30A510290A8
:10035000401A019040286BDAC3F3130040F4801B6D
:100360000098924620B10023D2EB030A63EB0B0BFB
:1003700001985946C0F14002504600F092F90646F5
:100380000D4650465946019A00F09AF910EB0800C4
:100390006141002487EA115284EAE7731A4340D08E
:1003A000009A62B3019A012A4FEA075215DC001B3A
:1003B00061EB02014FF0004202EA0752CDE9004230
:1003C000001C41F5801132462B4600F0D1F903B0F4
:1003D000BDE8F08F40462146F9E7001B61EB0201C2
:1003E000001C41F5801300185B412018A2F500178E
:1003F00047EB030140EAD570B6196D4111E06D0875
:100400004FEA360645EAC0754FEA0752001B61EB1A
:100410000201001C41F5801149084FEA3000001923
:10042000514132462B4603B0BDE8F04F00F091B980
:100430000098012240000023D0EB020263EBE0733E
:10044000009821464FEAE074B8EB000061EB04012C
:10045000E9E783F000435BE781F0004158E72DE9CD
:10046000FE4F81EA030404F0004421F000410094AF
:100470004FF0000B23F0004350EA01045ED052EA33
:1004800003045BD0C3F30A54C1F30A552C44A4F20D
:10049000F3340194A0FB0254C1F3130141F4801121
:1004A000C3F3130343F4801301FB024400FB034E28
:1004B000840A970A44EA815447EA8357A4FB0768F1
:1004C00002958D0A05FB07854FEA932C04FB0C541B
:1004D0002705029D4FEA065847EA1637B5EB08058F
:1004E0006EEB070C870E920E47EA811742EA8312E1
:1004F000A7FB0201B6EB0B0164EB00042B0D43EAF2
:100500000C335E1844EB1C50DA465146E7FB0201FF
:10051000C5F313044FEA0B3343EA14534FEA043292
:10052000019C43EA0603A4F10C040294009CCDE96B
:1005300000B400F01DF903B0BDE8F08F00200146C3
:10054000F9E770B521F0004303430CD0C1F30A551D
:100550000024D5EB040564EB0403D617AD1AB341B0
:1005600002DB0020014670BD201841EB025170BD36
:10057000C10F80EAE0700844CA079623002100F00A
:10058000BAB896230022114600F0B5B800F0004238
:1005900030F000400AD0C10D01F56071C0F31600C3
:1005A00042EA0151C208400711437047002001464A
:1005B000704701F0004330B421F0004150EA0102DD
:1005C00006D00A0DA2F56072C1F31301002A02DC05
:1005D00030BC00207047440F44EAC104C100E01859
:1005E00030BC00EBC25000F07DB80000002801DBF9
:1005F000C0F10040002901DBC1F100418142704798
:10060000002801DBC0F10040002901DBC1F10041FD
:100610008842704730B50B46014600202022012455
:1006200009E021FA02F59D4205D303FA02F5491BC0
:1006300004FA02F52844151EA2F10102F1DC30BDD6
:100640002DE9F05F0546002092469B468846064607
:10065000814640241BE0284641464746224600F09A
:1006600087F953465A46C01A914110D3114618468D
:10067000224600F016F82D1A67EB01084F46224675
:100680000120002100F00DF817EB00094E41201E5B
:10069000A4F10104DFDC484631462A464346BDE862
:1006A000F09F202A04DB203A00FA02F10020704774
:1006B0009140C2F1200320FA03F3194390407047A0
:1006C000202A06DBCB17203A41FA02F043EAE07316
:1006D00006E041FA02F3D040C2F120029140084303
:1006E000194670470029A8BF7047401C490008BF41
:1006F00020F00100704710B4B0FA80FC00FA0CF052
:1007000050EA010404BF10BC704749B1CCF1200489
:1007100021FA04F411FA0CF118BF01212143084316
:10072000A3EB0C01CB1D4FEA00614FEA102042BF42
:10073000002010BC704700EBC35010440029A4BF38
:1007400010BC7047401C490008BF20F0010010BCDD
:10075000704710B5141E73F1000408DA401C41F113
:10076000000192185B411A4301D120F0010010BD35
:100770002DE9F04D92469B4611B1B1FA81F202E0AB
:10078000B0FA80F220329046FFF78BFF04460F4606
:1007900040EA0A0041EA0B0153465A46084313D087
:1007A000114653EA010019D0C8F14002504600F04A
:1007B000DFF805460E46504659464246FFF771FFA0
:1007C000084305D0012004E020463946BDE8F08DFD
:1007D0000020054346EAE0762C4337430A98630538
:1007E000E40AA0EB08000022FD0A44EA47540A305C
:1007F00002D500200146E9E7010510196941DDE94C
:10080000084500196941BDE8F04DA2E72DE9F04D1A
:1008100081EA030404F0004B21F0004514464FF038
:10082000000A23F0004150EA050220D054EA0102F8
:100830001DD0C5F30A570246C5F31303C1F31300D5
:10084000C1F30A5640F4801543F48013A7EB060861
:10085000101BD64608F2FD3873EB050002D308F1F1
:10086000010801E092185B41B8F1000F03DA0020A3
:100870000146BDE8F08D00204FF480110646844605
:100880000EE0171B73EB050705D3121B63EB050383
:1008900006434CEA010C49084FEA300092185B41CC
:1008A00050EA0107EDD152EA030012D082EA0400B7
:1008B00083EA0501084305D0101BAB4106D2012293
:1008C000002306E000224FF0004302E06FF0010237
:1008D00053101AEB06004CEB085110EB0A0041EBE9
:1008E0000B01BDE8F04DFFF734BFC1F30A52C1F36D
:1008F000130140F2FF3341F480119A4202DA0020E2
:100900000146704740F233439A42A2F2334202DC7E
:10091000524200F02DB8FFF7C4BE000030B5041EEF
:1009200071F1000404DB4FF00044404264EB01012C
:10093000141E73F1000405DB1C464FF000435242C5
:1009400063EB0403994208BF904230BD064C074D4B
:1009500006E0E06840F0010394E80700984710348F
:10096000AC42F6D3FFF7C6FB183100083831000857
:10097000202A04DB203A21FA02F00021704721FAF4
:1009800002F3D040C2F1200291400843194670475B
:1009900070B58C1810F8015B15F0070301D110F841
:1009A000013B2A1106D110F8012B03E010F8016B6E
:1009B00001F8016B5B1EF9D12B0705D40023521EF1
:1009C0000DD401F8013BFAE710F8013BCB1A921C59
:1009D00003E013F8015B01F8015B521EF9D5A14257
:1009E000D8D3002070BD0000F8B50121042000F02C
:1009F00085FA0121082000F081FA0121102000F081
:100A00007DFA3120ADF800001025184E8DF8035006
:100A100003248DF802406946304600F071F9402009
:100A2000ADF8000004208DF803008DF802406946FF
:100A3000304600F065F92F20ADF800008DF8035026
:100A40008DF8024069460A4800F05AF90126ADF8CF
:100A500000608DF803508DF802406946054800F0AB
:100A60004FF90548C0F89461F8BD00000008014046
:100A700000100140000C014000002142FEE77047D9
:100A800010B54FF48044204600F0DEF810B1044960
:100A9000012088602046BDE8104000F0CFB800007B
:100AA000140000202DE9F05F402000F0CDF850B395
:100AB000344F01243C7002F02DF8334906460025DE
:100AC000086032483249DFF8CCB005607868DFF85A
:100AD000C880401C78600968022903D1B968BA4609
:100AE000012915D0B0F57A7F0DDD5E46CBF8804147
:100AF0003D7000F057F9C8F800003C70C6F880510E
:100B0000264805707D60BDE8F05F402000F096B893
:100B100023480068FFF72CFD814647463046D8F849
:100B20000010FFF773FB4946FFF71EFBDFF87490D8
:100B3000D846C9F800001C480470CBF880415646DE
:100B40008AF8005000F02EF938603470C8F88051EF
:100B500012484F460570D9F80000B0F1804F06DD0D
:100B600012490968FFF742FD01D21148047011488B
:100B700001683868FFF744FD01D20F480470B56082
:100B8000C1E7000014000020BC000020CC000020C1
:100B9000000100200000224254000020D00000206C
:100BA00018010020C8000020B00100202001002012
:100BB0009D0100201C0100209E010020FEB50121A6
:100BC000084600F09BF90621002000F085F800257A
:100BD00040208DF804500C2700908DF805700124FA
:100BE0008DF80640684600F03FF817208DF80800A1
:100BF00002268DF809608DF80A508DF80B4002A886
:100C000000F026F90E21012000F066F8A0038DF80F
:100C1000045000908DF805708DF80640684600F08D
:100C200023F828208DF808008DF809608DF80A4017
:100C30008DF80B4002A800F00BF9FEBD01490860D9
:100C40007047000014040140064A01460020126863
:100C5000044B0A4014331B680B4202D0002A00D018
:100C6000012070470004014030B51A4A83790168B9
:100C700053B313688B431360111D0B680468A343BF
:100C80000B60017911440B68046823430B60114B1E
:100C9000083319680468A14319601C1D21680568A0
:100CA000A94321604179102905D011440A680068E0
:100CB00002430A6030BD1968026811431960216857
:100CC00000680143216030BD0079104402688A4306
:100CD000026030BD0004014010B58A0721F0030412
:100CE0000649120F21440F238C6893409C438C606B
:100CF0008B68904003438B6010BD000000000140F2
:100D0000F0B5CC78002204F00F03E40601D58C780E
:100D100023430C784FF00F0C14F0FF0F4FF0010E2F
:100D20001BD005680E880EFA02F42640A64210D1A8
:100D300096000CFA06F725EA070703FA06F5CE78BF
:100D40003D43282E02D0482E02D002E0446100E04C
:100D50000461521C082AE5D305600A88FF2A1CD9C1
:100D60004468002202F108060EFA06F50E882E40AD
:100D7000AE420ED196000CFA06F7BC4303FA06F712
:100D8000CE783C43282E00D14561CE78482E00D144
:100D90000561521C082AE5D34460F0BD41617047EB
:100DA0000161704710B5642001F05AFE02F034F87A
:100DB000114CE062A0F50000FFF7DAFB0F49FFF7E6
:100DC0005DFA0F49FFF722FA0E49FFF71FFAFFF706
:100DD000DDFB0D4A0D4BFFF742FBFFF7EAFBFFF788
:100DE000D5FB0B4A0B4BFFF73AFBFFF7E2FB002169
:100DF000A161206310BD00003800002000F02F45E5
:100E0000008088430000E041809F71E14048263F18
:100E10005C8FC2F5A862A640FEE7010900F00F0052
:100E2000092901D8303104E0A1F10A02052A00D8CD
:100E30003731092801D8303004E0A0F10A02052A30
:100E400000D8373040EA01207047FEE770470000C5
:100E500030B50F23C27801780125F2B1144A126827
:100E600001F1E02102F4E062C2F5E062120AC2F18F
:100E70000404D3404278A24084781C4014432201E9
:100E800081F80024007800F01F018D4040098000A7
:100E900000F1E020C0F8005130BD01F01F00854096
:100EA0004809800000F1E020C0F8805130BD00000A
:100EB0000CED00E002490843024908607047000059
:100EC0000000FA050CED00E070470000044A00291C
:100ED000D16901D0014300E08143D1617047000036
:100EE00000100240044A0029116901D0014300E0CA
:100EF000814311617047000000100240044A00293C
:100F0000916901D0014300E0814391617047000085
:100F100000100240044A0029D16801D0014300E0DA
:100F20008143D160704700000010024030B5204A74
:100F30005168204B11F00C0103D0042901D008297D
:100F400001D0036012E05168536801F470114FF052
:100F5000020413F4803F04EB914102D053689B03D9
:100F600001D5154B00E0134B5943016051680F2325
:100F700003EA1111114B5C5C0168E1404160546867
:100F8000072505EA14241C5D21FA04F484605468E2
:100F900005EAD4241B5DD940C1605268032303EAEB
:100FA0009232064B1B1F9A5CB1FBF2F1016130BD1E
:100FB0000010024000127A0000093D0024000020C9
:100FC000084A5A231370A523537004239370832374
:100FD000D370030A1371507191710721104600F00C
:100FE000ADBB000098070020F8B501211C20FFF7D9
:100FF00085FF4FF40064ADF8004010208DF8030029
:10100000124E03258DF8025069463046FFF778FEF0
:1010100021463046FFF7C4FE80200D4CADF800009D
:1010200069462046FFF76CFE80212046FFF7B8FE98
:101030004FF48040ADF8000004208DF803008DF8D7
:10104000025069460348FFF75BFEF8BD0008014007
:1010500000100140000C014070B586B00121042051
:10106000FFF74CFF01214804FFF730FF0424ADF8DF
:10107000104018208DF813000320354D8DF8120014
:1010800004A92846FFF73CFE04212846FFF788FE06
:101090000820ADF810008DF8134004A92846FFF78A
:1010A0002FFE0224ADF8104010208DF8130004A983
:1010B0002846FFF725FE02212846FFF76FFE254D43
:1010C000284600F0F3FB2448002281680091ADF827
:1010D00004200C21ADF80C20ADF80620ADF80A1064
:1010E000017821B1012905D002290AD105E0ADF826
:1010F000082006E04FF4C06001E04FF48060ADF8D6
:1011000008006946284600F049FC40F22556314661
:10111000284600F0BBFB01223146284600F026FCA1
:1011200026208DF814008DF815408DF81640012406
:101130008DF8174005A8FFF78BFE0121284600F027
:10114000ABFB0648C0F8844100F084FA06B070BDDD
:101150000008014000440040A0010020000021429E
:101160002DE9F041DFF8448001270C460546C8F818
:1011700084710F4E0AE08021304600F0D1FB002838
:10118000F9D015F8011B304600F002FE641EE4B2EF
:10119000F1D24021304600F0C3FB0028F9D00548C9
:1011A00000218770C8F88411BDE8F0810000214259
:1011B00000440040A0010020704700000CB5002250
:1011C000264800920192016841F4803101604FF499
:1011D000A063016801F4003101910099491C00915C
:1011E000019911B900999942F3D10168890333D566
:1011F000012101911A490A6842F010020A600A6846
:1012000022F003020A600A6842F002020A604168A2
:10121000416041684160416841F4806141604168DA
:1012200021F47C114160416841F4E811416001689A
:1012300041F08071016001688901FCD5416821F0AD
:1012400003014160416841F0020141604168C1F31E
:1012500081010229FAD10CBD01920CBD001002409F
:10126000002002404FF0E0210428086903D020F05C
:1012700004000861704740F00400FAE7704700007E
:101280000F4810B5016841F00101016041680D4A45
:101290001140416001680C4A11400160016821F46D
:1012A00080210160416821F4FE0141604FF41F017B
:1012B0008160FFF783FF05494FF00060086010BDB3
:1012C000001002400000FFF8FFFFF6FE08ED00E00E
:1012D0002DE9F05F01218C07204600F056F9002827
:1012E0007DD00121204600F043F9684D684A01266F
:1012F000E869401CE861A968491CA96012780024CB
:101300003AB1042810D3286A401C2862022808D069
:1013100009E06422B0FBF2F302FB130020B92E7047
:1013200002E02C626E70EC61B1F5FA7F0BDB59487C
:10133000EE70AC600068022805D001F005FB56494C
:10134000086001F0ABFA2879012802D101F0A6FA71
:101350002C71DFF84881DFF84891524F98F800006F
:1013600001281CD1E868DFF840A1401CE86039681A
:10137000884203D380215046FFF710FD2869401CA6
:101380002861D9F800103A681144814207D88021B9
:101390005046FFF705FD88F80040EC602C61DFF84F
:1013A0000C8198F80000012820D16869DFF800B1AD
:1013B000401C686139684FF4006A884203D3514683
:1013C0005846FFF7EBFCA869401CA861D9F800104B
:1013D0003A681144814209D85146584600E052E02B
:1013E000FFF7DEFC88F800406C61AC61E87801280A
:1013F00049D1EC7001210003FFF7E2FD022110202A
:10140000FFF7DEFD022142F22000FFF7D9FDA878A8
:1014100078B9AE70022141F21000FFF7D1FD022130
:1014200041F21200FFF7CCFD022141F21400FFF758
:10143000C7FD022141F23400FFF7C2FD022142F252
:101440001400FFF7BDFD022142F21600FFF7B8FDC0
:10145000022141F21800FFF7B3FD022143F22A00F6
:10146000FFF7AEFD022143F22C00FFF7A9FD43F286
:101470002E0402212046FFF7A3FD2046BDE8F05FC1
:101480000221FFF79DBDBDE8F09F0000AC010020E8
:101490003800002000010020C80000209D0100202D
:1014A000FC000020F8000020001001409E010020F8
:1014B000000801407FB50D46044601210846FFF7AC
:1014C00005FDADF80440ADF8005000244FF0804514
:1014D000ADF80640ADF802406946284600F06CF8C9
:1014E00001221146284600F05CF81C218DF80C10F2
:1014F0008DF80D4003208DF80E0001208DF80F00AF
:1015000003A8FFF7A5FC0121284600F034F87FBDB1
:1015100010B50B4C0121204600F037F800280ED002
:101520000121204600F024F80021204600F023F895
:1015300004490120C1F8840103494870C87010BDF6
:101540000004004000002142A001002010B5074C1B
:101550000121204600F019F8012805D12046BDE8F8
:101560001040012100F004B810BD00000008004048
:10157000C943018270470029018802D041F001016E
:1015800001E021F001010180704702460020138A2A
:1015900092890B4202EA010202D0002A00D0012007
:1015A0007047002A828901D00A4300E08A43828181
:1015B000704781847047000030B502881B4C1C4D79
:1015C000A0420DD0A8420BD0B0F1804F08D0194BEB
:1015D000984205D0184B984202D0184B984203D13C
:1015E00022F070034A881A43154B984206D0154BD7
:1015F000984203D022F44073CA881A4302808A8832
:1016000082850A880285A0420AD0A84208D00E4AE4
:10161000904205D00D4A904202D00D4A904201D12D
:10162000097A01860121818230BD0000002C014031
:10163000003401400004004000080040000C00405D
:1016400000100040001400400040014000440140F0
:10165000004801401FB501210220FFF737FC164862
:101660004FF6FF71154C808800EB800001EA4000C6
:10167000ADF8040041F61F40ADF800000020ADF8C1
:101680000600ADF8020069462046FFF795FF0122EB
:1016900011462046FFF785FF1D208DF80C00022023
:1016A0008DF80D0003208DF80E0001208DF80F003D
:1016B00003A8FFF7CDFB1FBDA001002000040040E0
:1016C00070B51B4C40F22551204600F030F988B12E
:1016D000204600F059FB1749CA1C4B7898544878AB
:1016E000401C4870084601F0A1F8012802D12046AC
:1016F00000F0AAF940F226652946204600F017F9C5
:10170000002814D00C48027841788A4208D0C11CC5
:10171000515C521C02702046BDE8704000F038BB9E
:1017200029462046BDE87040002200F01FB970BD78
:10173000003801409B09002098080020F0B40A4BB3
:101740000022DD1C07E05E78845C74555C78641CC4
:10175000521C5C70D2B28A42F5D3F0BC012240F236
:101760002661024800F002B99808002000380140C4
:1017700070B5194E40F22551304600F0D8F80028D7
:1017800028D00721304600F0CBF8144D18B10124C1
:101790000220E87000E00024304600F0F5FAC1B203
:1017A000E88840F2FF72904214D2002C12D10C4A09
:1017B0000C4C1154401CE88001212046FFF7D8FE54
:1017C00000212046FFF7F5FE2046BDE870400121CC
:1017D000FFF7D1BE70BD000000440040A001002012
:1017E0009E0A00200004004070B5184C40F22551BC
:1017F000204600F09CF850B1204600F0C5FA14498C
:101800000246C81C4B781A544878401C487040F275
:1018100026652946204600F08AF8002814D00D4895
:10182000027841788A4208D0C11C515C521C027077
:101830002046BDE8704000F0ABBA29462046BDE81E
:101840007040002200F092B870BD000000480040D7
:10185000AF050020AC040020F0B40A4B0022DD1CD0
:1018600007E05E78845C74555C78641C521C5C7084
:10187000D2B28A42F5D3F0BC012240F2266102487E
:1018800000F074B8AC040020004800400A0A0121AE
:101890009140C943018070470029818902D041F4F9
:1018A000005101E021F4005181817047174910B5C2
:1018B00088420AD101218C032046FFF72BFB2046EA
:1018C000BDE810400021FFF725BB1149884202D135
:1018D00001214C0410E00F49884202D101218C04FF
:1018E0000AE00D49884202D10121CC0404E00B49F1
:1018F00088420AD101210C052046FFF7F3FA204661
:10190000BDE810400021FFF7EDBA10BD00380140DE
:101910000044004000480040004C0040005000409F
:101920000246002012880A4200D00120704770B59C
:1019300001F01F0501260024C1F3421306FA05F247
:10194000012B0FD0022B0FD0838A4FEA1121008880
:10195000134206FA01F600EA060001D000B10124A4
:10196000204670BD8389F0E7038AEEE710B5C1F326
:10197000421301F01F040121A140012B07D0022BCB
:1019800007D01430002A026805D00A4304E00C3066
:10199000F8E71030F6E78A43026010BD30B5044620
:1019A000008A85B00D464CF6FF710840E988014376
:1019B0002182A0894EF6F3110840A9882A89114393
:1019C0006A8902431143A181A08A4FF6FF41084072
:1019D000A9890143A1826846FFF7A8FA1948844201
:1019E00001D1039800E00298A189090400EBC0012D
:1019F00001EB0010296801D5490000E08900B0FB27
:101A0000F1F06422B0FBF2F109010B096FF0180547
:101A10006B4300EB8300A3891D044FF0320306D50E
:101A200003EBC000B0FBF2F000F0070005E003EBB1
:101A30000010B0FBF2F000F00F000843208105B069
:101A400030BD0000003801402DE9F0470746C4488A
:101A50000026C44CC44D874211D1A08807280ED956
:101A6000267007E028440422C0A101F04FFA207834
:101A7000401C2070A188207808398842F2DBBD48DC
:101A800087427DD12078B749284405227C3101F076
:101A90003DFA4FF00108012820D1287A012804D00E
:101AA0000221022805D038B109E0404684F80180BF
:101AB00004E06670E16202E061700320E062607839
:101AC000A178884208D010B1012805D101E0312069
:101AD00000E0302000F062F96078A0702078A14921
:101AE00028440622813101F011FA01280BD1A87A8D
:101AF0006066216A884204D008B100F073F9606E14
:101B00002062606E20622078964928440622873140
:101B100001F0FCF901280AD1B5F8090040BAFEF736
:101B200030FD0146E06441F2231000F095F9207881
:101B30008C49284406228D3101F0E8F901280AD1A8
:101B4000B5F8090040BAFEF71CFD0146A06441F259
:101B5000251000F081F920788249284406229F311F
:101B600001F0D4F9012805D1287A012802D1824850
:101B70000068A06720787B4906222844A53100E050
:101B8000EBE001F0C3F9012809D1A87AA066616AE7
:101B9000884200D0606200EB8000400060622078E4
:101BA000704928440622AB3101F0B0F9012801D078
:101BB000A06A09E0A87AE066A16A884200D0A06223
:101BC00000EB80004000A062616A06220844A06029
:101BD000207864492844933101F098F9012807D10D
:101BE000A87A2067616C884200D0606464386064C1
:101BF00020785C4928440622B73101F087F9DFF8E4
:101C00007C916FF0030A01281CD1A879012819D111
:101C10005B48C4F83C8001685A48814212DCA76DD9
:101C2000102F08DA59F82700216DFEF79DFA7F1C66
:101C3000A7652065F4E75146206DFEF75DFB26653C
:101C4000A66560632078474928440622B13101F037
:101C50005DF9012806D1A87A6067A16B884200D09F
:101C6000A063A06320783F4928440622BD3101F0DB
:101C70004DF9012809D014E059F82700616DFEF7ED
:101C800073FA7F1CE765606500E0E76D102FF3DBFA
:101C90005146606DFEF730FB6665C4F84080E6652E
:101CA000206320782F4928440622C33101F02EF901
:101CB00001283DD1A87A41F2281101EBC002891C0C
:101CC00001EBC006891C01EBC003891C01EBC001BC
:101CD00004F10C08E161234F88E84D0087374FEA93
:101CE000162C87F804C07E711E4E1F0A8D36377180
:101CF00073711C4B0E0A93331E7159711949130AE3
:101D0000993119280B714A7112D810460221FFF738
:101D100057F9208B022180B2FFF752F9A08A0221E5
:101D200080B2FFF74DF9A08B022180B2FFF748F98E
:101D300020780C4928440622993101F0E7F801285F
:101D40000BD1B5F8090040BAFEF712FCBDE8F04728
:101D5000014641F21F1000F07FB8BDE8F087000097
:101D600000440040D4000020B2060020434D443D12
:101D70000000000000380140C80000206802002078
:101D8000C4000020333383408088C0F308007047CC
:101D9000C1F3080181807047FEE700001049252249
:101DA00031230A7030224A708B702323CB70572363
:101DB0000B7143234B7153238B715223CB7132230D
:101DC0000B7235234B728A72CA7208732A204873C9
:101DD00088730D20C87310210148FFF7C1B90000B6
:101DE0009E12002070B500EB40104300180AFFF768
:101DF00014F80446D8B2FFF710F81649252231230B
:101E00000A7030224A708B702323CB7057230B71DA
:101E100044234B718B71CA710A7232264E7233257C
:101E20008D723823CB720A734A738E73CD730B7421
:101E3000020A4A748874200AC8740C752A204875EE
:101E400088750D20C875BDE8704018210148FFF75E
:101E500087B900009E1200202DE9F0410D4606468C
:101E600001212820FEF772F9044601211420FEF713
:101E70006DF9804601212820FEF768F907462846BB
:101E8000FEF784FB02460B4616A1404600F02EF8F2
:101E90004146384600F0B4FD054601464046FFF78E
:101EA000DBFC5A202070A5206070E91CA170822004
:101EB000E070300A207166712A463946A01DFEF78F
:101EC00033F9AD1DE9B22046FFF738FC404600F07B
:101ED000E9FD204600F0E6FD3846BDE8F04100F09F
:101EE000E1BD0000252E31660D0A00000FB4084B3D
:101EF00010B504A902AA039800F0DEF8044602A96E
:101F0000002000F05CFC204610BC5DF814FB0000D3
:101F1000BF27000802E008C8121F08C1002AFAD132
:101F200070477047002001E001C1121F002AFBD159
:101F3000704700002DE9FF5F82B00021DDE9043029
:101F4000020DDDF840B0034318D044F61050A2F261
:101F5000FF3242431514119801281FD0A5EB0B0046
:101F6000401C5FEA000A4FF000064E4FDFF8389140
:101F7000B046504615D5CAF1000413E0119801246B
:101F80004AA3012801D16FEA0B010298119AC0E916
:101F90000031C0E9024206B0BDE8F09FCBF100007D
:101FA000DFE704460021404A491842EB0450CDE9DE
:101FB000001012E0E00707D032463B464046494653
:101FC000FEF74DFA8046894632463B461046194692
:101FD000FEF745FA06460F466410002CEAD1DDE90B
:101FE0000401DDE90023BAF1000F06DAFEF737FA43
:101FF00042464B46FEF733FA05E0FEF707FC424641
:102000004B46FEF703FC04460E460022284BFEF723
:1020100085FC03D84FF0FF30014607E00022254B36
:1020200020463146FEF774F9FEF75FFC102409E004
:10203000002C0ADB0A220023FEF702FB039B30324E
:102040001A55641E50EA0102F2D1641C039AC4F1CD
:1020500011031444119A012A03D0012208430DD11F
:102060000AE0084304D000204FF0110B119072E7F2
:10207000A3EB0B056D1E0DE05B4504DD4FF0000288
:1020800005F1010504E003DA4FF00002A5F10105B6
:10209000002AECD002981199C0E90231C0E900454C
:1020A00079E70000000014400000F03F300000001D
:1020B0000000F0430000E03F2DE9FF4F95B09A4645
:1020C000884606460025EEE1252877D100242746DC
:1020D000F94A0121039400E0044316F8013F203B34
:1020E00001FA03F01042F7D130782A2811D06FF0AE
:1020F0002F033078A0F13002092A16D8039A44F051
:10210000020402EB820203EB42021044761C0390AD
:10211000EFE758F8042B0392002A03DA504244F404
:102120000054039044F00204761C30782E2816D117
:1021300016F8010F44F004042A280DD06FF02F0286
:102140003078A0F13003092B09D807EB870302EBA5
:102150004303C718761CF3E758F8047B761C3078E5
:102160006C280FD006DC4C2817D068280DD06A28C0
:1021700014D104E0742810D07A280FD10DE044F473
:1021800000140AE044F4801401E044F4401472782E
:10219000824202D104F58014761C761C30786628C1
:1021A0000BD013DC582877D009DC002875D04528DF
:1021B000F6D04628F4D047281AD193E118E06328D6
:1021C00035D0642879D0652812D18BE1702873D07E
:1021D00008DC6728F1D069286FD06E280DD06F28F1
:1021E00006D1ACE073282CD0752874D0782853D051
:1021F0005246179990476D1C54E1C4F302500228CF
:1022000009D003280DD0D8F8001004280DD00D6097
:1022100008F1040846E1D8F80010EA17C1E90052B5
:10222000F6E7D8F800100D80F2E70D70F0E718F827
:10223000041B8DF8001000208DF80100EB460120F2
:1022400003E058F804BB4FF0FF3061074FF0000186
:1022500002D40DE009F101018946B9420FDA814546
:10226000F8DB1BF809100029F4D108E009F101019D
:1022700089468142FADB1BF809100029F6D1039840
:102280005346A0EB090721463846179A00F080FA1A
:10229000284400EB090507E044E008E10DE01BF8E5
:1022A000010B524617999047B9F10109F7D25346ED
:1022B00021463846179AF2E039E00A21C4F3025267
:1022C0004FF0000B0091022A06D058F8040BC117FA
:1022D000032A09D00AE023E008F1070020F00702F2
:1022E000F2E80201904605E000B2C117042A01D1CC
:1022F00040B2C117002906DA0A460021404261EBCC
:1023000002012D2202E0220504D52B228DF80420A3
:10231000012203E0E20701D02022F7E7914657E0CF
:102320000A2100E010214FF0000B00910BE010217A
:102330004FF0000B44F004040827009103E008204C
:102340004FF0000B0090C4F30252022A05D058F857
:10235000040B0021032A08D008E008F1070020F050
:102360000702F2E80201904603E080B2042A00D19D
:10237000C0B24FF0000922072AD53278702A07D060
:10238000DDF800C08CF0100C5CEA0B0C05D00EE000
:1023900040228DF80420012208E050EA010306D013
:1023A00030238DF804308DF8052002229146009BE1
:1023B00083F0080353EA0B030AD150EA010201D16A
:1023C000620705D530228DF804204FF001097F1EE9
:1023D0003278582A04D039A20C920CAA02920BE04F
:1023E0003BA2F9E75B46009AFEF72AF90C9B9B5C3F
:1023F000029A521E0292137050EA0102F2D1029820
:1024000004A9081A00F1200B600702D524F48034D7
:1024100000E001275F4502DDA7EB0B0000E0002094
:1024200000EB0B01009003984944401A0390E0032D
:1024300006D453462146179A039800F0A9F905449B
:10244000002706E001A85246C05D179990476D1C11
:102450007F1C4F45F6DBE0030CD553462146179A07
:10246000039800F095F9054404E03020524617998E
:1024700090476D1C0099481E00900029F5DC08E08B
:102480000298029952460078491C02911799904788
:102490006D1CBBF10001ABF1010BF1DC5BE100F065
:1024A00065F90544761C307800287FF40DAE19B02C
:1024B0002846BDE8F08F0000092801003031323392
:1024C0003435363738396162636465660000000070
:1024D000303132333435363738394142434445465A
:1024E00000000000600700D4062708F1070020F074
:1024F0000700F0E80223804603F0004C5FEA0C007E
:1025000001D097A009E0200501D596A005E0E007DD
:1025100001D095A001E0AFF24C001390307823F089
:10252000004365280CD006DC452809D046281DD07C
:1025300047287FD13BE0662818D067287AD136E05B
:102540000021112F01DB112000E0781CCDE90001F2
:1025500004A90CA8FFF7EEFCDDE90D010C9A4FF081
:10256000000B07F10109109200914EE04FF000407E
:102570000097CDE9011004A90CA8FFF7DBFCDDE909
:102580000D020C9B0F994FF0000B91461093009297
:1025900011B9791C00EB0109B7EB090003D4C0F1B4
:1025A000FF3B07F10109A9EB0700019042E0012F71
:1025B00000DA01270021112F01DD112000E038464B
:1025C000CDE9000104A90CA8FFF7B4FCDDE90D0179
:1025D0000C9A00914FF0000BB946109221070FD4CE
:1025E000009A4A4503DA914601E0A9F10109B9F1DF
:1025F000010F05DD109AA9F10101515C3029F4D0D9
:10260000B84202DA10F1040F03DA0121CDE901101A
:1026100010E0002803DC8344A9EB000102E0411C28
:10262000494500DD8946A0EB0B00401C01904FF0AE
:1026300000400290200705D40198484502DB4FF086
:10264000FF30019000208DF84B0002980DF14B07F0
:10265000B0F1004F25D002200C902B200D90029855
:1026600000280CDA404202902D200D9007E00A214C
:102670000298FDF7CFFF3031029007F8011D0C9949
:10268000481E0C900029F2DC02980028EFD1791E38
:102690000D980870307800F0200040F0450007F8F1
:1026A000020D11A8C01BC01D02901398007800B144
:1026B000012000EB0901019801EBE071029801444F
:1026C0000398401A401E0390E00306D45346214667
:1026D000179A039800F05CF805441398007818B135
:1026E0005246179990476D1CE00323D55346214667
:1026F000179A039800F04CF805441BE0BBF1000F5B
:1027000007DB0098584504DD1098179910F80B0066
:1027100001E0179930205246904701980BF1010BC8
:10272000401E05F10105019004D12E205246179953
:1027300090476D1CB9F10001A9F10109DEDC05E04B
:1027400017F8010B5246179990476D1C0299481EC5
:1027500002900029F4DC53462146179A03989EE61E
:102760002D0000002B000000200000002DE9F041AA
:10277000044600251E461746880404D405E0394661
:102780002020B0476D1C641EF9D52846BDE8F081B5
:102790002DE9F041044600251E469046C80301D5A8
:1027A000302700E02027880404D505E0414638465C
:1027B000B0476D1C641EF9D52846BDE8F0810A6853
:1027C000531C0B60107070472DE9F0411E461746F0
:1027D00088460546069C00F015F800F01DF8FEF747
:1027E00003F9384600F04AFB284600F06FFB3046FC
:1027F00000F036FB204600F025FB4046BDE8F041E6
:1028000000F048BB03490120C1F89001502000F0BE
:1028100027B900000000214203490020C1F89001BF
:10282000502000F01DB900000000214230B5811C8D
:1028300004464378C21C07E0455C5A2D02D1855CF2
:10284000A52D06D0401C207020789842F4D100209D
:1028500030BDC0B21049181A02D500F2011000E0D4
:10286000401C888080B20B280BD320780B22401E9E
:10287000C1B2E01C00F03EF92078401C207001201D
:1028800030BD086E401C0866B0F5FA6FDFDB002033
:10289000086660782070DAE7D40000202DE9F04166
:1028A00001212820FDF752FC044601211420FDF7E8
:1028B0004DFC074601212820FDF748FC06461F482D
:1028C00000F18005C1692869FDF7A0FC286110F1BD
:1028D000FF4F01D300202861FDF758FE02460B464A
:1028E00017A13846FFF702FB3946304600F088F85A
:1028F0000546C1B23846FEF7AFFF5A202070A5202A
:102900006070E81CA0708220E0701120207160715E
:102910002A463146A01DFDF707FCAD1DE9B2204651
:10292000FEF70CFF384600F0BDF8204600F0BAF87C
:102930003046BDE8F04100F0B5B800003800002096
:10294000252E31660D0A00002DE9F04700F0F6F95A
:10295000294A2A4B002106461060984249DDA2F11F
:102960008004E06F012804DAA660401CE06701D013
:102970003DE0E167A16891460D463046FDF746FC13
:102980006061E168074688462846FDF73FFC05463A
:10299000206141463046FDF739FC4FF07C586060BD
:1029A000454501DB474505DA4FF03F40854205D3F9
:1029B000874203D33046E660BDE8F087454506DB35
:1029C00039464046FDF71CFE01D2A0680DE04046A6
:1029D0002169FDF715FE0AD26068414620F00040EB
:1029E000FDF704FE03D9D9F80000E060E4E7E068F1
:1029F000E2E708461160DFE7B80000200000404031
:102A000030B503460020044604E0C50706D01A543A
:102A1000401C491C0A78002AF7D130BD1C54401CC8
:102A2000F8E7000010B56FF00400FEF71BFC094842
:102A300009490068B0FBF1F00849C0B200EB400260
:102A40000870C2EBC0104FF6FF7202EAC000488067
:102A500010BD00000000002000127A0034000020A9
:102A60000B49498848434FF0E021486100238B61BE
:102A7000086940F0010008610869C20701D0C0037D
:102A8000FAD5086920F0010008618B6170470000E9
:102A9000340000200249002081F800027047000045
:102AA000A802002010B5002821D0114B0022001FE1
:102AB000196803E0814203D80A4649680029F9D120
:102AC00052B11368841A9C4204D100681844106003
:102AD000104602E0506000E0186039B102680B1A3D
:102AE000934203D10B681A4402604968416010BDEB
:102AF000D001002030B50023054C05E0455C491CA1
:102B0000E5545B1CC9B2DBB29342F7D330BD000081
:102B1000B20600202DE9F0477B48D0F818110129B2
:102B2000FBD000F079F9794C794D00226063A16BFC
:102B30004FF0010A04F1800945F82100491CA16306
:102B4000102903D0206C012803D0C2E0C4F840A0B3
:102B5000A263DFF8BCC19046ACF1280CACF12807A9
:102B6000E26305EB820155F822304868834208DDB4
:102B70008E68B04205DAA16D4CF82100491CA165B0
:102B800009E0834207DA8968884204DD616D47F80D
:102B90002100491C6165521CE2630E2AE1DBA16D34
:102BA000022903DD606D2246022824DCC446C4F8F5
:102BB0006C80C4F870C0E76E6046C7F110060CE088
:102BC00005EB800355F8202059688A4203DD6267CF
:102BD00045F820105A60401C20678642F0DC7F1CBC
:102BE000E766102FE5DBE96B28680844206500EBF9
:102BF000D070401025E0814201DAD16500E0D06557
:102C00004346C2F858801946D06D06E05CF8215062
:102C1000966C491C3544956491658142F6DB1946F2
:102C2000536506E057F82130D56C491C2B44D3641A
:102C300051658142F6DBD2E912311944400091FB23
:102C4000F0F06064A0F50000FDF792FCFDF79EFC3B
:102C50000022304BFDF703FC00222F4BFDF7FFFB5A
:102C60006FF01D02FDF76DFCFDF7A3FC284AC9F8C3
:102C70000C00216E40324D4642F82100491C21666D
:102C8000102901DBC4E9188A244E3168012924D0B7
:102C9000FDF77CFC224A234BFDF7E1FB224A234B44
:102CA000FDF7D7FBFDF785FCA860C4F84080C4F8A9
:102CB0003C80C4F85480C4F85880C4F84880C4F8F4
:102CC0004C80C4F85C80C4F86880C4F85080C4F8B4
:102CD0004480D9F80800BDE8F087154909688A469C
:102CE000FDF794FA0746134851460068FDF78EFA3F
:102CF00001461148FDF7C2FA3946FDF78DFAA86082
:102D0000C6F80080D1E70000000021423800002012
:102D1000280200200000144000408F4014010020D1
:102D20005A643BDFCFD1A540713D0AD703E8C540C7
:102D300008010020040100200000FA440248016854
:102D400002484068FDF762BA4C010020B80000203C
:102D500008B5FEF795FAFFF765FE4FF4A060FEF7A1
:102D6000A9F8FEF779F94FF4165000F087F9FEF74D
:102D70003BF9FFF78FFEFFF755FE4FF4E134204695
:102D800000F0D4F8204600F023F9312140F2CF20A2
:102D9000FEF790FB00200346032100900222084624
:102DA000FFF712FDFDF70AFFFEE70000F0B50B305C
:102DB000154D20F007010024144A0FE003688B42F0
:102DC0000BD38B4205D95E1A43184768C3E90067E5
:102DD00000E04368136002C004E0021D1068002890
:102DE000ECD12046002802D1286808B10020F0BDAF
:102DF000064A07481060074A121A22F00702C0E983
:102E0000002401202860D7E7D4010020D001002051
:102E1000A41A0020A01C002030B50020084A01465A
:102E200004460125C2F894414300D2F81801C2F8C3
:102E300094511843491CC9B21829F3D330BD00007E
:102E4000000021420549012208B1012802D0C1F841
:102E5000802170470020C1F88001704700002142A6
:102E60000549002208B1012802D0C1F8802170472D
:102E70000120C1F880017047000022420449012866
:102E800003D00120C1F8840170470020FAE7000058
:102E9000000022420C49002230B10123012806D053
:102EA000022809D003280AD0C1F8882101E0C1F81E
:102EB0008831C1F88C217047C1F8882101E0C1F840
:102EC0008831C1F88C3170470000224210B50D499D
:102ED0000D4A012348B10024012803D0022809D05B
:102EE00003280AD0C1F8804101E0C1F88031C2F85E
:102EF000943110BDC1F8804101E0C1F88031C2F8C1
:102F0000944110BD008021420000224230B50023D0
:102F100007E0C45CCD5CAC4201D0002030BD5B1C3E
:102F2000DBB29342F5D3012030BD0000F0B5064678
:102F300087B0012144F20400FDF7E0FF224D28464E
:102F4000FEF7B4FC6815ADF8100003248DF81240AC
:102F500018201E4F8DF8130004A93846FDF7D0FE47
:102F60002815ADF8100004208DF8130004A9384688
:102F7000FDF7C6FE25208DF814008DF815408DF85C
:102F8000164001208DF8170005A8FDF761FF00210C
:102F9000ADF80810ADF804100C20ADF80610ADF82F
:102FA0000C10ADF80A00009669462846FEF7F6FCBC
:102FB000012240F225512846FEF7D8FC012128467F
:102FC000FEF76AFC07B0F0BD003801400008014080
:102FD000F0B50646012187B08804FDF777FF01218F
:102FE0002820FDF78BFF234D2846FEF75FFC2815B0
:102FF000ADF8100003248DF8124018201E4F8DF8F4
:10300000130004A93846FDF77BFEE814ADF8100064
:1030100004208DF8130004A93846FDF771FE27201F
:103020008DF814008DF815408DF8164001208DF8AC
:10303000170005A8FDF70CFF0021ADF80810ADF84A
:1030400004100C20ADF80610ADF80C10ADF80A0015
:10305000009669462846FEF7A1FC012240F2255160
:103060002846FEF783FC01212846FEF715FC07B031
:10307000F0BD000000480040000C0140F0B50746DC
:1030800087B0012144F20400FDF738FF0425ADF8B4
:10309000105003248DF8124018201D4E8DF8130097
:1030A00004A93046FDF72CFE0820ADF810008DF87D
:1030B000135004A93046FDF723FE25208DF8140097
:1030C0008DF815408DF8164001208DF8170005A8E1
:1030D000FDF7BEFE0020ADF80400ADF80600ADF827
:1030E0000800ADF80C000C200A4CADF80A0000975F
:1030F00069462046FEF752FC012240F22551204647
:10310000FEF734FC01212046FEF7C6FB07B0F0BDF8
:103110000008014000440040383100080000002051
:10312000D80100009009000890310008D801002063
:10313000C81E0000241F00081184A24A04C009010F
:10314000020304060708096D020406081C09122080
:103150000110027B01897C027902100A5AA50683BC
:10316000105AA5088339063B1032063A34063A361F
:10317000063A30232A240C3B2014063A16182A1843
:10318000183B302A063A2C1872203204032E802570
:04000005080000ED02
:00000001FF
